{"abi":[{"type":"constructor","inputs":[{"name":"_id","type":"bytes32","internalType":"bytes32"},{"name":"_tokenContract","type":"address","internalType":"address"},{"name":"_nomicContract","type":"address","internalType":"address"}],"stateMutability":"nonpayable"},{"type":"function","name":"stake","inputs":[{"name":"amount","type":"uint256","internalType":"uint256"},{"name":"finalityProvider","type":"bytes32","internalType":"bytes32"},{"name":"stakingPeriod","type":"uint16","internalType":"uint16"},{"name":"unbondingPeriod","type":"uint16","internalType":"uint16"}],"outputs":[{"name":"","type":"uint256","internalType":"uint256"}],"stateMutability":"nonpayable"},{"type":"function","name":"state_delegations","inputs":[],"outputs":[{"name":"","type":"uint256","internalType":"uint256"}],"stateMutability":"view"},{"type":"function","name":"state_id","inputs":[],"outputs":[{"name":"","type":"bytes32","internalType":"bytes32"}],"stateMutability":"view"},{"type":"function","name":"state_nomicContract","inputs":[],"outputs":[{"name":"","type":"address","internalType":"address"}],"stateMutability":"view"},{"type":"function","name":"state_owners","inputs":[{"name":"","type":"uint256","internalType":"uint256"}],"outputs":[{"name":"","type":"address","internalType":"address"}],"stateMutability":"view"},{"type":"function","name":"state_tokenContract","inputs":[],"outputs":[{"name":"","type":"address","internalType":"address"}],"stateMutability":"view"},{"type":"function","name":"unstake","inputs":[{"name":"index","type":"uint256","internalType":"uint256"}],"outputs":[],"stateMutability":"nonpayable"},{"type":"error","name":"AddressEmptyCode","inputs":[{"name":"target","type":"address","internalType":"address"}]},{"type":"error","name":"AddressInsufficientBalance","inputs":[{"name":"account","type":"address","internalType":"address"}]},{"type":"error","name":"FailedInnerCall","inputs":[]},{"type":"error","name":"ReentrancyGuardReentrantCall","inputs":[]},{"type":"error","name":"SafeERC20FailedOperation","inputs":[{"name":"token","type":"address","internalType":"address"}]},{"type":"error","name":"StringsInsufficientHexLength","inputs":[{"name":"value","type":"uint256","internalType":"uint256"},{"name":"length","type":"uint256","internalType":"uint256"}]}],"bytecode":{"object":"0x60e0604052600060015534801561001557600080fd5b50604051610e3e380380610e3e833981016040819052610034916100e4565b600160005560808390526001600160a01b0382811660a081905290821660c081905260405163095ea7b360e01b81526004810191909152600019602482015263095ea7b3906044016020604051808303816000875af115801561009b573d6000803e3d6000fd5b505050506040513d601f19601f820116820180604052508101906100bf9190610120565b50505050610149565b80516001600160a01b03811681146100df57600080fd5b919050565b6000806000606084860312156100f957600080fd5b83519250610109602085016100c8565b9150610117604085016100c8565b90509250925092565b60006020828403121561013257600080fd5b8151801515811461014257600080fd5b9392505050565b60805160a05160c051610ca56101996000396000818160870152818161026b015261039e01526000818161015a015281816102980152818161030a01526103cb0152600060e00152610ca56000f3fe608060405234801561001057600080fd5b506004361061007d5760003560e01c8063a9b959c11161005b578063a9b959c114610110578063c6235e0014610139578063c7c6d51a1461014c578063dccfb5081461015557600080fd5b806311c14ac1146100825780632e17de78146100c65780637cd46a6d146100db575b600080fd5b6100a97f000000000000000000000000000000000000000000000000000000000000000081565b6040516001600160a01b0390911681526020015b60405180910390f35b6100d96100d436600461095b565b61017c565b005b6101027f000000000000000000000000000000000000000000000000000000000000000081565b6040519081526020016100bd565b6100a961011e36600461095b565b6002602052600090815260409020546001600160a01b031681565b61010261014736600461098b565b6102fb565b61010260015481565b6100a97f000000000000000000000000000000000000000000000000000000000000000081565b6001548111156101c35760405162461bcd60e51b815260206004820152600d60248201526c092dcecc2d8d2c840d2dcc8caf609b1b60448201526064015b60405180910390fd5b6000818152600260205260409020546001600160a01b031633146102295760405162461bcd60e51b815260206004820152601f60248201527f4e6f7420746865206f776e6572206f66207468652064656c65676174696f6e0060448201526064016101ba565b60006102348261046f565b60405160200161024491906109f5565b60408051601f1981840301815290829052632ce72eef60e11b825291506001600160a01b037f000000000000000000000000000000000000000000000000000000000000000016906359ce5dde906102c5907f0000000000000000000000000000000000000000000000000000000000000000908590600090600401610a71565b600060405180830381600087803b1580156102df57600080fd5b505af11580156102f3573d6000803e3d6000fd5b505050505050565b60006103326001600160a01b037f000000000000000000000000000000000000000000000000000000000000000016333088610502565b600061033f336014610562565b61034a866020610562565b6103578661ffff1661046f565b6103648661ffff1661046f565b6040516020016103779493929190610aa5565b60408051601f1981840301815290829052632ce72eef60e11b825291506001600160a01b037f000000000000000000000000000000000000000000000000000000000000000016906359ce5dde906103f7907f00000000000000000000000000000000000000000000000000000000000000009085908b90600401610a71565b600060405180830381600087803b15801561041157600080fd5b505af1158015610425573d6000803e3d6000fd5b505060018054600081815260026020526040812080546001600160a01b03191633179055825491945091925082919061045f908390610bc4565b9091555090979650505050505050565b6060600061047c836106e4565b600101905060008167ffffffffffffffff81111561049c5761049c610bd7565b6040519080825280601f01601f1916602001820160405280156104c6576020820181803683370190505b5090508181016020015b600019016f181899199a1a9b1b9c1cb0b131b232b360811b600a86061a8153600a85049450846104d057509392505050565b604080516001600160a01b0385811660248301528416604482015260648082018490528251808303909101815260849091019091526020810180516001600160e01b03166323b872dd60e01b17905261055c9085906107bc565b50505050565b6060826000610572846002610bed565b61057d906002610bc4565b67ffffffffffffffff81111561059557610595610bd7565b6040519080825280601f01601f1916602001820160405280156105bf576020820181803683370190505b509050600360fc1b816000815181106105da576105da610c04565b60200101906001600160f81b031916908160001a905350600f60fb1b8160018151811061060957610609610c04565b60200101906001600160f81b031916908160001a905350600061062d856002610bed565b610638906001610bc4565b90505b60018111156106b0576f181899199a1a9b1b9c1cb0b131b232b360811b83600f166010811061066c5761066c610c04565b1a60f81b82828151811061068257610682610c04565b60200101906001600160f81b031916908160001a90535060049290921c916106a981610c1a565b905061063b565b5081156106da5760405163e22e27eb60e01b815260048101869052602481018590526044016101ba565b9150505b92915050565b60008072184f03e93ff9f4daa797ed6e38ed64bf6a1f0160401b83106107235772184f03e93ff9f4daa797ed6e38ed64bf6a1f0160401b830492506040015b6d04ee2d6d415b85acef8100000000831061074f576d04ee2d6d415b85acef8100000000830492506020015b662386f26fc10000831061076d57662386f26fc10000830492506010015b6305f5e1008310610785576305f5e100830492506008015b612710831061079957612710830492506004015b606483106107ab576064830492506002015b600a83106106de5760010192915050565b60006107d16001600160a01b03841683610824565b905080516000141580156107f65750808060200190518101906107f49190610c31565b155b1561081f57604051635274afe760e01b81526001600160a01b03841660048201526024016101ba565b505050565b606061083283836000610839565b9392505050565b60608147101561085e5760405163cd78605960e01b81523060048201526024016101ba565b600080856001600160a01b0316848660405161087a9190610c53565b60006040518083038185875af1925050503d80600081146108b7576040519150601f19603f3d011682016040523d82523d6000602084013e6108bc565b606091505b50915091506108cc8683836108d6565b9695505050505050565b6060826108eb576108e682610932565b610832565b815115801561090257506001600160a01b0384163b155b1561092b57604051639996b31560e01b81526001600160a01b03851660048201526024016101ba565b5080610832565b8051156109425780518082602001fd5b604051630a12f52160e11b815260040160405180910390fd5b60006020828403121561096d57600080fd5b5035919050565b803561ffff8116811461098657600080fd5b919050565b600080600080608085870312156109a157600080fd5b84359350602085013592506109b860408601610974565b91506109c660608601610974565b905092959194509250565b60005b838110156109ec5781810151838201526020016109d4565b50506000910152565b7f7b2274797065223a22756e7374616b65222c22696e646578223a220000000000815260008251610a2d81601b8501602087016109d1565b607d60f81b601b939091019283015250601c01919050565b60008151808452610a5d8160208601602086016109d1565b601f01601f19169290920160200192915050565b6001600160a01b0384168152606060208201819052600090610a9590830185610a45565b9050826040830152949350505050565b7f7b2274797065223a227374616b65222c226f776e6572223a2200000000000000815260008551610add816019850160208a016109d1565b7f222c2266696e616c6974795f70726f7669646572223a220000000000000000006019918401918201528551610b1a816030840160208a016109d1565b6019818301019150507211161139ba30b5b4b733afb832b934b7b2111d60691b60178201528451610b5281602a8401602089016109d1565b6017818301019150507316113ab73137b73234b733afb832b934b7b2111d60611b60138201528351610b8b8160278401602088016109d1565b016013810190610ba190602701607d60f81b9052565b6015019695505050505050565b634e487b7160e01b600052601160045260246000fd5b808201808211156106de576106de610bae565b634e487b7160e01b600052604160045260246000fd5b80820281158282048414176106de576106de610bae565b634e487b7160e01b600052603260045260246000fd5b600081610c2957610c29610bae565b506000190190565b600060208284031215610c4357600080fd5b8151801515811461083257600080fd5b60008251610c658184602087016109d1565b919091019291505056fea264697066735822122092a25af19c5020e3b0a0338ab1fb67fc0aafc98e0129c4627c8e603edbc1b12f64736f6c634300081a0033","linkReferences":{}},"methodIdentifiers":{"stake(uint256,bytes32,uint16,uint16)":"c6235e00","state_delegations()":"c7c6d51a","state_id()":"7cd46a6d","state_nomicContract()":"11c14ac1","state_owners(uint256)":"a9b959c1","state_tokenContract()":"dccfb508","unstake(uint256)":"2e17de78"},"id":0}