{"abi":[{"type":"constructor","inputs":[{"name":"_id","type":"bytes32","internalType":"bytes32"},{"name":"_tokenContract","type":"address","internalType":"address"},{"name":"_nomicContract","type":"address","internalType":"address"}],"stateMutability":"nonpayable"},{"type":"function","name":"stake","inputs":[{"name":"amount","type":"uint256","internalType":"uint256"},{"name":"finalityProvider","type":"bytes32","internalType":"bytes32"},{"name":"stakingPeriod","type":"uint16","internalType":"uint16"},{"name":"unbondingPeriod","type":"uint16","internalType":"uint16"}],"outputs":[{"name":"","type":"uint256","internalType":"uint256"}],"stateMutability":"nonpayable"},{"type":"function","name":"state_id","inputs":[],"outputs":[{"name":"","type":"bytes32","internalType":"bytes32"}],"stateMutability":"view"},{"type":"function","name":"state_lastValsetCheckpoint","inputs":[],"outputs":[{"name":"","type":"bytes32","internalType":"bytes32"}],"stateMutability":"view"},{"type":"function","name":"state_nomicContract","inputs":[],"outputs":[{"name":"","type":"address","internalType":"address"}],"stateMutability":"view"},{"type":"function","name":"state_tokenContract","inputs":[],"outputs":[{"name":"","type":"address","internalType":"address"}],"stateMutability":"view"},{"type":"error","name":"AddressEmptyCode","inputs":[{"name":"target","type":"address","internalType":"address"}]},{"type":"error","name":"AddressInsufficientBalance","inputs":[{"name":"account","type":"address","internalType":"address"}]},{"type":"error","name":"FailedInnerCall","inputs":[]},{"type":"error","name":"ReentrancyGuardReentrantCall","inputs":[]},{"type":"error","name":"SafeERC20FailedOperation","inputs":[{"name":"token","type":"address","internalType":"address"}]},{"type":"error","name":"StringsInsufficientHexLength","inputs":[{"name":"value","type":"uint256","internalType":"uint256"},{"name":"length","type":"uint256","internalType":"uint256"}]}],"bytecode":{"object":"0x60e060405234801561001057600080fd5b50604051610b39380380610b3983398101604081905261002f916100df565b600160005560808390526001600160a01b0382811660a081905290821660c081905260405163095ea7b360e01b81526004810191909152600019602482015263095ea7b3906044016020604051808303816000875af1158015610096573d6000803e3d6000fd5b505050506040513d601f19601f820116820180604052508101906100ba919061011b565b50505050610144565b80516001600160a01b03811681146100da57600080fd5b919050565b6000806000606084860312156100f457600080fd5b83519250610104602085016100c3565b9150610112604085016100c3565b90509250925092565b60006020828403121561012d57600080fd5b8151801515811461013d57600080fd5b9392505050565b60805160a05160c0516109b461018560003960008181606101526101ae01526000818160ed0152818161012701526101db0152600060a501526109b46000f3fe608060405234801561001057600080fd5b50600436106100575760003560e01c806311c14ac11461005c5780637cd46a6d146100a0578063c6235e00146100d5578063dccfb508146100e8578063f2b533071461010f575b600080fd5b6100837f000000000000000000000000000000000000000000000000000000000000000081565b6040516001600160a01b0390911681526020015b60405180910390f35b6100c77f000000000000000000000000000000000000000000000000000000000000000081565b604051908152602001610097565b6100c76100e336600461073c565b610118565b6100837f000000000000000000000000000000000000000000000000000000000000000081565b6100c760015481565b600061014e6001600160a01b037f0000000000000000000000000000000000000000000000000000000000000000163087610242565b600061015b856020610299565b6101688561ffff16610420565b6101758561ffff16610420565b604051602001610187939291906107a6565b60408051601f1981840301815290829052632ce72eef60e11b825291506001600160a01b037f000000000000000000000000000000000000000000000000000000000000000016906359ce5dde90610207907f00000000000000000000000000000000000000000000000000000000000000009085908b90600401610873565b600060405180830381600087803b15801561022157600080fd5b505af1158015610235573d6000803e3d6000fd5b5050505050949350505050565b604080516001600160a01b038416602482015260448082018490528251808303909101815260649091019091526020810180516001600160e01b031663a9059cbb60e01b1790526102949084906104b3565b505050565b60608260006102a98460026108d3565b6102b49060026108ea565b67ffffffffffffffff8111156102cc576102cc6108fd565b6040519080825280601f01601f1916602001820160405280156102f6576020820181803683370190505b509050600360fc1b8160008151811061031157610311610913565b60200101906001600160f81b031916908160001a905350600f60fb1b8160018151811061034057610340610913565b60200101906001600160f81b031916908160001a90535060006103648560026108d3565b61036f9060016108ea565b90505b60018111156103e7576f181899199a1a9b1b9c1cb0b131b232b360811b83600f16601081106103a3576103a3610913565b1a60f81b8282815181106103b9576103b9610913565b60200101906001600160f81b031916908160001a90535060049290921c916103e081610929565b9050610372565b5081156104165760405163e22e27eb60e01b815260048101869052602481018590526044015b60405180910390fd5b9150505b92915050565b6060600061042d83610516565b600101905060008167ffffffffffffffff81111561044d5761044d6108fd565b6040519080825280601f01601f191660200182016040528015610477576020820181803683370190505b5090508181016020015b600019016f181899199a1a9b1b9c1cb0b131b232b360811b600a86061a8153600a850494508461048157509392505050565b60006104c86001600160a01b038416836105ee565b905080516000141580156104ed5750808060200190518101906104eb9190610940565b155b1561029457604051635274afe760e01b81526001600160a01b038416600482015260240161040d565b60008072184f03e93ff9f4daa797ed6e38ed64bf6a1f0160401b83106105555772184f03e93ff9f4daa797ed6e38ed64bf6a1f0160401b830492506040015b6d04ee2d6d415b85acef81000000008310610581576d04ee2d6d415b85acef8100000000830492506020015b662386f26fc10000831061059f57662386f26fc10000830492506010015b6305f5e10083106105b7576305f5e100830492506008015b61271083106105cb57612710830492506004015b606483106105dd576064830492506002015b600a831061041a5760010192915050565b60606105fc83836000610603565b9392505050565b6060814710156106285760405163cd78605960e01b815230600482015260240161040d565b600080856001600160a01b031684866040516106449190610962565b60006040518083038185875af1925050503d8060008114610681576040519150601f19603f3d011682016040523d82523d6000602084013e610686565b606091505b50915091506106968683836106a0565b9695505050505050565b6060826106b5576106b0826106fc565b6105fc565b81511580156106cc57506001600160a01b0384163b155b156106f557604051639996b31560e01b81526001600160a01b038516600482015260240161040d565b50806105fc565b80511561070c5780518082602001fd5b604051630a12f52160e11b815260040160405180910390fd5b803561ffff8116811461073757600080fd5b919050565b6000806000806080858703121561075257600080fd5b843593506020850135925061076960408601610725565b915061077760608601610725565b905092959194509250565b60005b8381101561079d578181015183820152602001610785565b50506000910152565b7f7b2274797065223a227374616b65222c2266696e616c6974795f70726f76696481526432b9111d1160d91b6020820152600084516107ec816025850160208901610782565b7211161139ba30b5b4b733afb832b934b7b2111d60691b602591840191820152845161081f816038840160208901610782565b6025818301019150507316113ab73137b73234b733afb832b934b7b2111d60611b60138201528351610858816027840160208801610782565b607d60f81b6027929091019182015260280195945050505050565b60018060a01b038416815260606020820152600083518060608401526108a0816080850160208801610782565b604083019390935250601f91909101601f19160160800192915050565b634e487b7160e01b600052601160045260246000fd5b808202811582820484141761041a5761041a6108bd565b8082018082111561041a5761041a6108bd565b634e487b7160e01b600052604160045260246000fd5b634e487b7160e01b600052603260045260246000fd5b600081610938576109386108bd565b506000190190565b60006020828403121561095257600080fd5b815180151581146105fc57600080fd5b60008251610974818460208701610782565b919091019291505056fea26469706673582212203fc4729ee52fddedd19fdd3066f6ea5800f62ce34edfcf1bc110830f968494af64736f6c634300081a0033","linkReferences":{}},"methodIdentifiers":{"stake(uint256,bytes32,uint16,uint16)":"c6235e00","state_id()":"7cd46a6d","state_lastValsetCheckpoint()":"f2b53307","state_nomicContract()":"11c14ac1","state_tokenContract()":"dccfb508"},"id":0}