{"abi":[{"type":"constructor","inputs":[{"name":"_id","type":"bytes32","internalType":"bytes32"},{"name":"_tokenContract","type":"address","internalType":"address"},{"name":"_nomicContract","type":"address","internalType":"address"}],"stateMutability":"nonpayable"},{"type":"function","name":"stake","inputs":[{"name":"amount","type":"uint256","internalType":"uint256"},{"name":"finalityProvider","type":"bytes32","internalType":"bytes32"},{"name":"stakingPeriod","type":"uint16","internalType":"uint16"},{"name":"unbondingPeriod","type":"uint16","internalType":"uint16"}],"outputs":[{"name":"","type":"uint256","internalType":"uint256"}],"stateMutability":"nonpayable"},{"type":"function","name":"state_id","inputs":[],"outputs":[{"name":"","type":"bytes32","internalType":"bytes32"}],"stateMutability":"view"},{"type":"function","name":"state_nomicContract","inputs":[],"outputs":[{"name":"","type":"address","internalType":"address"}],"stateMutability":"view"},{"type":"function","name":"state_tokenContract","inputs":[],"outputs":[{"name":"","type":"address","internalType":"address"}],"stateMutability":"view"},{"type":"function","name":"unstake","inputs":[{"name":"index","type":"uint256","internalType":"uint256"}],"outputs":[],"stateMutability":"nonpayable"},{"type":"error","name":"AddressEmptyCode","inputs":[{"name":"target","type":"address","internalType":"address"}]},{"type":"error","name":"AddressInsufficientBalance","inputs":[{"name":"account","type":"address","internalType":"address"}]},{"type":"error","name":"FailedInnerCall","inputs":[]},{"type":"error","name":"ReentrancyGuardReentrantCall","inputs":[]},{"type":"error","name":"SafeERC20FailedOperation","inputs":[{"name":"token","type":"address","internalType":"address"}]},{"type":"error","name":"StringsInsufficientHexLength","inputs":[{"name":"value","type":"uint256","internalType":"uint256"},{"name":"length","type":"uint256","internalType":"uint256"}]}],"bytecode":{"object":"0x60e060405234801561001057600080fd5b50604051610cff380380610cff83398101604081905261002f916100df565b600160005560808390526001600160a01b0382811660a081905290821660c081905260405163095ea7b360e01b81526004810191909152600019602482015263095ea7b3906044016020604051808303816000875af1158015610096573d6000803e3d6000fd5b505050506040513d601f19601f820116820180604052508101906100ba919061011b565b50505050610144565b80516001600160a01b03811681146100da57600080fd5b919050565b6000806000606084860312156100f457600080fd5b83519250610104602085016100c3565b9150610112604085016100c3565b90509250925092565b60006020828403121561012d57600080fd5b8151801515811461013d57600080fd5b9392505050565b60805160a05160c051610b6b610194600039600081816061015281816101660152610299015260008181610102015281816101930152818161020501526102c60152600060ba0152610b6b6000f3fe608060405234801561001057600080fd5b50600436106100575760003560e01c806311c14ac11461005c5780632e17de78146100a05780637cd46a6d146100b5578063c6235e00146100ea578063dccfb508146100fd575b600080fd5b6100837f000000000000000000000000000000000000000000000000000000000000000081565b6040516001600160a01b0390911681526020015b60405180910390f35b6100b36100ae366004610821565b610124565b005b6100dc7f000000000000000000000000000000000000000000000000000000000000000081565b604051908152602001610097565b6100dc6100f8366004610851565b6101f6565b6100837f000000000000000000000000000000000000000000000000000000000000000081565b600061012f82610330565b60405160200161013f91906108bb565b60408051601f1981840301815290829052632ce72eef60e11b825291506001600160a01b037f000000000000000000000000000000000000000000000000000000000000000016906359ce5dde906101c0907f0000000000000000000000000000000000000000000000000000000000000000908590600090600401610937565b600060405180830381600087803b1580156101da57600080fd5b505af11580156101ee573d6000803e3d6000fd5b505050505050565b600061022d6001600160a01b037f0000000000000000000000000000000000000000000000000000000000000000163330886103c3565b600061023a336014610423565b610245866020610423565b6102528661ffff16610330565b61025f8661ffff16610330565b604051602001610272949392919061096b565b60408051601f1981840301815290829052632ce72eef60e11b825291506001600160a01b037f000000000000000000000000000000000000000000000000000000000000000016906359ce5dde906102f2907f00000000000000000000000000000000000000000000000000000000000000009085908b90600401610937565b600060405180830381600087803b15801561030c57600080fd5b505af1158015610320573d6000803e3d6000fd5b5060009998505050505050505050565b6060600061033d836105aa565b600101905060008167ffffffffffffffff81111561035d5761035d610a74565b6040519080825280601f01601f191660200182016040528015610387576020820181803683370190505b5090508181016020015b600019016f181899199a1a9b1b9c1cb0b131b232b360811b600a86061a8153600a850494508461039157509392505050565b604080516001600160a01b0385811660248301528416604482015260648082018490528251808303909101815260849091019091526020810180516001600160e01b03166323b872dd60e01b17905261041d908590610682565b50505050565b6060826000610433846002610aa0565b61043e906002610ab7565b67ffffffffffffffff81111561045657610456610a74565b6040519080825280601f01601f191660200182016040528015610480576020820181803683370190505b509050600360fc1b8160008151811061049b5761049b610aca565b60200101906001600160f81b031916908160001a905350600f60fb1b816001815181106104ca576104ca610aca565b60200101906001600160f81b031916908160001a90535060006104ee856002610aa0565b6104f9906001610ab7565b90505b6001811115610571576f181899199a1a9b1b9c1cb0b131b232b360811b83600f166010811061052d5761052d610aca565b1a60f81b82828151811061054357610543610aca565b60200101906001600160f81b031916908160001a90535060049290921c9161056a81610ae0565b90506104fc565b5081156105a05760405163e22e27eb60e01b815260048101869052602481018590526044015b60405180910390fd5b9150505b92915050565b60008072184f03e93ff9f4daa797ed6e38ed64bf6a1f0160401b83106105e95772184f03e93ff9f4daa797ed6e38ed64bf6a1f0160401b830492506040015b6d04ee2d6d415b85acef81000000008310610615576d04ee2d6d415b85acef8100000000830492506020015b662386f26fc10000831061063357662386f26fc10000830492506010015b6305f5e100831061064b576305f5e100830492506008015b612710831061065f57612710830492506004015b60648310610671576064830492506002015b600a83106105a45760010192915050565b60006106976001600160a01b038416836106ea565b905080516000141580156106bc5750808060200190518101906106ba9190610af7565b155b156106e557604051635274afe760e01b81526001600160a01b0384166004820152602401610597565b505050565b60606106f8838360006106ff565b9392505050565b6060814710156107245760405163cd78605960e01b8152306004820152602401610597565b600080856001600160a01b031684866040516107409190610b19565b60006040518083038185875af1925050503d806000811461077d576040519150601f19603f3d011682016040523d82523d6000602084013e610782565b606091505b509150915061079286838361079c565b9695505050505050565b6060826107b1576107ac826107f8565b6106f8565b81511580156107c857506001600160a01b0384163b155b156107f157604051639996b31560e01b81526001600160a01b0385166004820152602401610597565b50806106f8565b8051156108085780518082602001fd5b604051630a12f52160e11b815260040160405180910390fd5b60006020828403121561083357600080fd5b5035919050565b803561ffff8116811461084c57600080fd5b919050565b6000806000806080858703121561086757600080fd5b843593506020850135925061087e6040860161083a565b915061088c6060860161083a565b905092959194509250565b60005b838110156108b257818101518382015260200161089a565b50506000910152565b7f7b2274797065223a22756e7374616b65222c22696e646578223a2200000000008152600082516108f381601b850160208701610897565b607d60f81b601b939091019283015250601c01919050565b60008151808452610923816020860160208601610897565b601f01601f19169290920160200192915050565b6001600160a01b038416815260606020820181905260009061095b9083018561090b565b9050826040830152949350505050565b7f7b2274797065223a227374616b65222c226f776e6572223a22000000000000008152600085516109a3816019850160208a01610897565b7f222c2266696e616c6974795f70726f7669646572223a2200000000000000000060199184019182015285516109e0816030840160208a01610897565b6019818301019150507211161139ba30b5b4b733afb832b934b7b2111d60691b60178201528451610a1881602a840160208901610897565b6017818301019150507316113ab73137b73234b733afb832b934b7b2111d60611b60138201528351610a51816027840160208801610897565b016013810190610a6790602701607d60f81b9052565b6015019695505050505050565b634e487b7160e01b600052604160045260246000fd5b634e487b7160e01b600052601160045260246000fd5b80820281158282048414176105a4576105a4610a8a565b808201808211156105a4576105a4610a8a565b634e487b7160e01b600052603260045260246000fd5b600081610aef57610aef610a8a565b506000190190565b600060208284031215610b0957600080fd5b815180151581146106f857600080fd5b60008251610b2b818460208701610897565b919091019291505056fea2646970667358221220227fba64c276a7d7f297d9e4f04cc653bc726da61f8553f2267c8148615582e664736f6c634300081a0033","linkReferences":{}},"methodIdentifiers":{"stake(uint256,bytes32,uint16,uint16)":"c6235e00","state_id()":"7cd46a6d","state_nomicContract()":"11c14ac1","state_tokenContract()":"dccfb508","unstake(uint256)":"2e17de78"},"id":0}