{"abi":[{"type":"constructor","inputs":[{"name":"_gravityId","type":"bytes32","internalType":"bytes32"},{"name":"_owner","type":"address","internalType":"address"},{"name":"_validators","type":"address[]","internalType":"address[]"},{"name":"_powers","type":"uint256[]","internalType":"uint256[]"}],"stateMutability":"nonpayable"},{"type":"function","name":"deployERC20","inputs":[{"name":"_cosmosDenom","type":"string","internalType":"string"},{"name":"_name","type":"string","internalType":"string"},{"name":"_symbol","type":"string","internalType":"string"},{"name":"_decimals","type":"uint8","internalType":"uint8"}],"outputs":[],"stateMutability":"nonpayable"},{"type":"function","name":"lastBatchNonce","inputs":[{"name":"_erc20Address","type":"address","internalType":"address"}],"outputs":[{"name":"","type":"uint256","internalType":"uint256"}],"stateMutability":"view"},{"type":"function","name":"lastLogicCallNonce","inputs":[{"name":"_invalidation_id","type":"bytes32","internalType":"bytes32"}],"outputs":[{"name":"","type":"uint256","internalType":"uint256"}],"stateMutability":"view"},{"type":"function","name":"remoteCall","inputs":[{"name":"_args","type":"tuple","internalType":"struct LogicCallArgs","components":[{"name":"transferAmounts","type":"uint256[]","internalType":"uint256[]"},{"name":"transferTokenContracts","type":"address[]","internalType":"address[]"},{"name":"feeAmounts","type":"uint256[]","internalType":"uint256[]"},{"name":"feeTokenContracts","type":"address[]","internalType":"address[]"},{"name":"logicContractAddress","type":"address","internalType":"address"},{"name":"payload","type":"bytes","internalType":"bytes"},{"name":"maxGas","type":"uint256","internalType":"uint256"},{"name":"timeOut","type":"uint256","internalType":"uint256"},{"name":"invalidationId","type":"bytes32","internalType":"bytes32"},{"name":"invalidationNonce","type":"uint256","internalType":"uint256"},{"name":"fallbackAddress","type":"address","internalType":"address"}]}],"outputs":[],"stateMutability":"nonpayable"},{"type":"function","name":"sendToNomic","inputs":[{"name":"_tokenContract","type":"address","internalType":"address"},{"name":"_destination","type":"string","internalType":"string"},{"name":"_amount","type":"uint256","internalType":"uint256"}],"outputs":[],"stateMutability":"nonpayable"},{"type":"function","name":"setEmergencyDisbursalBalance","inputs":[{"name":"tokenContract","type":"address","internalType":"address"},{"name":"script","type":"bytes","internalType":"bytes"},{"name":"balance","type":"uint256","internalType":"uint256"}],"outputs":[],"stateMutability":"nonpayable"},{"type":"function","name":"state_gravityId","inputs":[],"outputs":[{"name":"","type":"bytes32","internalType":"bytes32"}],"stateMutability":"view"},{"type":"function","name":"state_invalidationMapping","inputs":[{"name":"","type":"bytes32","internalType":"bytes32"}],"outputs":[{"name":"","type":"uint256","internalType":"uint256"}],"stateMutability":"view"},{"type":"function","name":"state_lastBatchNonces","inputs":[{"name":"","type":"address","internalType":"address"}],"outputs":[{"name":"","type":"uint256","internalType":"uint256"}],"stateMutability":"view"},{"type":"function","name":"state_lastEventNonce","inputs":[],"outputs":[{"name":"","type":"uint256","internalType":"uint256"}],"stateMutability":"view"},{"type":"function","name":"state_lastReturnNonce","inputs":[],"outputs":[{"name":"","type":"uint256","internalType":"uint256"}],"stateMutability":"view"},{"type":"function","name":"state_lastValsetCheckpoint","inputs":[],"outputs":[{"name":"","type":"bytes32","internalType":"bytes32"}],"stateMutability":"view"},{"type":"function","name":"state_lastValsetNonce","inputs":[],"outputs":[{"name":"","type":"uint256","internalType":"uint256"}],"stateMutability":"view"},{"type":"function","name":"state_owner","inputs":[],"outputs":[{"name":"","type":"address","internalType":"address"}],"stateMutability":"view"},{"type":"function","name":"state_returnAmounts","inputs":[{"name":"","type":"uint256","internalType":"uint256"}],"outputs":[{"name":"","type":"uint256","internalType":"uint256"}],"stateMutability":"view"},{"type":"function","name":"state_returnDests","inputs":[{"name":"","type":"uint256","internalType":"uint256"}],"outputs":[{"name":"","type":"string","internalType":"string"}],"stateMutability":"view"},{"type":"function","name":"state_returnSenders","inputs":[{"name":"","type":"uint256","internalType":"uint256"}],"outputs":[{"name":"","type":"address","internalType":"address"}],"stateMutability":"view"},{"type":"function","name":"submitBatch","inputs":[{"name":"_currentValset","type":"tuple","internalType":"struct ValsetArgs","components":[{"name":"validators","type":"address[]","internalType":"address[]"},{"name":"powers","type":"uint256[]","internalType":"uint256[]"},{"name":"valsetNonce","type":"uint256","internalType":"uint256"},{"name":"rewardAmount","type":"uint256","internalType":"uint256"},{"name":"rewardToken","type":"address","internalType":"address"}]},{"name":"_sigs","type":"tuple[]","internalType":"struct Signature[]","components":[{"name":"v","type":"uint8","internalType":"uint8"},{"name":"r","type":"bytes32","internalType":"bytes32"},{"name":"s","type":"bytes32","internalType":"bytes32"}]},{"name":"_amounts","type":"uint256[]","internalType":"uint256[]"},{"name":"_destinations","type":"address[]","internalType":"address[]"},{"name":"_fees","type":"uint256[]","internalType":"uint256[]"},{"name":"_batchNonce","type":"uint256","internalType":"uint256"},{"name":"_tokenContract","type":"address","internalType":"address"},{"name":"_batchTimeout","type":"uint256","internalType":"uint256"}],"outputs":[],"stateMutability":"nonpayable"},{"type":"function","name":"submitLogicCall","inputs":[{"name":"_currentValset","type":"tuple","internalType":"struct ValsetArgs","components":[{"name":"validators","type":"address[]","internalType":"address[]"},{"name":"powers","type":"uint256[]","internalType":"uint256[]"},{"name":"valsetNonce","type":"uint256","internalType":"uint256"},{"name":"rewardAmount","type":"uint256","internalType":"uint256"},{"name":"rewardToken","type":"address","internalType":"address"}]},{"name":"_sigs","type":"tuple[]","internalType":"struct Signature[]","components":[{"name":"v","type":"uint8","internalType":"uint8"},{"name":"r","type":"bytes32","internalType":"bytes32"},{"name":"s","type":"bytes32","internalType":"bytes32"}]},{"name":"_args","type":"tuple","internalType":"struct LogicCallArgs","components":[{"name":"transferAmounts","type":"uint256[]","internalType":"uint256[]"},{"name":"transferTokenContracts","type":"address[]","internalType":"address[]"},{"name":"feeAmounts","type":"uint256[]","internalType":"uint256[]"},{"name":"feeTokenContracts","type":"address[]","internalType":"address[]"},{"name":"logicContractAddress","type":"address","internalType":"address"},{"name":"payload","type":"bytes","internalType":"bytes"},{"name":"maxGas","type":"uint256","internalType":"uint256"},{"name":"timeOut","type":"uint256","internalType":"uint256"},{"name":"invalidationId","type":"bytes32","internalType":"bytes32"},{"name":"invalidationNonce","type":"uint256","internalType":"uint256"},{"name":"fallbackAddress","type":"address","internalType":"address"}]}],"outputs":[],"stateMutability":"nonpayable"},{"type":"function","name":"testCheckValidatorSignatures","inputs":[{"name":"_currentValset","type":"tuple","internalType":"struct ValsetArgs","components":[{"name":"validators","type":"address[]","internalType":"address[]"},{"name":"powers","type":"uint256[]","internalType":"uint256[]"},{"name":"valsetNonce","type":"uint256","internalType":"uint256"},{"name":"rewardAmount","type":"uint256","internalType":"uint256"},{"name":"rewardToken","type":"address","internalType":"address"}]},{"name":"_sigs","type":"tuple[]","internalType":"struct Signature[]","components":[{"name":"v","type":"uint8","internalType":"uint8"},{"name":"r","type":"bytes32","internalType":"bytes32"},{"name":"s","type":"bytes32","internalType":"bytes32"}]},{"name":"_theHash","type":"bytes32","internalType":"bytes32"},{"name":"_powerThreshold","type":"uint256","internalType":"uint256"}],"outputs":[],"stateMutability":"pure"},{"type":"function","name":"testMakeCheckpoint","inputs":[{"name":"_valsetArgs","type":"tuple","internalType":"struct ValsetArgs","components":[{"name":"validators","type":"address[]","internalType":"address[]"},{"name":"powers","type":"uint256[]","internalType":"uint256[]"},{"name":"valsetNonce","type":"uint256","internalType":"uint256"},{"name":"rewardAmount","type":"uint256","internalType":"uint256"},{"name":"rewardToken","type":"address","internalType":"address"}]},{"name":"_gravityId","type":"bytes32","internalType":"bytes32"}],"outputs":[],"stateMutability":"pure"},{"type":"function","name":"updateValset","inputs":[{"name":"_newValset","type":"tuple","internalType":"struct ValsetArgs","components":[{"name":"validators","type":"address[]","internalType":"address[]"},{"name":"powers","type":"uint256[]","internalType":"uint256[]"},{"name":"valsetNonce","type":"uint256","internalType":"uint256"},{"name":"rewardAmount","type":"uint256","internalType":"uint256"},{"name":"rewardToken","type":"address","internalType":"address"}]},{"name":"_currentValset","type":"tuple","internalType":"struct ValsetArgs","components":[{"name":"validators","type":"address[]","internalType":"address[]"},{"name":"powers","type":"uint256[]","internalType":"uint256[]"},{"name":"valsetNonce","type":"uint256","internalType":"uint256"},{"name":"rewardAmount","type":"uint256","internalType":"uint256"},{"name":"rewardToken","type":"address","internalType":"address"}]},{"name":"_sigs","type":"tuple[]","internalType":"struct Signature[]","components":[{"name":"v","type":"uint8","internalType":"uint8"},{"name":"r","type":"bytes32","internalType":"bytes32"},{"name":"s","type":"bytes32","internalType":"bytes32"}]}],"outputs":[],"stateMutability":"nonpayable"},{"type":"event","name":"ERC20DeployedEvent","inputs":[{"name":"_cosmosDenom","type":"string","indexed":false,"internalType":"string"},{"name":"_tokenContract","type":"address","indexed":true,"internalType":"address"},{"name":"_name","type":"string","indexed":false,"internalType":"string"},{"name":"_symbol","type":"string","indexed":false,"internalType":"string"},{"name":"_decimals","type":"uint8","indexed":false,"internalType":"uint8"},{"name":"_eventNonce","type":"uint256","indexed":false,"internalType":"uint256"}],"anonymous":false},{"type":"event","name":"LogicCallEvent","inputs":[{"name":"_invalidationId","type":"bytes32","indexed":false,"internalType":"bytes32"},{"name":"_invalidationNonce","type":"uint256","indexed":false,"internalType":"uint256"},{"name":"_returnData","type":"bytes","indexed":false,"internalType":"bytes"},{"name":"_eventNonce","type":"uint256","indexed":false,"internalType":"uint256"}],"anonymous":false},{"type":"event","name":"SendToNomicEvent","inputs":[{"name":"_tokenContract","type":"address","indexed":true,"internalType":"address"},{"name":"_sender","type":"address","indexed":true,"internalType":"address"},{"name":"_destination","type":"string","indexed":false,"internalType":"string"},{"name":"_amount","type":"uint256","indexed":false,"internalType":"uint256"},{"name":"_eventNonce","type":"uint256","indexed":false,"internalType":"uint256"}],"anonymous":false},{"type":"event","name":"TransactionBatchExecutedEvent","inputs":[{"name":"_batchNonce","type":"uint256","indexed":true,"internalType":"uint256"},{"name":"_token","type":"address","indexed":true,"internalType":"address"},{"name":"_eventNonce","type":"uint256","indexed":false,"internalType":"uint256"}],"anonymous":false},{"type":"event","name":"ValsetUpdatedEvent","inputs":[{"name":"_newValsetNonce","type":"uint256","indexed":true,"internalType":"uint256"},{"name":"_eventNonce","type":"uint256","indexed":false,"internalType":"uint256"},{"name":"_rewardAmount","type":"uint256","indexed":false,"internalType":"uint256"},{"name":"_rewardToken","type":"address","indexed":false,"internalType":"address"},{"name":"_validators","type":"address[]","indexed":false,"internalType":"address[]"},{"name":"_powers","type":"uint256[]","indexed":false,"internalType":"uint256[]"}],"anonymous":false},{"type":"error","name":"AddressEmptyCode","inputs":[{"name":"target","type":"address","internalType":"address"}]},{"type":"error","name":"AddressInsufficientBalance","inputs":[{"name":"account","type":"address","internalType":"address"}]},{"type":"error","name":"BatchTimedOut","inputs":[]},{"type":"error","name":"ECDSAInvalidSignature","inputs":[]},{"type":"error","name":"ECDSAInvalidSignatureLength","inputs":[{"name":"length","type":"uint256","internalType":"uint256"}]},{"type":"error","name":"ECDSAInvalidSignatureS","inputs":[{"name":"s","type":"bytes32","internalType":"bytes32"}]},{"type":"error","name":"FailedInnerCall","inputs":[]},{"type":"error","name":"FailedLogicCall","inputs":[]},{"type":"error","name":"IncorrectCheckpoint","inputs":[]},{"type":"error","name":"InsufficientPower","inputs":[{"name":"cumulativePower","type":"uint256","internalType":"uint256"},{"name":"powerThreshold","type":"uint256","internalType":"uint256"}]},{"type":"error","name":"InvalidBatchNonce","inputs":[{"name":"newNonce","type":"uint256","internalType":"uint256"},{"name":"currentNonce","type":"uint256","internalType":"uint256"}]},{"type":"error","name":"InvalidLogicCallAddress","inputs":[]},{"type":"error","name":"InvalidLogicCallFees","inputs":[]},{"type":"error","name":"InvalidLogicCallNonce","inputs":[{"name":"newNonce","type":"uint256","internalType":"uint256"},{"name":"currentNonce","type":"uint256","internalType":"uint256"}]},{"type":"error","name":"InvalidLogicCallTransfers","inputs":[]},{"type":"error","name":"InvalidSendToNomic","inputs":[]},{"type":"error","name":"InvalidSignature","inputs":[]},{"type":"error","name":"InvalidValsetNonce","inputs":[{"name":"newNonce","type":"uint256","internalType":"uint256"},{"name":"currentNonce","type":"uint256","internalType":"uint256"}]},{"type":"error","name":"LogicCallTimedOut","inputs":[]},{"type":"error","name":"MalformedBatch","inputs":[]},{"type":"error","name":"MalformedCurrentValidatorSet","inputs":[]},{"type":"error","name":"MalformedNewValidatorSet","inputs":[]},{"type":"error","name":"ReentrancyGuardReentrantCall","inputs":[]},{"type":"error","name":"SafeERC20FailedOperation","inputs":[{"name":"token","type":"address","internalType":"address"}]}],"bytecode":{"object":"0x60c060405260006004556001600555600060065534801561001f57600080fd5b5060405161402b38038061402b83398101604081905261003e91610329565b60016000558051825114158061005357508151155b156100715760405163c6617b7b60e01b815260040160405180910390fd5b6000805b82518110156100b8578281815181106100905761009061040d565b6020026020010151826100a39190610423565b915063aaaaaaaa82116100b857600101610075565b5063aaaaaaaa81116100ed5760405162bfb6ab60e01b81526004810182905263aaaaaaaa602482015260440160405180910390fd5b6101286040518060a001604052806060815260200160608152602001600081526020016000815260200160006001600160a01b031681525090565b506040805160a08101825284815260208101849052600091810182905260608101829052608081018290529061015e82886101cb565b60808890526001600160a01b03871660a052600181905560045460055460405192935090917f76d08978c024a4bf8cbb30c67fd78fcaa1827cbc533e4e175f36d07e64ccf96a916101b79160009081908b908b906104bb565b60405180910390a250505050505050610562565b6000806918da1958dadc1bda5b9d60b21b60001b90506000838286604001518760000151886020015189606001518a608001516040516020016102149796959493929190610506565b60408051601f198184030181529190528051602090910120925050505b92915050565b80516001600160a01b038116811461024e57600080fd5b919050565b634e487b7160e01b600052604160045260246000fd5b604051601f8201601f191681016001600160401b038111828210171561029157610291610253565b604052919050565b60006001600160401b038211156102b2576102b2610253565b5060051b60200190565b600082601f8301126102cd57600080fd5b81516102e06102db82610299565b610269565b8082825260208201915060208360051b86010192508583111561030257600080fd5b602085015b8381101561031f578051835260209283019201610307565b5095945050505050565b6000806000806080858703121561033f57600080fd5b8451935061034f60208601610237565b60408601519093506001600160401b0381111561036b57600080fd5b8501601f8101871361037c57600080fd5b805161038a6102db82610299565b8082825260208201915060208360051b8501019250898311156103ac57600080fd5b6020840193505b828410156103d5576103c484610237565b8252602093840193909101906103b3565b6060890151909550925050506001600160401b038111156103f557600080fd5b610401878288016102bc565b91505092959194509250565b634e487b7160e01b600052603260045260246000fd5b8082018082111561023157634e487b7160e01b600052601160045260246000fd5b600081518084526020840193506020830160005b8281101561047f5781516001600160a01b0316865260209586019590910190600101610458565b5093949350505050565b600081518084526020840193506020830160005b8281101561047f57815186526020958601959091019060010161049d565b85815284602082015260018060a01b038416604082015260a0606082015260006104e860a0830185610444565b82810360808401526104fa8185610489565b98975050505050505050565b87815286602082015285604082015260e06060820152600061052b60e0830187610444565b828103608084015261053d8187610489565b60a084019590955250506001600160a01b039190911660c09091015295945050505050565b60805160a051613a886105a3600039600081816103310152610cd201526000818161027601528181610841015281816108b80152610ff70152613a886000f3fe608060405234801561001057600080fd5b50600436106101415760003560e01c8063aca6b1c1116100b8578063daa9161b1161007c578063daa9161b146102f9578063df97174b1461030c578063eb00b2ef1461032c578063f2b5330714610353578063f79556371461035c578063fd79e9a51461036f57600080fd5b8063aca6b1c114610255578063b56561fe14610268578063bdda81d414610271578063c9d194d514610298578063d2a8dbc7146102b857600080fd5b806359ce5dde1161010a57806359ce5dde146101d357806360ad5b38146101e657806373b20547146102065780637dfb6f861461020f578063856f9ad21461022f5780638690ff981461024257600080fd5b806290115314610146578063010315251461015b578063011b21741461016e578063274975fa146101aa578063374738d9146101b3575b600080fd5b610159610154366004611c4d565b610382565b005b610159610169366004611ccb565b610396565b61019761017c366004611d2b565b6001600160a01b031660009081526002602052604090205490565b6040519081526020015b60405180910390f35b61019760065481565b6101c66101c1366004611d46565b6103ad565b6040516101a19190611daf565b6101596101e1366004611e03565b610447565b6101976101f4366004611d46565b60086020526000908152604090205481565b61019760055481565b61019761021d366004611d46565b60036020526000908152604090205481565b61015961023d366004612193565b610625565b610159610250366004612213565b610795565b610159610263366004612340565b610a5e565b61019760045481565b6101977f000000000000000000000000000000000000000000000000000000000000000081565b6101976102a6366004611d46565b60009081526003602052604090205490565b6102e16102c6366004611d46565b6009602052600090815260409020546001600160a01b031681565b6040516001600160a01b0390911681526020016101a1565b610159610307366004611e03565b610cc7565b61019761031a366004611d2b565b60026020526000908152604090205481565b6102e17f000000000000000000000000000000000000000000000000000000000000000081565b61019760015481565b61015961036a3660046123e5565b610e45565b61015961037d366004612499565b610ee1565b61038f8585858585611255565b5050505050565b6103a86103a283612530565b8261137c565b505050565b600760205260009081526040902080546103c6906125c5565b80601f01602080910402602001604051908101604052809291908181526020018280546103f2906125c5565b801561043f5780601f106104145761010080835404028352916020019161043f565b820191906000526020600020905b81548152906001019060200180831161042257829003601f168201915b505050505081565b61044f6113e8565b6040516370a0823160e01b81523060048201526000906001600160a01b038616906370a0823190602401602060405180830381865afa158015610496573d6000803e3d6000fd5b505050506040513d601f19601f820116820180604052508101906104ba91906125f9565b90506104d16001600160a01b038616333085611412565b6040516370a0823160e01b81523060048201526000906001600160a01b038716906370a0823190602401602060405180830381865afa158015610518573d6000803e3d6000fd5b505050506040513d601f19601f8201168201806040525081019061053c91906125f9565b9050600061054a8383612628565b905082821161056c5760405163728614d360e01b815260040160405180910390fd5b600654600081815260086020908152604080832085905560079091529020610595878983612682565b50600081815260096020526040902080546001600160a01b031916331790556006546105c2906001612741565b600681905560405133916001600160a01b038b16917f58a3e95c14cd668e435fb5472910ea9157be6096f6a516c17f14aca4c55d748591610609918c918c9189919061277d565b60405180910390a35050505061061f6001600055565b50505050565b3330146106685760405162461bcd60e51b815260206004820152600c60248201526b155b985d5d1a1bdc9a5e995960a21b60448201526064015b60405180910390fd5b60005b8151518110156106d9576106d1826080015183600001518381518110610693576106936127a4565b6020026020010151846020015184815181106106b1576106b16127a4565b60200260200101516001600160a01b03166114799092919063ffffffff16565b60010161066b565b5060808101516001600160a01b03163b15610707576040516324b0609d60e21b815260040160405180910390fd5b60008082608001516001600160a01b03168360c001518460a0015160405161072f91906127ba565b60006040518083038160008787f1925050503d806000811461076d576040519150601f19603f3d011682016040523d82523d6000602084013e610772565b606091505b5091509150816103a85760405163a842348b60e01b815260040160405180910390fd5b61079d6113e8565b6001600160a01b0382166000908152600260205260409020546107c1906001612741565b8314610805576001600160a01b0382166000908152600260205260409081902054905163f7f920ad60e01b815261065f918591600401918252602082015260400190565b804310610825576040516308b9266360e11b815260040160405180910390fd5b6108308c8c8c6114aa565b60015461086561083f8e612530565b7f000000000000000000000000000000000000000000000000000000000000000061137c565b146108835760405163723a340360e01b815260040160405180910390fd5b87861415806108925750878414155b156108b05760405163c1f97e3560e01b815260040160405180910390fd5b61092e8c8c8c7f00000000000000000000000000000000000000000000000000000000000000006f0e8e4c2dce6c2c6e8d2dedc84c2e8c6d60831b8e8e8e8e8e8e8e8e8e60405160200161090e9b9a99989796959493929190612850565b6040516020818303038152906040528051906020012063aaaaaaaa611255565b6001600160a01b0382166000908152600260205260408120849055805b898110156109dd576109af898983818110610968576109686127a4565b905060200201602081019061097d9190611d2b565b8c8c8481811061098f5761098f6127a4565b90506020020135866001600160a01b03166114799092919063ffffffff16565b8686828181106109c1576109c16127a4565b90506020020135826109d39190612741565b915060010161094b565b506109f26001600160a01b0384163383611479565b50600554610a01906001612741565b60058190556040519081526001600160a01b0383169084907f02c7e81975f8edb86e2a0c038b7b86a49c744236abf0f6177ff5afc6986ab7089060200160405180910390a3610a506001600055565b505050505050505050505050565b610a6d60408401356001612741565b846040013514610a9f576040805163e0e8edf360e01b815281860135600482015290840135602482015260440161065f565b610aac60208501856128c7565b9050610ab885806128c7565b9050141580610ad05750610acc84806128c7565b1590505b15610aee5760405163c01ba0ab60e01b815260040160405180910390fd5b610af98383836114aa565b6000805b610b0a60208701876128c7565b9050811015610b5757610b2060208701876128c7565b82818110610b3057610b306127a4565b9050602002013582610b429190612741565b915063aaaaaaaa8211610b5757600101610afd565b5063aaaaaaaa8111610b885760405162bfb6ab60e01b81526004810182905263aaaaaaaa602482015260440161065f565b600154610b9761083f86612530565b14610bb55760405163723a340360e01b815260040160405180910390fd5b6000610bc361083f87612530565b9050610bd68585858463aaaaaaaa611255565b600181905560408601356004556000610bf560a0880160808901611d2b565b6001600160a01b031614158015610c0f5750606086013515155b15610c3d57610c3d336060880135610c2d60a08a0160808b01611d2b565b6001600160a01b03169190611479565b600554610c4b906001612741565b60058190556040870135907f76d08978c024a4bf8cbb30c67fd78fcaa1827cbc533e4e175f36d07e64ccf96a906060890135610c8d60a08b0160808c01611d2b565b610c978b806128c7565b610ca460208e018e6128c7565b604051610cb79796959493929190612910565b60405180910390a2505050505050565b336001600160a01b037f00000000000000000000000000000000000000000000000000000000000000001614610d2e5760405162461bcd60e51b815260206004820152600c60248201526b155b985d5d1a1bdc9a5e995960a21b604482015260640161065f565b811580610d3b5750604082115b15610d795760405162461bcd60e51b815260206004820152600e60248201526d125b9d985b1a59081cd8dc9a5c1d60921b604482015260640161065f565b6000610dba84848080601f0160208091040260200160405190810160405280939291908181526020018383808284376000920191909152506114fb92505050565b610dc383611693565b604051602001610dd492919061295f565b60408051601f1981840301815290829052632ce72eef60e11b8252915030906359ce5dde90610e0c90889085906000906004016129f7565b600060405180830381600087803b158015610e2657600080fd5b505af1158015610e3a573d6000803e3d6000fd5b505050505050505050565b6000308686868686604051610e5990611bdd565b610e6896959493929190612a2b565b604051809103906000f080158015610e84573d6000803e3d6000fd5b509050806001600160a01b03167f82fe3a4fa49c6382d0c085746698ddbbafe6c2bf61285b19410644b5b26287c7898989898989896000604051610ecf989796959493929190612a7a565b60405180910390a25050505050505050565b610ee96113e8565b8060e001514310610f0d5760405163bcf37c2560e01b815260040160405180910390fd5b61012081015161010082015160009081526003602052604090205410610f6a5761012081015161010082015160009081526003602052604090819020549051629427e960e11b81526004810192909252602482015260440161065f565b610f758484846114aa565b600154610f8461083f86612530565b14610fa25760405163723a340360e01b815260040160405180910390fd5b60208101515181515114610fc957604051634298a95160e11b815260040160405180910390fd5b80606001515181604001515114610ff357604051634829247960e01b815260040160405180910390fd5b60007f0000000000000000000000000000000000000000000000000000000000000000681b1bd9da58d0d85b1b60ba1b836000015184602001518560400151866060015187608001518860a001518960e001518a61010001518b610120015160405160200161106c9b9a99989796959493929190612b3e565b6040516020818303038152906040528051906020012090506110958585858463aaaaaaaa611255565b50610120810151610100820151600090815260036020526040808220929092559051819030906110c9908590602401612be3565b60408051601f198184030181529181526020820180516001600160e01b03166342b7cd6960e11b179052516110fe91906127ba565b6000604051808303816000865af19150503d806000811461113b576040519150601f19603f3d011682016040523d82523d6000602084013e611140565b606091505b50915091508161119e5760005b83515181101561119c5761119484610140015185600001518381518110611176576111766127a4565b6020026020010151866020015184815181106106b1576106b16127a4565b60010161114d565b505b60005b8360400151518110156111ee576111e633856040015183815181106111c8576111c86127a4565b6020026020010151866060015184815181106106b1576106b16127a4565b6001016111a1565b506005546111fd906001612741565b60058190556101008401516101208501516040517f7c2bb24f8e1b3725cb613d7f11ef97d9745cc97a0e40f730621c052d684077a193611241939291869190612cdf565b60405180910390a1505061061f6001600055565b6000805b61126387806128c7565b905081101561134a5785858281811061127e5761127e6127a4565b6112949260206060909202019081019150612d0f565b60ff1615611342576112ec6112a988806128c7565b838181106112b9576112b96127a4565b90506020020160208101906112ce9190611d2b565b858888858181106112e1576112e16127a4565b905060600201611726565b61130957604051638baa579f60e01b815260040160405180910390fd5b61131660208801886128c7565b82818110611326576113266127a4565b90506020020135826113389190612741565b915082821161134a575b600101611259565b508181116113745760405162bfb6ab60e01b8152600481018290526024810183905260440161065f565b505050505050565b6000806918da1958dadc1bda5b9d60b21b60001b90506000838286604001518760000151886020015189606001518a608001516040516020016113c59796959493929190612d2a565b60408051601f198184030181529190528051602090910120925050505b92915050565b60026000540361140b57604051633ee5aeb560e01b815260040160405180910390fd5b6002600055565b6040516001600160a01b03848116602483015283811660448301526064820183905261061f9186918216906323b872dd906084015b604051602081830303815290604052915060e01b6020820180516001600160e01b0383818316178352505050506117b8565b6040516001600160a01b038381166024830152604482018390526103a891859182169063a9059cbb90606401611447565b6114b760208401846128c7565b90506114c384806128c7565b90501415806114dd5750806114d884806128c7565b905014155b156103a85760405163c6617b7b60e01b815260040160405180910390fd5b606060008251600261150d9190612d86565b6001600160401b0381111561152457611524611e5c565b6040519080825280601f01601f19166020018201604052801561154e576020820181803683370190505b5060408051808201909152601081526f181899199a1a9b1b9c1cb0b131b232b360811b602082015290915060005b845181101561168a5781825186838151811061159a5761159a6127a4565b01602001516115ac919060f81c612db3565b815181106115bc576115bc6127a4565b01602001516001600160f81b031916836115d7836002612d86565b815181106115e7576115e76127a4565b60200101906001600160f81b031916908160001a905350818251868381518110611613576116136127a4565b0160200151611625919060f81c612dc7565b81518110611635576116356127a4565b01602001516001600160f81b03191683611650836002612d86565b61165b906001612741565b8151811061166b5761166b6127a4565b60200101906001600160f81b031916908160001a90535060010161157c565b50909392505050565b606060006116a08361181b565b60010190506000816001600160401b038111156116bf576116bf611e5c565b6040519080825280601f01601f1916602001820160405280156116e9576020820181803683370190505b5090508181016020015b600019016f181899199a1a9b1b9c1cb0b131b232b360811b600a86061a8153600a85049450846116f3575b509392505050565b6040517f19457468657265756d205369676e6564204d6573736167653a0a3332000000006020820152603c81018390526000908190605c0160408051601f198184030181529190528051602091820120915061179990829061178a90860186612d0f565b856020013586604001356118f3565b6001600160a01b0316856001600160a01b0316149150505b9392505050565b60006117cd6001600160a01b03841683611921565b905080516000141580156117f25750808060200190518101906117f09190612ddb565b155b156103a857604051635274afe760e01b81526001600160a01b038416600482015260240161065f565b60008072184f03e93ff9f4daa797ed6e38ed64bf6a1f0160401b831061185a5772184f03e93ff9f4daa797ed6e38ed64bf6a1f0160401b830492506040015b6d04ee2d6d415b85acef81000000008310611886576d04ee2d6d415b85acef8100000000830492506020015b662386f26fc1000083106118a457662386f26fc10000830492506010015b6305f5e10083106118bc576305f5e100830492506008015b61271083106118d057612710830492506004015b606483106118e2576064830492506002015b600a83106113e25760010192915050565b6000806000806119058888888861192f565b92509250925061191582826119fe565b50909695505050505050565b60606117b183836000611abb565b600080807f7fffffffffffffffffffffffffffffff5d576e7357a4501ddfe92f46681b20a084111561196a57506000915060039050826119f4565b604080516000808252602082018084528a905260ff891692820192909252606081018790526080810186905260019060a0016020604051602081039080840390855afa1580156119be573d6000803e3d6000fd5b5050604051601f1901519150506001600160a01b0381166119ea575060009250600191508290506119f4565b9250600091508190505b9450945094915050565b6000826003811115611a1257611a12612dfd565b03611a1b575050565b6001826003811115611a2f57611a2f612dfd565b03611a4d5760405163f645eedf60e01b815260040160405180910390fd5b6002826003811115611a6157611a61612dfd565b03611a825760405163fce698f760e01b81526004810182905260240161065f565b6003826003811115611a9657611a96612dfd565b03611ab7576040516335e2f38360e21b81526004810182905260240161065f565b5050565b606081471015611ae05760405163cd78605960e01b815230600482015260240161065f565b600080856001600160a01b03168486604051611afc91906127ba565b60006040518083038185875af1925050503d8060008114611b39576040519150601f19603f3d011682016040523d82523d6000602084013e611b3e565b606091505b5091509150611b4e868383611b58565b9695505050505050565b606082611b6d57611b6882611bb4565b6117b1565b8151158015611b8457506001600160a01b0384163b155b15611bad57604051639996b31560e01b81526001600160a01b038516600482015260240161065f565b50806117b1565b805115611bc45780518082602001fd5b604051630a12f52160e11b815260040160405180910390fd5b610c3f80612e1483390190565b600060a08284031215611bfc57600080fd5b50919050565b60008083601f840112611c1457600080fd5b5081356001600160401b03811115611c2b57600080fd5b602083019150836020606083028501011115611c4657600080fd5b9250929050565b600080600080600060808688031215611c6557600080fd5b85356001600160401b03811115611c7b57600080fd5b611c8788828901611bea565b95505060208601356001600160401b03811115611ca357600080fd5b611caf88828901611c02565b9699909850959660408101359660609091013595509350505050565b60008060408385031215611cde57600080fd5b82356001600160401b03811115611cf457600080fd5b611d0085828601611bea565b95602094909401359450505050565b80356001600160a01b0381168114611d2657600080fd5b919050565b600060208284031215611d3d57600080fd5b6117b182611d0f565b600060208284031215611d5857600080fd5b5035919050565b60005b83811015611d7a578181015183820152602001611d62565b50506000910152565b60008151808452611d9b816020860160208601611d5f565b601f01601f19169290920160200192915050565b6020815260006117b16020830184611d83565b60008083601f840112611dd457600080fd5b5081356001600160401b03811115611deb57600080fd5b602083019150836020828501011115611c4657600080fd5b60008060008060608587031215611e1957600080fd5b611e2285611d0f565b935060208501356001600160401b03811115611e3d57600080fd5b611e4987828801611dc2565b9598909750949560400135949350505050565b634e487b7160e01b600052604160045260246000fd5b60405161016081016001600160401b0381118282101715611e9557611e95611e5c565b60405290565b60405160a081016001600160401b0381118282101715611e9557611e95611e5c565b604051601f8201601f191681016001600160401b0381118282101715611ee557611ee5611e5c565b604052919050565b60006001600160401b03821115611f0657611f06611e5c565b5060051b60200190565b600082601f830112611f2157600080fd5b8135611f34611f2f82611eed565b611ebd565b8082825260208201915060208360051b860101925085831115611f5657600080fd5b602085015b83811015611f73578035835260209283019201611f5b565b5095945050505050565b600082601f830112611f8e57600080fd5b8135611f9c611f2f82611eed565b8082825260208201915060208360051b860101925085831115611fbe57600080fd5b602085015b83811015611f7357611fd481611d0f565b835260209283019201611fc3565b600082601f830112611ff357600080fd5b81356001600160401b0381111561200c5761200c611e5c565b61201f601f8201601f1916602001611ebd565b81815284602083860101111561203457600080fd5b816020850160208301376000918101602001919091529392505050565b6000610160828403121561206457600080fd5b61206c611e72565b905081356001600160401b0381111561208457600080fd5b61209084828501611f10565b82525060208201356001600160401b038111156120ac57600080fd5b6120b884828501611f7d565b60208301525060408201356001600160401b038111156120d757600080fd5b6120e384828501611f10565b60408301525060608201356001600160401b0381111561210257600080fd5b61210e84828501611f7d565b60608301525061212060808301611d0f565b608082015260a08201356001600160401b0381111561213e57600080fd5b61214a84828501611fe2565b60a08301525060c0828101359082015260e08083013590820152610100808301359082015261012080830135908201526121876101408301611d0f565b61014082015292915050565b6000602082840312156121a557600080fd5b81356001600160401b038111156121bb57600080fd5b6121c784828501612051565b949350505050565b60008083601f8401126121e157600080fd5b5081356001600160401b038111156121f857600080fd5b6020830191508360208260051b8501011115611c4657600080fd5b6000806000806000806000806000806000806101008d8f03121561223657600080fd5b6001600160401b038d35111561224b57600080fd5b6122588e8e358f01611bea565b9b506001600160401b0360208e0135111561227257600080fd5b6122828e60208f01358f01611c02565b909b5099506001600160401b0360408e0135111561229f57600080fd5b6122af8e60408f01358f016121cf565b90995097506001600160401b0360608e013511156122cc57600080fd5b6122dc8e60608f01358f016121cf565b90975095506001600160401b0360808e013511156122f957600080fd5b6123098e60808f01358f016121cf565b909550935060a08d0135925061232160c08e01611d0f565b9150600060e08e01359050809150509295989b509295989b509295989b565b6000806000806060858703121561235657600080fd5b84356001600160401b0381111561236c57600080fd5b61237887828801611bea565b94505060208501356001600160401b0381111561239457600080fd5b6123a087828801611bea565b93505060408501356001600160401b038111156123bc57600080fd5b6123c887828801611c02565b95989497509550505050565b803560ff81168114611d2657600080fd5b60008060008060008060006080888a03121561240057600080fd5b87356001600160401b0381111561241657600080fd5b6124228a828b01611dc2565b90985096505060208801356001600160401b0381111561244157600080fd5b61244d8a828b01611dc2565b90965094505060408801356001600160401b0381111561246c57600080fd5b6124788a828b01611dc2565b909450925061248b9050606089016123d4565b905092959891949750929550565b600080600080606085870312156124af57600080fd5b84356001600160401b038111156124c557600080fd5b6124d187828801611bea565b94505060208501356001600160401b038111156124ed57600080fd5b6124f987828801611c02565b90945092505060408501356001600160401b0381111561251857600080fd5b61252487828801612051565b91505092959194509250565b600060a0823603121561254257600080fd5b61254a611e9b565b82356001600160401b0381111561256057600080fd5b61256c36828601611f7d565b82525060208301356001600160401b0381111561258857600080fd5b61259436828601611f10565b60208301525060408381013590820152606080840135908201526125ba60808401611d0f565b608082015292915050565b600181811c908216806125d957607f821691505b602082108103611bfc57634e487b7160e01b600052602260045260246000fd5b60006020828403121561260b57600080fd5b5051919050565b634e487b7160e01b600052601160045260246000fd5b818103818111156113e2576113e2612612565b601f8211156103a857806000526020600020601f840160051c810160208510156126625750805b601f840160051c820191505b8181101561038f576000815560010161266e565b6001600160401b0383111561269957612699611e5c565b6126ad836126a783546125c5565b8361263b565b6000601f8411600181146126e157600085156126c95750838201355b600019600387901b1c1916600186901b17835561038f565b600083815260209020601f19861690835b8281101561271257868501358255602094850194600190920191016126f2565b508682101561272f5760001960f88860031b161c19848701351681555b505060018560011b0183555050505050565b808201808211156113e2576113e2612612565b81835281816020850137506000828201602090810191909152601f909101601f19169091010190565b606081526000612791606083018688612754565b6020830194909452506040015292915050565b634e487b7160e01b600052603260045260246000fd5b600082516127cc818460208701611d5f565b9190910192915050565b81835260006001600160fb1b038311156127ef57600080fd5b8260051b80836020870137939093016020019392505050565b81835260208301925060008160005b84811015612846576001600160a01b0361283083611d0f565b1686526020958601959190910190600101612817565b5093949350505050565b8b81528a60208201526101006040820152600061287261010083018b8d6127d6565b8281036060840152612885818a8c612808565b9050828103608084015261289a81888a6127d6565b60a084019690965250506001600160a01b039290921660c083015260e09091015298975050505050505050565b6000808335601e198436030181126128de57600080fd5b8301803591506001600160401b038211156128f857600080fd5b6020019150600581901b3603821315611c4657600080fd5b87815286602082015260018060a01b038616604082015260a06060820152600061293e60a083018688612808565b82810360808401526129518185876127d6565b9a9950505050505050505050565b7f7b2274797065223a22736574456d657267656e637944697362757273616c42618152703630b731b291161139b1b934b83a111d1160791b6020820152600083516129b1816031850160208801611d5f565b6b1116113130b630b731b2911d60a11b60319184019182015283516129dd81603d840160208801611d5f565b607d60f81b603d9290910191820152603e01949350505050565b6001600160a01b0384168152606060208201819052600090612a1b90830185611d83565b9050826040830152949350505050565b6001600160a01b0387168152608060208201819052600090612a509083018789612754565b8281036040840152612a63818688612754565b91505060ff83166060830152979650505050505050565b60a081526000612a8e60a083018a8c612754565b8281036020840152612aa181898b612754565b90508281036040840152612ab6818789612754565b60ff9590951660608401525050608001529695505050505050565b600081518084526020840193506020830160005b82811015612846578151865260209586019590910190600101612ae5565b600081518084526020840193506020830160005b828110156128465781516001600160a01b0316865260209586019590910190600101612b17565b8b81528a602082015261016060408201526000612b5f61016083018c612ad1565b8281036060840152612b71818c612b03565b90508281036080840152612b85818b612ad1565b905082810360a0840152612b99818a612b03565b6001600160a01b03891660c085015283810360e08501529050612bbc8188611d83565b61010084019690965250506101208101929092526101409091015298975050505050505050565b60208152600082516101606020840152612c01610180840182612ad1565b90506020840151601f19848303016040850152612c1e8282612b03565b9150506040840151601f19848303016060850152612c3c8282612ad1565b9150506060840151601f19848303016080850152612c5a8282612b03565b9150506080840151612c7760a08501826001600160a01b03169052565b5060a0840151838203601f190160c0850152612c938282611d83565b91505060c084015160e084015260e084015161010084015261010084015161012084015261012084015161014084015261014084015161171e6101608501826001600160a01b03169052565b848152836020820152608060408201526000612cfe6080830185611d83565b905082606083015295945050505050565b600060208284031215612d2157600080fd5b6117b1826123d4565b87815286602082015285604082015260e060608201526000612d4f60e0830187612b03565b8281036080840152612d618187612ad1565b60a084019590955250506001600160a01b039190911660c09091015295945050505050565b80820281158282048414176113e2576113e2612612565b634e487b7160e01b600052601260045260246000fd5b600082612dc257612dc2612d9d565b500490565b600082612dd657612dd6612d9d565b500690565b600060208284031215612ded57600080fd5b815180151581146117b157600080fd5b634e487b7160e01b600052602160045260246000fdfe608060405234801561001057600080fd5b50604051610c3f380380610c3f83398101604081905261002f916102aa565b8282600361003d83826103d4565b50600461004a82826103d4565b5050600580546001600160a01b038716610100026001600160a81b031990911660ff8516171790555061007f84600019610088565b505050506104b9565b6001600160a01b0382166100b75760405163ec442f0560e01b8152600060048201526024015b60405180910390fd5b6100c3600083836100c7565b5050565b6001600160a01b0383166100f25780600260008282546100e79190610492565b909155506101649050565b6001600160a01b038316600090815260208190526040902054818110156101455760405163391434e360e21b81526001600160a01b038516600482015260248101829052604481018390526064016100ae565b6001600160a01b03841660009081526020819052604090209082900390555b6001600160a01b0382166101805760028054829003905561019f565b6001600160a01b03821660009081526020819052604090208054820190555b816001600160a01b0316836001600160a01b03167fddf252ad1be2c89b69c2b068fc378daa952ba7f163c4a11628f55a4df523b3ef836040516101e491815260200190565b60405180910390a3505050565b634e487b7160e01b600052604160045260246000fd5b600082601f83011261021857600080fd5b81516001600160401b03811115610231576102316101f1565b604051601f8201601f19908116603f011681016001600160401b038111828210171561025f5761025f6101f1565b60405281815283820160200185101561027757600080fd5b60005b828110156102965760208186018101518383018201520161027a565b506000918101602001919091529392505050565b600080600080608085870312156102c057600080fd5b84516001600160a01b03811681146102d757600080fd5b60208601519094506001600160401b038111156102f357600080fd5b6102ff87828801610207565b604087015190945090506001600160401b0381111561031d57600080fd5b61032987828801610207565b925050606085015160ff8116811461034057600080fd5b939692955090935050565b600181811c9082168061035f57607f821691505b60208210810361037f57634e487b7160e01b600052602260045260246000fd5b50919050565b601f8211156103cf57806000526020600020601f840160051c810160208510156103ac5750805b601f840160051c820191505b818110156103cc57600081556001016103b8565b50505b505050565b81516001600160401b038111156103ed576103ed6101f1565b610401816103fb845461034b565b84610385565b6020601f821160018114610435576000831561041d5750848201515b600019600385901b1c1916600184901b1784556103cc565b600084815260208120601f198516915b828110156104655787850151825560209485019460019092019101610445565b50848210156104835786840151600019600387901b60f8161c191681555b50505050600190811b01905550565b808201808211156104b357634e487b7160e01b600052601160045260246000fd5b92915050565b610777806104c86000396000f3fe608060405234801561001057600080fd5b50600436106100935760003560e01c8063313ce56711610066578063313ce5671461010257806370a082311461011757806395d89b4114610140578063a9059cbb14610148578063dd62ed3e1461015b57600080fd5b806306fdde0314610098578063095ea7b3146100b657806318160ddd146100d957806323b872dd146100ef575b600080fd5b6100a0610194565b6040516100ad91906105a5565b60405180910390f35b6100c96100c436600461060f565b610226565b60405190151581526020016100ad565b6100e1610240565b6040519081526020016100ad565b6100c96100fd366004610639565b610271565b60055460405160ff90911681526020016100ad565b6100e1610125366004610676565b6001600160a01b031660009081526020819052604090205490565b6100a0610295565b6100c961015636600461060f565b6102a4565b6100e1610169366004610698565b6001600160a01b03918216600090815260016020908152604080832093909416825291909152205490565b6060600380546101a3906106cb565b80601f01602080910402602001604051908101604052809291908181526020018280546101cf906106cb565b801561021c5780601f106101f15761010080835404028352916020019161021c565b820191906000526020600020905b8154815290600101906020018083116101ff57829003601f168201915b5050505050905090565b6000336102348185856102b2565b60019150505b92915050565b60055461010090046001600160a01b031660009081526020819052604081205461026c9060001961071b565b905090565b60003361027f8582856102c4565b61028a858585610347565b506001949350505050565b6060600480546101a3906106cb565b600033610234818585610347565b6102bf83838360016103a6565b505050565b6001600160a01b038381166000908152600160209081526040808320938616835292905220546000198114610341578181101561033257604051637dc7a0d960e11b81526001600160a01b038416600482015260248101829052604481018390526064015b60405180910390fd5b610341848484840360006103a6565b50505050565b6001600160a01b03831661037157604051634b637e8f60e11b815260006004820152602401610329565b6001600160a01b03821661039b5760405163ec442f0560e01b815260006004820152602401610329565b6102bf83838361047b565b6001600160a01b0384166103d05760405163e602df0560e01b815260006004820152602401610329565b6001600160a01b0383166103fa57604051634a1406b160e11b815260006004820152602401610329565b6001600160a01b038085166000908152600160209081526040808320938716835292905220829055801561034157826001600160a01b0316846001600160a01b03167f8c5be1e5ebec7d5bd14f71427d1e84f3dd0314c0f7b2291e5b200ac8c7c3b9258460405161046d91815260200190565b60405180910390a350505050565b6001600160a01b0383166104a657806002600082825461049b919061072e565b909155506105189050565b6001600160a01b038316600090815260208190526040902054818110156104f95760405163391434e360e21b81526001600160a01b03851660048201526024810182905260448101839052606401610329565b6001600160a01b03841660009081526020819052604090209082900390555b6001600160a01b03821661053457600280548290039055610553565b6001600160a01b03821660009081526020819052604090208054820190555b816001600160a01b0316836001600160a01b03167fddf252ad1be2c89b69c2b068fc378daa952ba7f163c4a11628f55a4df523b3ef8360405161059891815260200190565b60405180910390a3505050565b602081526000825180602084015260005b818110156105d357602081860181015160408684010152016105b6565b506000604082850101526040601f19601f83011684010191505092915050565b80356001600160a01b038116811461060a57600080fd5b919050565b6000806040838503121561062257600080fd5b61062b836105f3565b946020939093013593505050565b60008060006060848603121561064e57600080fd5b610657846105f3565b9250610665602085016105f3565b929592945050506040919091013590565b60006020828403121561068857600080fd5b610691826105f3565b9392505050565b600080604083850312156106ab57600080fd5b6106b4836105f3565b91506106c2602084016105f3565b90509250929050565b600181811c908216806106df57607f821691505b6020821081036106ff57634e487b7160e01b600052602260045260246000fd5b50919050565b634e487b7160e01b600052601160045260246000fd5b8181038181111561023a5761023a610705565b8082018082111561023a5761023a61070556fea264697066735822122024c79efa80d76fa77ae6b1ca389ed0fdae409820955e53b98e9246aa7ec3ca6164736f6c634300081a0033a26469706673582212209651ba4a2c2e0ea274f9b2bd75b8018512eed518300c279373e7adb48f6a221964736f6c634300081a0033","linkReferences":{}},"methodIdentifiers":{"deployERC20(string,string,string,uint8)":"f7955637","lastBatchNonce(address)":"011b2174","lastLogicCallNonce(bytes32)":"c9d194d5","remoteCall((uint256[],address[],uint256[],address[],address,bytes,uint256,uint256,bytes32,uint256,address))":"856f9ad2","sendToNomic(address,string,uint256)":"59ce5dde","setEmergencyDisbursalBalance(address,bytes,uint256)":"daa9161b","state_gravityId()":"bdda81d4","state_invalidationMapping(bytes32)":"7dfb6f86","state_lastBatchNonces(address)":"df97174b","state_lastEventNonce()":"73b20547","state_lastReturnNonce()":"274975fa","state_lastValsetCheckpoint()":"f2b53307","state_lastValsetNonce()":"b56561fe","state_owner()":"eb00b2ef","state_returnAmounts(uint256)":"60ad5b38","state_returnDests(uint256)":"374738d9","state_returnSenders(uint256)":"d2a8dbc7","submitBatch((address[],uint256[],uint256,uint256,address),(uint8,bytes32,bytes32)[],uint256[],address[],uint256[],uint256,address,uint256)":"8690ff98","submitLogicCall((address[],uint256[],uint256,uint256,address),(uint8,bytes32,bytes32)[],(uint256[],address[],uint256[],address[],address,bytes,uint256,uint256,bytes32,uint256,address))":"fd79e9a5","testCheckValidatorSignatures((address[],uint256[],uint256,uint256,address),(uint8,bytes32,bytes32)[],bytes32,uint256)":"00901153","testMakeCheckpoint((address[],uint256[],uint256,uint256,address),bytes32)":"01031525","updateValset((address[],uint256[],uint256,uint256,address),(address[],uint256[],uint256,uint256,address),(uint8,bytes32,bytes32)[])":"aca6b1c1"},"id":2}