{"abi":[{"type":"constructor","inputs":[{"name":"_gravityId","type":"bytes32","internalType":"bytes32"},{"name":"_validators","type":"address[]","internalType":"address[]"},{"name":"_powers","type":"uint256[]","internalType":"uint256[]"}],"stateMutability":"nonpayable"},{"type":"function","name":"deployERC20","inputs":[{"name":"_cosmosDenom","type":"string","internalType":"string"},{"name":"_name","type":"string","internalType":"string"},{"name":"_symbol","type":"string","internalType":"string"},{"name":"_decimals","type":"uint8","internalType":"uint8"}],"outputs":[],"stateMutability":"nonpayable"},{"type":"function","name":"lastBatchNonce","inputs":[{"name":"_erc20Address","type":"address","internalType":"address"}],"outputs":[{"name":"","type":"uint256","internalType":"uint256"}],"stateMutability":"view"},{"type":"function","name":"lastLogicCallNonce","inputs":[{"name":"_invalidation_id","type":"bytes32","internalType":"bytes32"}],"outputs":[{"name":"","type":"uint256","internalType":"uint256"}],"stateMutability":"view"},{"type":"function","name":"remoteCall","inputs":[{"name":"_args","type":"tuple","internalType":"struct LogicCallArgs","components":[{"name":"transferAmounts","type":"uint256[]","internalType":"uint256[]"},{"name":"transferTokenContracts","type":"address[]","internalType":"address[]"},{"name":"feeAmounts","type":"uint256[]","internalType":"uint256[]"},{"name":"feeTokenContracts","type":"address[]","internalType":"address[]"},{"name":"logicContractAddress","type":"address","internalType":"address"},{"name":"payload","type":"bytes","internalType":"bytes"},{"name":"maxGas","type":"uint256","internalType":"uint256"},{"name":"timeOut","type":"uint256","internalType":"uint256"},{"name":"invalidationId","type":"bytes32","internalType":"bytes32"},{"name":"invalidationNonce","type":"uint256","internalType":"uint256"},{"name":"fallbackAddress","type":"address","internalType":"address"}]}],"outputs":[],"stateMutability":"nonpayable"},{"type":"function","name":"sendToNomic","inputs":[{"name":"_tokenContract","type":"address","internalType":"address"},{"name":"_destination","type":"string","internalType":"string"},{"name":"_amount","type":"uint256","internalType":"uint256"}],"outputs":[],"stateMutability":"nonpayable"},{"type":"function","name":"state_gravityId","inputs":[],"outputs":[{"name":"","type":"bytes32","internalType":"bytes32"}],"stateMutability":"view"},{"type":"function","name":"state_invalidationMapping","inputs":[{"name":"","type":"bytes32","internalType":"bytes32"}],"outputs":[{"name":"","type":"uint256","internalType":"uint256"}],"stateMutability":"view"},{"type":"function","name":"state_lastBatchNonces","inputs":[{"name":"","type":"address","internalType":"address"}],"outputs":[{"name":"","type":"uint256","internalType":"uint256"}],"stateMutability":"view"},{"type":"function","name":"state_lastEventNonce","inputs":[],"outputs":[{"name":"","type":"uint256","internalType":"uint256"}],"stateMutability":"view"},{"type":"function","name":"state_lastReturnNonce","inputs":[],"outputs":[{"name":"","type":"uint256","internalType":"uint256"}],"stateMutability":"view"},{"type":"function","name":"state_lastValsetCheckpoint","inputs":[],"outputs":[{"name":"","type":"bytes32","internalType":"bytes32"}],"stateMutability":"view"},{"type":"function","name":"state_lastValsetNonce","inputs":[],"outputs":[{"name":"","type":"uint256","internalType":"uint256"}],"stateMutability":"view"},{"type":"function","name":"state_returnAmounts","inputs":[{"name":"","type":"uint256","internalType":"uint256"}],"outputs":[{"name":"","type":"uint256","internalType":"uint256"}],"stateMutability":"view"},{"type":"function","name":"state_returnDests","inputs":[{"name":"","type":"uint256","internalType":"uint256"}],"outputs":[{"name":"","type":"string","internalType":"string"}],"stateMutability":"view"},{"type":"function","name":"state_returnSenders","inputs":[{"name":"","type":"uint256","internalType":"uint256"}],"outputs":[{"name":"","type":"address","internalType":"address"}],"stateMutability":"view"},{"type":"function","name":"submitBatch","inputs":[{"name":"_currentValset","type":"tuple","internalType":"struct ValsetArgs","components":[{"name":"validators","type":"address[]","internalType":"address[]"},{"name":"powers","type":"uint256[]","internalType":"uint256[]"},{"name":"valsetNonce","type":"uint256","internalType":"uint256"},{"name":"rewardAmount","type":"uint256","internalType":"uint256"},{"name":"rewardToken","type":"address","internalType":"address"}]},{"name":"_sigs","type":"tuple[]","internalType":"struct Signature[]","components":[{"name":"v","type":"uint8","internalType":"uint8"},{"name":"r","type":"bytes32","internalType":"bytes32"},{"name":"s","type":"bytes32","internalType":"bytes32"}]},{"name":"_amounts","type":"uint256[]","internalType":"uint256[]"},{"name":"_destinations","type":"address[]","internalType":"address[]"},{"name":"_fees","type":"uint256[]","internalType":"uint256[]"},{"name":"_batchNonce","type":"uint256","internalType":"uint256"},{"name":"_tokenContract","type":"address","internalType":"address"},{"name":"_batchTimeout","type":"uint256","internalType":"uint256"}],"outputs":[],"stateMutability":"nonpayable"},{"type":"function","name":"submitLogicCall","inputs":[{"name":"_currentValset","type":"tuple","internalType":"struct ValsetArgs","components":[{"name":"validators","type":"address[]","internalType":"address[]"},{"name":"powers","type":"uint256[]","internalType":"uint256[]"},{"name":"valsetNonce","type":"uint256","internalType":"uint256"},{"name":"rewardAmount","type":"uint256","internalType":"uint256"},{"name":"rewardToken","type":"address","internalType":"address"}]},{"name":"_sigs","type":"tuple[]","internalType":"struct Signature[]","components":[{"name":"v","type":"uint8","internalType":"uint8"},{"name":"r","type":"bytes32","internalType":"bytes32"},{"name":"s","type":"bytes32","internalType":"bytes32"}]},{"name":"_args","type":"tuple","internalType":"struct LogicCallArgs","components":[{"name":"transferAmounts","type":"uint256[]","internalType":"uint256[]"},{"name":"transferTokenContracts","type":"address[]","internalType":"address[]"},{"name":"feeAmounts","type":"uint256[]","internalType":"uint256[]"},{"name":"feeTokenContracts","type":"address[]","internalType":"address[]"},{"name":"logicContractAddress","type":"address","internalType":"address"},{"name":"payload","type":"bytes","internalType":"bytes"},{"name":"maxGas","type":"uint256","internalType":"uint256"},{"name":"timeOut","type":"uint256","internalType":"uint256"},{"name":"invalidationId","type":"bytes32","internalType":"bytes32"},{"name":"invalidationNonce","type":"uint256","internalType":"uint256"},{"name":"fallbackAddress","type":"address","internalType":"address"}]}],"outputs":[],"stateMutability":"nonpayable"},{"type":"function","name":"testCheckValidatorSignatures","inputs":[{"name":"_currentValset","type":"tuple","internalType":"struct ValsetArgs","components":[{"name":"validators","type":"address[]","internalType":"address[]"},{"name":"powers","type":"uint256[]","internalType":"uint256[]"},{"name":"valsetNonce","type":"uint256","internalType":"uint256"},{"name":"rewardAmount","type":"uint256","internalType":"uint256"},{"name":"rewardToken","type":"address","internalType":"address"}]},{"name":"_sigs","type":"tuple[]","internalType":"struct Signature[]","components":[{"name":"v","type":"uint8","internalType":"uint8"},{"name":"r","type":"bytes32","internalType":"bytes32"},{"name":"s","type":"bytes32","internalType":"bytes32"}]},{"name":"_theHash","type":"bytes32","internalType":"bytes32"},{"name":"_powerThreshold","type":"uint256","internalType":"uint256"}],"outputs":[],"stateMutability":"pure"},{"type":"function","name":"testMakeCheckpoint","inputs":[{"name":"_valsetArgs","type":"tuple","internalType":"struct ValsetArgs","components":[{"name":"validators","type":"address[]","internalType":"address[]"},{"name":"powers","type":"uint256[]","internalType":"uint256[]"},{"name":"valsetNonce","type":"uint256","internalType":"uint256"},{"name":"rewardAmount","type":"uint256","internalType":"uint256"},{"name":"rewardToken","type":"address","internalType":"address"}]},{"name":"_gravityId","type":"bytes32","internalType":"bytes32"}],"outputs":[],"stateMutability":"pure"},{"type":"function","name":"updateValset","inputs":[{"name":"_newValset","type":"tuple","internalType":"struct ValsetArgs","components":[{"name":"validators","type":"address[]","internalType":"address[]"},{"name":"powers","type":"uint256[]","internalType":"uint256[]"},{"name":"valsetNonce","type":"uint256","internalType":"uint256"},{"name":"rewardAmount","type":"uint256","internalType":"uint256"},{"name":"rewardToken","type":"address","internalType":"address"}]},{"name":"_currentValset","type":"tuple","internalType":"struct ValsetArgs","components":[{"name":"validators","type":"address[]","internalType":"address[]"},{"name":"powers","type":"uint256[]","internalType":"uint256[]"},{"name":"valsetNonce","type":"uint256","internalType":"uint256"},{"name":"rewardAmount","type":"uint256","internalType":"uint256"},{"name":"rewardToken","type":"address","internalType":"address"}]},{"name":"_sigs","type":"tuple[]","internalType":"struct Signature[]","components":[{"name":"v","type":"uint8","internalType":"uint8"},{"name":"r","type":"bytes32","internalType":"bytes32"},{"name":"s","type":"bytes32","internalType":"bytes32"}]}],"outputs":[],"stateMutability":"nonpayable"},{"type":"event","name":"ERC20DeployedEvent","inputs":[{"name":"_cosmosDenom","type":"string","indexed":false,"internalType":"string"},{"name":"_tokenContract","type":"address","indexed":true,"internalType":"address"},{"name":"_name","type":"string","indexed":false,"internalType":"string"},{"name":"_symbol","type":"string","indexed":false,"internalType":"string"},{"name":"_decimals","type":"uint8","indexed":false,"internalType":"uint8"},{"name":"_eventNonce","type":"uint256","indexed":false,"internalType":"uint256"}],"anonymous":false},{"type":"event","name":"LogicCallEvent","inputs":[{"name":"_invalidationId","type":"bytes32","indexed":false,"internalType":"bytes32"},{"name":"_invalidationNonce","type":"uint256","indexed":false,"internalType":"uint256"},{"name":"_returnData","type":"bytes","indexed":false,"internalType":"bytes"},{"name":"_eventNonce","type":"uint256","indexed":false,"internalType":"uint256"}],"anonymous":false},{"type":"event","name":"SendToNomicEvent","inputs":[{"name":"_tokenContract","type":"address","indexed":true,"internalType":"address"},{"name":"_sender","type":"address","indexed":true,"internalType":"address"},{"name":"_destination","type":"string","indexed":false,"internalType":"string"},{"name":"_amount","type":"uint256","indexed":false,"internalType":"uint256"},{"name":"_eventNonce","type":"uint256","indexed":false,"internalType":"uint256"}],"anonymous":false},{"type":"event","name":"TransactionBatchExecutedEvent","inputs":[{"name":"_batchNonce","type":"uint256","indexed":true,"internalType":"uint256"},{"name":"_token","type":"address","indexed":true,"internalType":"address"},{"name":"_eventNonce","type":"uint256","indexed":false,"internalType":"uint256"}],"anonymous":false},{"type":"event","name":"ValsetUpdatedEvent","inputs":[{"name":"_newValsetNonce","type":"uint256","indexed":true,"internalType":"uint256"},{"name":"_eventNonce","type":"uint256","indexed":false,"internalType":"uint256"},{"name":"_rewardAmount","type":"uint256","indexed":false,"internalType":"uint256"},{"name":"_rewardToken","type":"address","indexed":false,"internalType":"address"},{"name":"_validators","type":"address[]","indexed":false,"internalType":"address[]"},{"name":"_powers","type":"uint256[]","indexed":false,"internalType":"uint256[]"}],"anonymous":false},{"type":"error","name":"AddressEmptyCode","inputs":[{"name":"target","type":"address","internalType":"address"}]},{"type":"error","name":"AddressInsufficientBalance","inputs":[{"name":"account","type":"address","internalType":"address"}]},{"type":"error","name":"BatchTimedOut","inputs":[]},{"type":"error","name":"ECDSAInvalidSignature","inputs":[]},{"type":"error","name":"ECDSAInvalidSignatureLength","inputs":[{"name":"length","type":"uint256","internalType":"uint256"}]},{"type":"error","name":"ECDSAInvalidSignatureS","inputs":[{"name":"s","type":"bytes32","internalType":"bytes32"}]},{"type":"error","name":"FailedInnerCall","inputs":[]},{"type":"error","name":"FailedLogicCall","inputs":[]},{"type":"error","name":"IncorrectCheckpoint","inputs":[]},{"type":"error","name":"InsufficientPower","inputs":[{"name":"cumulativePower","type":"uint256","internalType":"uint256"},{"name":"powerThreshold","type":"uint256","internalType":"uint256"}]},{"type":"error","name":"InvalidBatchNonce","inputs":[{"name":"newNonce","type":"uint256","internalType":"uint256"},{"name":"currentNonce","type":"uint256","internalType":"uint256"}]},{"type":"error","name":"InvalidLogicCallAddress","inputs":[]},{"type":"error","name":"InvalidLogicCallFees","inputs":[]},{"type":"error","name":"InvalidLogicCallNonce","inputs":[{"name":"newNonce","type":"uint256","internalType":"uint256"},{"name":"currentNonce","type":"uint256","internalType":"uint256"}]},{"type":"error","name":"InvalidLogicCallTransfers","inputs":[]},{"type":"error","name":"InvalidSendToNomic","inputs":[]},{"type":"error","name":"InvalidSignature","inputs":[]},{"type":"error","name":"InvalidValsetNonce","inputs":[{"name":"newNonce","type":"uint256","internalType":"uint256"},{"name":"currentNonce","type":"uint256","internalType":"uint256"}]},{"type":"error","name":"LogicCallTimedOut","inputs":[]},{"type":"error","name":"MalformedBatch","inputs":[]},{"type":"error","name":"MalformedCurrentValidatorSet","inputs":[]},{"type":"error","name":"MalformedNewValidatorSet","inputs":[]},{"type":"error","name":"ReentrancyGuardReentrantCall","inputs":[]},{"type":"error","name":"SafeERC20FailedOperation","inputs":[{"name":"token","type":"address","internalType":"address"}]}],"bytecode":{"object":"0x60a060405260006004556001600555600060065534801561001f57600080fd5b50604051613a03380380613a0383398101604081905261003e916102ff565b60016000558051825114158061005357508151155b156100715760405163c6617b7b60e01b815260040160405180910390fd5b6000805b82518110156100b857828181518110610090576100906103e0565b6020026020010151826100a391906103f6565b915063aaaaaaaa82116100b857600101610075565b5063aaaaaaaa81116100ed5760405162bfb6ab60e01b81526004810182905263aaaaaaaa602482015260440160405180910390fd5b6101286040518060a001604052806060815260200160608152602001600081526020016000815260200160006001600160a01b031681525090565b506040805160a08101825284815260208101849052600091810182905260608101829052608081018290529061015e82876101bd565b6080879052600181905560045460055460405192935090917f76d08978c024a4bf8cbb30c67fd78fcaa1827cbc533e4e175f36d07e64ccf96a916101aa9160009081908b908b9061048e565b60405180910390a2505050505050610535565b6000806918da1958dadc1bda5b9d60b21b60001b90506000838286604001518760000151886020015189606001518a6080015160405160200161020697969594939291906104d9565b60408051601f198184030181529190528051602090910120925050505b92915050565b634e487b7160e01b600052604160045260246000fd5b604051601f8201601f191681016001600160401b038111828210171561026757610267610229565b604052919050565b60006001600160401b0382111561028857610288610229565b5060051b60200190565b600082601f8301126102a357600080fd5b81516102b66102b18261026f565b61023f565b8082825260208201915060208360051b8601019250858311156102d857600080fd5b602085015b838110156102f55780518352602092830192016102dd565b5095945050505050565b60008060006060848603121561031457600080fd5b835160208501519093506001600160401b0381111561033257600080fd5b8401601f8101861361034357600080fd5b80516103516102b18261026f565b8082825260208201915060208360051b85010192508883111561037357600080fd5b6020840193505b828410156103aa5783516001600160a01b038116811461039957600080fd5b82526020938401939091019061037a565b6040880151909550925050506001600160401b038111156103ca57600080fd5b6103d686828701610292565b9150509250925092565b634e487b7160e01b600052603260045260246000fd5b8082018082111561022357634e487b7160e01b600052601160045260246000fd5b600081518084526020840193506020830160005b828110156104525781516001600160a01b031686526020958601959091019060010161042b565b5093949350505050565b600081518084526020840193506020830160005b82811015610452578151865260209586019590910190600101610470565b85815284602082015260018060a01b038416604082015260a0606082015260006104bb60a0830185610417565b82810360808401526104cd818561045c565b98975050505050505050565b87815286602082015285604082015260e0606082015260006104fe60e0830187610417565b8281036080840152610510818761045c565b60a084019590955250506001600160a01b039190911660c09091015295945050505050565b60805161349e61056560003960008181610260015281816107f1015281816108680152610e29015261349e6000f3fe608060405234801561001057600080fd5b506004361061012b5760003560e01c80638690ff98116100ad578063d2a8dbc711610071578063d2a8dbc7146102a2578063df97174b146102e3578063f2b5330714610303578063f79556371461030c578063fd79e9a51461031f57600080fd5b80638690ff981461022c578063aca6b1c11461023f578063b56561fe14610252578063bdda81d41461025b578063c9d194d51461028257600080fd5b806359ce5dde116100f457806359ce5dde146101bd57806360ad5b38146101d057806373b20547146101f05780637dfb6f86146101f9578063856f9ad21461021957600080fd5b8062901153146101305780630103152514610145578063011b217414610158578063274975fa14610194578063374738d91461019d575b600080fd5b61014361013e36600461177c565b610332565b005b6101436101533660046117fa565b610346565b61018161016636600461185a565b6001600160a01b031660009081526002602052604090205490565b6040519081526020015b60405180910390f35b61018160065481565b6101b06101ab366004611875565b61035d565b60405161018b91906118de565b6101436101cb366004611932565b6103f7565b6101816101de366004611875565b60086020526000908152604090205481565b61018160055481565b610181610207366004611875565b60036020526000908152604090205481565b610143610227366004611cc2565b6105d5565b61014361023a366004611d42565b610745565b61014361024d366004611e6f565b610a0e565b61018160045481565b6101817f000000000000000000000000000000000000000000000000000000000000000081565b610181610290366004611875565b60009081526003602052604090205490565b6102cb6102b0366004611875565b6009602052600090815260409020546001600160a01b031681565b6040516001600160a01b03909116815260200161018b565b6101816102f136600461185a565b60026020526000908152604090205481565b61018160015481565b61014361031a366004611f14565b610c77565b61014361032d366004611fc8565b610d13565b61033f8585858585611087565b5050505050565b6103586103528361205f565b826111ae565b505050565b60076020526000908152604090208054610376906120f4565b80601f01602080910402602001604051908101604052809291908181526020018280546103a2906120f4565b80156103ef5780601f106103c4576101008083540402835291602001916103ef565b820191906000526020600020905b8154815290600101906020018083116103d257829003601f168201915b505050505081565b6103ff61121a565b6040516370a0823160e01b81523060048201526000906001600160a01b038616906370a0823190602401602060405180830381865afa158015610446573d6000803e3d6000fd5b505050506040513d601f19601f8201168201806040525081019061046a9190612128565b90506104816001600160a01b038616333085611244565b6040516370a0823160e01b81523060048201526000906001600160a01b038716906370a0823190602401602060405180830381865afa1580156104c8573d6000803e3d6000fd5b505050506040513d601f19601f820116820180604052508101906104ec9190612128565b905060006104fa8383612157565b905082821161051c5760405163728614d360e01b815260040160405180910390fd5b6006546000818152600860209081526040808320859055600790915290206105458789836121b1565b50600081815260096020526040902080546001600160a01b03191633179055600654610572906001612270565b600681905560405133916001600160a01b038b16917f58a3e95c14cd668e435fb5472910ea9157be6096f6a516c17f14aca4c55d7485916105b9918c918c918991906122ac565b60405180910390a3505050506105cf6001600055565b50505050565b3330146106185760405162461bcd60e51b815260206004820152600c60248201526b155b985d5d1a1bdc9a5e995960a21b60448201526064015b60405180910390fd5b60005b81515181101561068957610681826080015183600001518381518110610643576106436122d3565b602002602001015184602001518481518110610661576106616122d3565b60200260200101516001600160a01b03166112ab9092919063ffffffff16565b60010161061b565b5060808101516001600160a01b03163b156106b7576040516324b0609d60e21b815260040160405180910390fd5b60008082608001516001600160a01b03168360c001518460a001516040516106df91906122e9565b60006040518083038160008787f1925050503d806000811461071d576040519150601f19603f3d011682016040523d82523d6000602084013e610722565b606091505b5091509150816103585760405163a842348b60e01b815260040160405180910390fd5b61074d61121a565b6001600160a01b038216600090815260026020526040902054610771906001612270565b83146107b5576001600160a01b0382166000908152600260205260409081902054905163f7f920ad60e01b815261060f918591600401918252602082015260400190565b8043106107d5576040516308b9266360e11b815260040160405180910390fd5b6107e08c8c8c6112dc565b6001546108156107ef8e61205f565b7f00000000000000000000000000000000000000000000000000000000000000006111ae565b146108335760405163723a340360e01b815260040160405180910390fd5b87861415806108425750878414155b156108605760405163c1f97e3560e01b815260040160405180910390fd5b6108de8c8c8c7f00000000000000000000000000000000000000000000000000000000000000006f0e8e4c2dce6c2c6e8d2dedc84c2e8c6d60831b8e8e8e8e8e8e8e8e8e6040516020016108be9b9a9998979695949392919061237f565b6040516020818303038152906040528051906020012063aaaaaaaa611087565b6001600160a01b0382166000908152600260205260408120849055805b8981101561098d5761095f898983818110610918576109186122d3565b905060200201602081019061092d919061185a565b8c8c8481811061093f5761093f6122d3565b90506020020135866001600160a01b03166112ab9092919063ffffffff16565b868682818110610971576109716122d3565b90506020020135826109839190612270565b91506001016108fb565b506109a26001600160a01b03841633836112ab565b506005546109b1906001612270565b60058190556040519081526001600160a01b0383169084907f02c7e81975f8edb86e2a0c038b7b86a49c744236abf0f6177ff5afc6986ab7089060200160405180910390a3610a006001600055565b505050505050505050505050565b610a1d60408401356001612270565b846040013514610a4f576040805163e0e8edf360e01b815281860135600482015290840135602482015260440161060f565b610a5c60208501856123f6565b9050610a6885806123f6565b9050141580610a805750610a7c84806123f6565b1590505b15610a9e5760405163c01ba0ab60e01b815260040160405180910390fd5b610aa98383836112dc565b6000805b610aba60208701876123f6565b9050811015610b0757610ad060208701876123f6565b82818110610ae057610ae06122d3565b9050602002013582610af29190612270565b915063aaaaaaaa8211610b0757600101610aad565b5063aaaaaaaa8111610b385760405162bfb6ab60e01b81526004810182905263aaaaaaaa602482015260440161060f565b600154610b476107ef8661205f565b14610b655760405163723a340360e01b815260040160405180910390fd5b6000610b736107ef8761205f565b9050610b868585858463aaaaaaaa611087565b600181905560408601356004556000610ba560a088016080890161185a565b6001600160a01b031614158015610bbf5750606086013515155b15610bed57610bed336060880135610bdd60a08a0160808b0161185a565b6001600160a01b031691906112ab565b600554610bfb906001612270565b60058190556040870135907f76d08978c024a4bf8cbb30c67fd78fcaa1827cbc533e4e175f36d07e64ccf96a906060890135610c3d60a08b0160808c0161185a565b610c478b806123f6565b610c5460208e018e6123f6565b604051610c67979695949392919061243f565b60405180910390a2505050505050565b6000308686868686604051610c8b9061170c565b610c9a9695949392919061248e565b604051809103906000f080158015610cb6573d6000803e3d6000fd5b509050806001600160a01b03167f82fe3a4fa49c6382d0c085746698ddbbafe6c2bf61285b19410644b5b26287c7898989898989896000604051610d019897969594939291906124dd565b60405180910390a25050505050505050565b610d1b61121a565b8060e001514310610d3f5760405163bcf37c2560e01b815260040160405180910390fd5b61012081015161010082015160009081526003602052604090205410610d9c5761012081015161010082015160009081526003602052604090819020549051629427e960e11b81526004810192909252602482015260440161060f565b610da78484846112dc565b600154610db66107ef8661205f565b14610dd45760405163723a340360e01b815260040160405180910390fd5b60208101515181515114610dfb57604051634298a95160e11b815260040160405180910390fd5b80606001515181604001515114610e2557604051634829247960e01b815260040160405180910390fd5b60007f0000000000000000000000000000000000000000000000000000000000000000681b1bd9da58d0d85b1b60ba1b836000015184602001518560400151866060015187608001518860a001518960e001518a61010001518b6101200151604051602001610e9e9b9a999897969594939291906125a1565b604051602081830303815290604052805190602001209050610ec78585858463aaaaaaaa611087565b5061012081015161010082015160009081526003602052604080822092909255905181903090610efb908590602401612646565b60408051601f198184030181529181526020820180516001600160e01b03166342b7cd6960e11b17905251610f3091906122e9565b6000604051808303816000865af19150503d8060008114610f6d576040519150601f19603f3d011682016040523d82523d6000602084013e610f72565b606091505b509150915081610fd05760005b835151811015610fce57610fc684610140015185600001518381518110610fa857610fa86122d3565b602002602001015186602001518481518110610661576106616122d3565b600101610f7f565b505b60005b836040015151811015611020576110183385604001518381518110610ffa57610ffa6122d3565b602002602001015186606001518481518110610661576106616122d3565b600101610fd3565b5060055461102f906001612270565b60058190556101008401516101208501516040517f7c2bb24f8e1b3725cb613d7f11ef97d9745cc97a0e40f730621c052d684077a19361107393929186919061274a565b60405180910390a150506105cf6001600055565b6000805b61109587806123f6565b905081101561117c578585828181106110b0576110b06122d3565b6110c6926020606090920201908101915061277a565b60ff16156111745761111e6110db88806123f6565b838181106110eb576110eb6122d3565b9050602002016020810190611100919061185a565b85888885818110611113576111136122d3565b90506060020161132d565b61113b57604051638baa579f60e01b815260040160405180910390fd5b61114860208801886123f6565b82818110611158576111586122d3565b905060200201358261116a9190612270565b915082821161117c575b60010161108b565b508181116111a65760405162bfb6ab60e01b8152600481018290526024810183905260440161060f565b505050505050565b6000806918da1958dadc1bda5b9d60b21b60001b90506000838286604001518760000151886020015189606001518a608001516040516020016111f79796959493929190612795565b60408051601f198184030181529190528051602090910120925050505b92915050565b60026000540361123d57604051633ee5aeb560e01b815260040160405180910390fd5b6002600055565b6040516001600160a01b0384811660248301528381166044830152606482018390526105cf9186918216906323b872dd906084015b604051602081830303815290604052915060e01b6020820180516001600160e01b0383818316178352505050506113bf565b6040516001600160a01b0383811660248301526044820183905261035891859182169063a9059cbb90606401611279565b6112e960208401846123f6565b90506112f584806123f6565b905014158061130f57508061130a84806123f6565b905014155b156103585760405163c6617b7b60e01b815260040160405180910390fd5b6040517f19457468657265756d205369676e6564204d6573736167653a0a3332000000006020820152603c81018390526000908190605c0160408051601f19818403018152919052805160209182012091506113a09082906113919086018661277a565b85602001358660400135611422565b6001600160a01b0316856001600160a01b0316149150505b9392505050565b60006113d46001600160a01b03841683611450565b905080516000141580156113f95750808060200190518101906113f791906127f1565b155b1561035857604051635274afe760e01b81526001600160a01b038416600482015260240161060f565b6000806000806114348888888861145e565b925092509250611444828261152d565b50909695505050505050565b60606113b8838360006115ea565b600080807f7fffffffffffffffffffffffffffffff5d576e7357a4501ddfe92f46681b20a08411156114995750600091506003905082611523565b604080516000808252602082018084528a905260ff891692820192909252606081018790526080810186905260019060a0016020604051602081039080840390855afa1580156114ed573d6000803e3d6000fd5b5050604051601f1901519150506001600160a01b03811661151957506000925060019150829050611523565b9250600091508190505b9450945094915050565b600082600381111561154157611541612813565b0361154a575050565b600182600381111561155e5761155e612813565b0361157c5760405163f645eedf60e01b815260040160405180910390fd5b600282600381111561159057611590612813565b036115b15760405163fce698f760e01b81526004810182905260240161060f565b60038260038111156115c5576115c5612813565b036115e6576040516335e2f38360e21b81526004810182905260240161060f565b5050565b60608147101561160f5760405163cd78605960e01b815230600482015260240161060f565b600080856001600160a01b0316848660405161162b91906122e9565b60006040518083038185875af1925050503d8060008114611668576040519150601f19603f3d011682016040523d82523d6000602084013e61166d565b606091505b509150915061167d868383611687565b9695505050505050565b60608261169c57611697826116e3565b6113b8565b81511580156116b357506001600160a01b0384163b155b156116dc57604051639996b31560e01b81526001600160a01b038516600482015260240161060f565b50806113b8565b8051156116f35780518082602001fd5b604051630a12f52160e11b815260040160405180910390fd5b610c3f8061282a83390190565b600060a0828403121561172b57600080fd5b50919050565b60008083601f84011261174357600080fd5b5081356001600160401b0381111561175a57600080fd5b60208301915083602060608302850101111561177557600080fd5b9250929050565b60008060008060006080868803121561179457600080fd5b85356001600160401b038111156117aa57600080fd5b6117b688828901611719565b95505060208601356001600160401b038111156117d257600080fd5b6117de88828901611731565b9699909850959660408101359660609091013595509350505050565b6000806040838503121561180d57600080fd5b82356001600160401b0381111561182357600080fd5b61182f85828601611719565b95602094909401359450505050565b80356001600160a01b038116811461185557600080fd5b919050565b60006020828403121561186c57600080fd5b6113b88261183e565b60006020828403121561188757600080fd5b5035919050565b60005b838110156118a9578181015183820152602001611891565b50506000910152565b600081518084526118ca81602086016020860161188e565b601f01601f19169290920160200192915050565b6020815260006113b860208301846118b2565b60008083601f84011261190357600080fd5b5081356001600160401b0381111561191a57600080fd5b60208301915083602082850101111561177557600080fd5b6000806000806060858703121561194857600080fd5b6119518561183e565b935060208501356001600160401b0381111561196c57600080fd5b611978878288016118f1565b9598909750949560400135949350505050565b634e487b7160e01b600052604160045260246000fd5b60405161016081016001600160401b03811182821017156119c4576119c461198b565b60405290565b60405160a081016001600160401b03811182821017156119c4576119c461198b565b604051601f8201601f191681016001600160401b0381118282101715611a1457611a1461198b565b604052919050565b60006001600160401b03821115611a3557611a3561198b565b5060051b60200190565b600082601f830112611a5057600080fd5b8135611a63611a5e82611a1c565b6119ec565b8082825260208201915060208360051b860101925085831115611a8557600080fd5b602085015b83811015611aa2578035835260209283019201611a8a565b5095945050505050565b600082601f830112611abd57600080fd5b8135611acb611a5e82611a1c565b8082825260208201915060208360051b860101925085831115611aed57600080fd5b602085015b83811015611aa257611b038161183e565b835260209283019201611af2565b600082601f830112611b2257600080fd5b81356001600160401b03811115611b3b57611b3b61198b565b611b4e601f8201601f19166020016119ec565b818152846020838601011115611b6357600080fd5b816020850160208301376000918101602001919091529392505050565b60006101608284031215611b9357600080fd5b611b9b6119a1565b905081356001600160401b03811115611bb357600080fd5b611bbf84828501611a3f565b82525060208201356001600160401b03811115611bdb57600080fd5b611be784828501611aac565b60208301525060408201356001600160401b03811115611c0657600080fd5b611c1284828501611a3f565b60408301525060608201356001600160401b03811115611c3157600080fd5b611c3d84828501611aac565b606083015250611c4f6080830161183e565b608082015260a08201356001600160401b03811115611c6d57600080fd5b611c7984828501611b11565b60a08301525060c0828101359082015260e0808301359082015261010080830135908201526101208083013590820152611cb6610140830161183e565b61014082015292915050565b600060208284031215611cd457600080fd5b81356001600160401b03811115611cea57600080fd5b611cf684828501611b80565b949350505050565b60008083601f840112611d1057600080fd5b5081356001600160401b03811115611d2757600080fd5b6020830191508360208260051b850101111561177557600080fd5b6000806000806000806000806000806000806101008d8f031215611d6557600080fd5b6001600160401b038d351115611d7a57600080fd5b611d878e8e358f01611719565b9b506001600160401b0360208e01351115611da157600080fd5b611db18e60208f01358f01611731565b909b5099506001600160401b0360408e01351115611dce57600080fd5b611dde8e60408f01358f01611cfe565b90995097506001600160401b0360608e01351115611dfb57600080fd5b611e0b8e60608f01358f01611cfe565b90975095506001600160401b0360808e01351115611e2857600080fd5b611e388e60808f01358f01611cfe565b909550935060a08d01359250611e5060c08e0161183e565b9150600060e08e01359050809150509295989b509295989b509295989b565b60008060008060608587031215611e8557600080fd5b84356001600160401b03811115611e9b57600080fd5b611ea787828801611719565b94505060208501356001600160401b03811115611ec357600080fd5b611ecf87828801611719565b93505060408501356001600160401b03811115611eeb57600080fd5b611ef787828801611731565b95989497509550505050565b803560ff8116811461185557600080fd5b60008060008060008060006080888a031215611f2f57600080fd5b87356001600160401b03811115611f4557600080fd5b611f518a828b016118f1565b90985096505060208801356001600160401b03811115611f7057600080fd5b611f7c8a828b016118f1565b90965094505060408801356001600160401b03811115611f9b57600080fd5b611fa78a828b016118f1565b9094509250611fba905060608901611f03565b905092959891949750929550565b60008060008060608587031215611fde57600080fd5b84356001600160401b03811115611ff457600080fd5b61200087828801611719565b94505060208501356001600160401b0381111561201c57600080fd5b61202887828801611731565b90945092505060408501356001600160401b0381111561204757600080fd5b61205387828801611b80565b91505092959194509250565b600060a0823603121561207157600080fd5b6120796119ca565b82356001600160401b0381111561208f57600080fd5b61209b36828601611aac565b82525060208301356001600160401b038111156120b757600080fd5b6120c336828601611a3f565b60208301525060408381013590820152606080840135908201526120e96080840161183e565b608082015292915050565b600181811c9082168061210857607f821691505b60208210810361172b57634e487b7160e01b600052602260045260246000fd5b60006020828403121561213a57600080fd5b5051919050565b634e487b7160e01b600052601160045260246000fd5b8181038181111561121457611214612141565b601f82111561035857806000526020600020601f840160051c810160208510156121915750805b601f840160051c820191505b8181101561033f576000815560010161219d565b6001600160401b038311156121c8576121c861198b565b6121dc836121d683546120f4565b8361216a565b6000601f84116001811461221057600085156121f85750838201355b600019600387901b1c1916600186901b17835561033f565b600083815260209020601f19861690835b828110156122415786850135825560209485019460019092019101612221565b508682101561225e5760001960f88860031b161c19848701351681555b505060018560011b0183555050505050565b8082018082111561121457611214612141565b81835281816020850137506000828201602090810191909152601f909101601f19169091010190565b6060815260006122c0606083018688612283565b6020830194909452506040015292915050565b634e487b7160e01b600052603260045260246000fd5b600082516122fb81846020870161188e565b9190910192915050565b81835260006001600160fb1b0383111561231e57600080fd5b8260051b80836020870137939093016020019392505050565b81835260208301925060008160005b84811015612375576001600160a01b0361235f8361183e565b1686526020958601959190910190600101612346565b5093949350505050565b8b81528a6020820152610100604082015260006123a161010083018b8d612305565b82810360608401526123b4818a8c612337565b905082810360808401526123c981888a612305565b60a084019690965250506001600160a01b039290921660c083015260e09091015298975050505050505050565b6000808335601e1984360301811261240d57600080fd5b8301803591506001600160401b0382111561242757600080fd5b6020019150600581901b360382131561177557600080fd5b87815286602082015260018060a01b038616604082015260a06060820152600061246d60a083018688612337565b8281036080840152612480818587612305565b9a9950505050505050505050565b6001600160a01b03871681526080602082018190526000906124b39083018789612283565b82810360408401526124c6818688612283565b91505060ff83166060830152979650505050505050565b60a0815260006124f160a083018a8c612283565b828103602084015261250481898b612283565b90508281036040840152612519818789612283565b60ff9590951660608401525050608001529695505050505050565b600081518084526020840193506020830160005b82811015612375578151865260209586019590910190600101612548565b600081518084526020840193506020830160005b828110156123755781516001600160a01b031686526020958601959091019060010161257a565b8b81528a6020820152610160604082015260006125c261016083018c612534565b82810360608401526125d4818c612566565b905082810360808401526125e8818b612534565b905082810360a08401526125fc818a612566565b6001600160a01b03891660c085015283810360e0850152905061261f81886118b2565b61010084019690965250506101208101929092526101409091015298975050505050505050565b60208152600082516101606020840152612664610180840182612534565b90506020840151601f198483030160408501526126818282612566565b9150506040840151601f1984830301606085015261269f8282612534565b9150506060840151601f198483030160808501526126bd8282612566565b91505060808401516126da60a08501826001600160a01b03169052565b5060a0840151838203601f190160c08501526126f682826118b2565b91505060c084015160e084015260e08401516101008401526101008401516101208401526101208401516101408401526101408401516127426101608501826001600160a01b03169052565b509392505050565b84815283602082015260806040820152600061276960808301856118b2565b905082606083015295945050505050565b60006020828403121561278c57600080fd5b6113b882611f03565b87815286602082015285604082015260e0606082015260006127ba60e0830187612566565b82810360808401526127cc8187612534565b60a084019590955250506001600160a01b039190911660c09091015295945050505050565b60006020828403121561280357600080fd5b815180151581146113b857600080fd5b634e487b7160e01b600052602160045260246000fdfe608060405234801561001057600080fd5b50604051610c3f380380610c3f83398101604081905261002f916102aa565b8282600361003d83826103d4565b50600461004a82826103d4565b5050600580546001600160a01b038716610100026001600160a81b031990911660ff8516171790555061007f84600019610088565b505050506104b9565b6001600160a01b0382166100b75760405163ec442f0560e01b8152600060048201526024015b60405180910390fd5b6100c3600083836100c7565b5050565b6001600160a01b0383166100f25780600260008282546100e79190610492565b909155506101649050565b6001600160a01b038316600090815260208190526040902054818110156101455760405163391434e360e21b81526001600160a01b038516600482015260248101829052604481018390526064016100ae565b6001600160a01b03841660009081526020819052604090209082900390555b6001600160a01b0382166101805760028054829003905561019f565b6001600160a01b03821660009081526020819052604090208054820190555b816001600160a01b0316836001600160a01b03167fddf252ad1be2c89b69c2b068fc378daa952ba7f163c4a11628f55a4df523b3ef836040516101e491815260200190565b60405180910390a3505050565b634e487b7160e01b600052604160045260246000fd5b600082601f83011261021857600080fd5b81516001600160401b03811115610231576102316101f1565b604051601f8201601f19908116603f011681016001600160401b038111828210171561025f5761025f6101f1565b60405281815283820160200185101561027757600080fd5b60005b828110156102965760208186018101518383018201520161027a565b506000918101602001919091529392505050565b600080600080608085870312156102c057600080fd5b84516001600160a01b03811681146102d757600080fd5b60208601519094506001600160401b038111156102f357600080fd5b6102ff87828801610207565b604087015190945090506001600160401b0381111561031d57600080fd5b61032987828801610207565b925050606085015160ff8116811461034057600080fd5b939692955090935050565b600181811c9082168061035f57607f821691505b60208210810361037f57634e487b7160e01b600052602260045260246000fd5b50919050565b601f8211156103cf57806000526020600020601f840160051c810160208510156103ac5750805b601f840160051c820191505b818110156103cc57600081556001016103b8565b50505b505050565b81516001600160401b038111156103ed576103ed6101f1565b610401816103fb845461034b565b84610385565b6020601f821160018114610435576000831561041d5750848201515b600019600385901b1c1916600184901b1784556103cc565b600084815260208120601f198516915b828110156104655787850151825560209485019460019092019101610445565b50848210156104835786840151600019600387901b60f8161c191681555b50505050600190811b01905550565b808201808211156104b357634e487b7160e01b600052601160045260246000fd5b92915050565b610777806104c86000396000f3fe608060405234801561001057600080fd5b50600436106100935760003560e01c8063313ce56711610066578063313ce5671461010257806370a082311461011757806395d89b4114610140578063a9059cbb14610148578063dd62ed3e1461015b57600080fd5b806306fdde0314610098578063095ea7b3146100b657806318160ddd146100d957806323b872dd146100ef575b600080fd5b6100a0610194565b6040516100ad91906105a5565b60405180910390f35b6100c96100c436600461060f565b610226565b60405190151581526020016100ad565b6100e1610240565b6040519081526020016100ad565b6100c96100fd366004610639565b610271565b60055460405160ff90911681526020016100ad565b6100e1610125366004610676565b6001600160a01b031660009081526020819052604090205490565b6100a0610295565b6100c961015636600461060f565b6102a4565b6100e1610169366004610698565b6001600160a01b03918216600090815260016020908152604080832093909416825291909152205490565b6060600380546101a3906106cb565b80601f01602080910402602001604051908101604052809291908181526020018280546101cf906106cb565b801561021c5780601f106101f15761010080835404028352916020019161021c565b820191906000526020600020905b8154815290600101906020018083116101ff57829003601f168201915b5050505050905090565b6000336102348185856102b2565b60019150505b92915050565b60055461010090046001600160a01b031660009081526020819052604081205461026c9060001961071b565b905090565b60003361027f8582856102c4565b61028a858585610347565b506001949350505050565b6060600480546101a3906106cb565b600033610234818585610347565b6102bf83838360016103a6565b505050565b6001600160a01b038381166000908152600160209081526040808320938616835292905220546000198114610341578181101561033257604051637dc7a0d960e11b81526001600160a01b038416600482015260248101829052604481018390526064015b60405180910390fd5b610341848484840360006103a6565b50505050565b6001600160a01b03831661037157604051634b637e8f60e11b815260006004820152602401610329565b6001600160a01b03821661039b5760405163ec442f0560e01b815260006004820152602401610329565b6102bf83838361047b565b6001600160a01b0384166103d05760405163e602df0560e01b815260006004820152602401610329565b6001600160a01b0383166103fa57604051634a1406b160e11b815260006004820152602401610329565b6001600160a01b038085166000908152600160209081526040808320938716835292905220829055801561034157826001600160a01b0316846001600160a01b03167f8c5be1e5ebec7d5bd14f71427d1e84f3dd0314c0f7b2291e5b200ac8c7c3b9258460405161046d91815260200190565b60405180910390a350505050565b6001600160a01b0383166104a657806002600082825461049b919061072e565b909155506105189050565b6001600160a01b038316600090815260208190526040902054818110156104f95760405163391434e360e21b81526001600160a01b03851660048201526024810182905260448101839052606401610329565b6001600160a01b03841660009081526020819052604090209082900390555b6001600160a01b03821661053457600280548290039055610553565b6001600160a01b03821660009081526020819052604090208054820190555b816001600160a01b0316836001600160a01b03167fddf252ad1be2c89b69c2b068fc378daa952ba7f163c4a11628f55a4df523b3ef8360405161059891815260200190565b60405180910390a3505050565b602081526000825180602084015260005b818110156105d357602081860181015160408684010152016105b6565b506000604082850101526040601f19601f83011684010191505092915050565b80356001600160a01b038116811461060a57600080fd5b919050565b6000806040838503121561062257600080fd5b61062b836105f3565b946020939093013593505050565b60008060006060848603121561064e57600080fd5b610657846105f3565b9250610665602085016105f3565b929592945050506040919091013590565b60006020828403121561068857600080fd5b610691826105f3565b9392505050565b600080604083850312156106ab57600080fd5b6106b4836105f3565b91506106c2602084016105f3565b90509250929050565b600181811c908216806106df57607f821691505b6020821081036106ff57634e487b7160e01b600052602260045260246000fd5b50919050565b634e487b7160e01b600052601160045260246000fd5b8181038181111561023a5761023a610705565b8082018082111561023a5761023a61070556fea264697066735822122024c79efa80d76fa77ae6b1ca389ed0fdae409820955e53b98e9246aa7ec3ca6164736f6c634300081a0033a2646970667358221220ff03a76dc71d87ab636ee0eb729b402b1642df11482307204aa6b4530c8e6eb664736f6c634300081a0033","linkReferences":{}},"methodIdentifiers":{"deployERC20(string,string,string,uint8)":"f7955637","lastBatchNonce(address)":"011b2174","lastLogicCallNonce(bytes32)":"c9d194d5","remoteCall((uint256[],address[],uint256[],address[],address,bytes,uint256,uint256,bytes32,uint256,address))":"856f9ad2","sendToNomic(address,string,uint256)":"59ce5dde","state_gravityId()":"bdda81d4","state_invalidationMapping(bytes32)":"7dfb6f86","state_lastBatchNonces(address)":"df97174b","state_lastEventNonce()":"73b20547","state_lastReturnNonce()":"274975fa","state_lastValsetCheckpoint()":"f2b53307","state_lastValsetNonce()":"b56561fe","state_returnAmounts(uint256)":"60ad5b38","state_returnDests(uint256)":"374738d9","state_returnSenders(uint256)":"d2a8dbc7","submitBatch((address[],uint256[],uint256,uint256,address),(uint8,bytes32,bytes32)[],uint256[],address[],uint256[],uint256,address,uint256)":"8690ff98","submitLogicCall((address[],uint256[],uint256,uint256,address),(uint8,bytes32,bytes32)[],(uint256[],address[],uint256[],address[],address,bytes,uint256,uint256,bytes32,uint256,address))":"fd79e9a5","testCheckValidatorSignatures((address[],uint256[],uint256,uint256,address),(uint8,bytes32,bytes32)[],bytes32,uint256)":"00901153","testMakeCheckpoint((address[],uint256[],uint256,uint256,address),bytes32)":"01031525","updateValset((address[],uint256[],uint256,uint256,address),(address[],uint256[],uint256,uint256,address),(uint8,bytes32,bytes32)[])":"aca6b1c1"},"id":2}