{"abi":[{"type":"constructor","inputs":[{"name":"_owner","type":"address","internalType":"address"},{"name":"_validators","type":"address[]","internalType":"address[]"},{"name":"_powers","type":"uint256[]","internalType":"uint256[]"}],"stateMutability":"nonpayable"},{"type":"function","name":"adjustEmergencyDisbursalBalance","inputs":[{"name":"tokenContract","type":"address","internalType":"address"},{"name":"_address","type":"string","internalType":"string"},{"name":"difference","type":"int256","internalType":"int256"}],"outputs":[],"stateMutability":"nonpayable"},{"type":"function","name":"deployERC20","inputs":[{"name":"_cosmosDenom","type":"string","internalType":"string"},{"name":"_name","type":"string","internalType":"string"},{"name":"_symbol","type":"string","internalType":"string"},{"name":"_decimals","type":"uint8","internalType":"uint8"}],"outputs":[],"stateMutability":"nonpayable"},{"type":"function","name":"lastBatchNonce","inputs":[{"name":"_erc20Address","type":"address","internalType":"address"}],"outputs":[{"name":"","type":"uint256","internalType":"uint256"}],"stateMutability":"view"},{"type":"function","name":"lastLogicCallNonce","inputs":[{"name":"_invalidation_id","type":"bytes32","internalType":"bytes32"}],"outputs":[{"name":"","type":"uint256","internalType":"uint256"}],"stateMutability":"view"},{"type":"function","name":"sendToNomic","inputs":[{"name":"_tokenContract","type":"address","internalType":"address"},{"name":"_destination","type":"string","internalType":"string"},{"name":"_amount","type":"uint256","internalType":"uint256"}],"outputs":[],"stateMutability":"nonpayable"},{"type":"function","name":"setEmergencyDisbursalBalance","inputs":[{"name":"tokenContract","type":"address","internalType":"address"},{"name":"script","type":"bytes","internalType":"bytes"},{"name":"balance","type":"uint256","internalType":"uint256"}],"outputs":[],"stateMutability":"nonpayable"},{"type":"function","name":"state_invalidationMapping","inputs":[{"name":"","type":"bytes32","internalType":"bytes32"}],"outputs":[{"name":"","type":"uint256","internalType":"uint256"}],"stateMutability":"view"},{"type":"function","name":"state_lastBatchNonces","inputs":[{"name":"","type":"address","internalType":"address"}],"outputs":[{"name":"","type":"uint256","internalType":"uint256"}],"stateMutability":"view"},{"type":"function","name":"state_lastEventNonce","inputs":[],"outputs":[{"name":"","type":"uint256","internalType":"uint256"}],"stateMutability":"view"},{"type":"function","name":"state_lastReturnNonce","inputs":[],"outputs":[{"name":"","type":"uint256","internalType":"uint256"}],"stateMutability":"view"},{"type":"function","name":"state_lastValsetCheckpoint","inputs":[],"outputs":[{"name":"","type":"bytes32","internalType":"bytes32"}],"stateMutability":"view"},{"type":"function","name":"state_lastValsetNonce","inputs":[],"outputs":[{"name":"","type":"uint256","internalType":"uint256"}],"stateMutability":"view"},{"type":"function","name":"state_owner","inputs":[],"outputs":[{"name":"","type":"address","internalType":"address"}],"stateMutability":"view"},{"type":"function","name":"state_returnAmounts","inputs":[{"name":"","type":"uint256","internalType":"uint256"}],"outputs":[{"name":"","type":"uint256","internalType":"uint256"}],"stateMutability":"view"},{"type":"function","name":"state_returnDests","inputs":[{"name":"","type":"uint256","internalType":"uint256"}],"outputs":[{"name":"","type":"string","internalType":"string"}],"stateMutability":"view"},{"type":"function","name":"state_returnSenders","inputs":[{"name":"","type":"uint256","internalType":"uint256"}],"outputs":[{"name":"","type":"address","internalType":"address"}],"stateMutability":"view"},{"type":"function","name":"submitBatch","inputs":[{"name":"_currentValset","type":"tuple","internalType":"struct ValsetArgs","components":[{"name":"validators","type":"address[]","internalType":"address[]"},{"name":"powers","type":"uint256[]","internalType":"uint256[]"},{"name":"valsetNonce","type":"uint256","internalType":"uint256"},{"name":"rewardAmount","type":"uint256","internalType":"uint256"},{"name":"rewardToken","type":"address","internalType":"address"}]},{"name":"_sigs","type":"tuple[]","internalType":"struct Signature[]","components":[{"name":"v","type":"uint8","internalType":"uint8"},{"name":"r","type":"bytes32","internalType":"bytes32"},{"name":"s","type":"bytes32","internalType":"bytes32"}]},{"name":"_amounts","type":"uint256[]","internalType":"uint256[]"},{"name":"_destinations","type":"address[]","internalType":"address[]"},{"name":"_fees","type":"uint256[]","internalType":"uint256[]"},{"name":"_batchNonce","type":"uint256","internalType":"uint256"},{"name":"_tokenContract","type":"address","internalType":"address"},{"name":"_batchTimeout","type":"uint256","internalType":"uint256"}],"outputs":[],"stateMutability":"nonpayable"},{"type":"function","name":"submitLogicCall","inputs":[{"name":"_currentValset","type":"tuple","internalType":"struct ValsetArgs","components":[{"name":"validators","type":"address[]","internalType":"address[]"},{"name":"powers","type":"uint256[]","internalType":"uint256[]"},{"name":"valsetNonce","type":"uint256","internalType":"uint256"},{"name":"rewardAmount","type":"uint256","internalType":"uint256"},{"name":"rewardToken","type":"address","internalType":"address"}]},{"name":"_sigs","type":"tuple[]","internalType":"struct Signature[]","components":[{"name":"v","type":"uint8","internalType":"uint8"},{"name":"r","type":"bytes32","internalType":"bytes32"},{"name":"s","type":"bytes32","internalType":"bytes32"}]},{"name":"_args","type":"tuple","internalType":"struct LogicCallArgs","components":[{"name":"transferAmounts","type":"uint256[]","internalType":"uint256[]"},{"name":"transferTokenContracts","type":"address[]","internalType":"address[]"},{"name":"feeAmounts","type":"uint256[]","internalType":"uint256[]"},{"name":"feeTokenContracts","type":"address[]","internalType":"address[]"},{"name":"logicContractAddress","type":"address","internalType":"address"},{"name":"payload","type":"bytes","internalType":"bytes"},{"name":"maxGas","type":"uint256","internalType":"uint256"},{"name":"timeOut","type":"uint256","internalType":"uint256"},{"name":"invalidationId","type":"bytes32","internalType":"bytes32"},{"name":"invalidationNonce","type":"uint256","internalType":"uint256"},{"name":"fallbackAddress","type":"address","internalType":"address"}]}],"outputs":[],"stateMutability":"nonpayable"},{"type":"function","name":"updateValset","inputs":[{"name":"_newValset","type":"tuple","internalType":"struct ValsetArgs","components":[{"name":"validators","type":"address[]","internalType":"address[]"},{"name":"powers","type":"uint256[]","internalType":"uint256[]"},{"name":"valsetNonce","type":"uint256","internalType":"uint256"},{"name":"rewardAmount","type":"uint256","internalType":"uint256"},{"name":"rewardToken","type":"address","internalType":"address"}]},{"name":"_currentValset","type":"tuple","internalType":"struct ValsetArgs","components":[{"name":"validators","type":"address[]","internalType":"address[]"},{"name":"powers","type":"uint256[]","internalType":"uint256[]"},{"name":"valsetNonce","type":"uint256","internalType":"uint256"},{"name":"rewardAmount","type":"uint256","internalType":"uint256"},{"name":"rewardToken","type":"address","internalType":"address"}]},{"name":"_sigs","type":"tuple[]","internalType":"struct Signature[]","components":[{"name":"v","type":"uint8","internalType":"uint8"},{"name":"r","type":"bytes32","internalType":"bytes32"},{"name":"s","type":"bytes32","internalType":"bytes32"}]}],"outputs":[],"stateMutability":"nonpayable"},{"type":"event","name":"ERC20DeployedEvent","inputs":[{"name":"_cosmosDenom","type":"string","indexed":false,"internalType":"string"},{"name":"_tokenContract","type":"address","indexed":true,"internalType":"address"},{"name":"_name","type":"string","indexed":false,"internalType":"string"},{"name":"_symbol","type":"string","indexed":false,"internalType":"string"},{"name":"_decimals","type":"uint8","indexed":false,"internalType":"uint8"},{"name":"_eventNonce","type":"uint256","indexed":false,"internalType":"uint256"}],"anonymous":false},{"type":"event","name":"LogicCallEvent","inputs":[{"name":"_invalidationId","type":"bytes32","indexed":false,"internalType":"bytes32"},{"name":"_invalidationNonce","type":"uint256","indexed":false,"internalType":"uint256"},{"name":"_returnData","type":"bytes","indexed":false,"internalType":"bytes"},{"name":"_eventNonce","type":"uint256","indexed":false,"internalType":"uint256"}],"anonymous":false},{"type":"event","name":"SendToNomicEvent","inputs":[{"name":"_tokenContract","type":"address","indexed":true,"internalType":"address"},{"name":"_sender","type":"address","indexed":true,"internalType":"address"},{"name":"_destination","type":"string","indexed":false,"internalType":"string"},{"name":"_amount","type":"uint256","indexed":false,"internalType":"uint256"},{"name":"_eventNonce","type":"uint256","indexed":false,"internalType":"uint256"}],"anonymous":false},{"type":"event","name":"TransactionBatchExecutedEvent","inputs":[{"name":"_batchNonce","type":"uint256","indexed":true,"internalType":"uint256"},{"name":"_token","type":"address","indexed":true,"internalType":"address"},{"name":"_eventNonce","type":"uint256","indexed":false,"internalType":"uint256"}],"anonymous":false},{"type":"event","name":"ValsetUpdatedEvent","inputs":[{"name":"_newValsetNonce","type":"uint256","indexed":true,"internalType":"uint256"},{"name":"_eventNonce","type":"uint256","indexed":false,"internalType":"uint256"},{"name":"_rewardAmount","type":"uint256","indexed":false,"internalType":"uint256"},{"name":"_rewardToken","type":"address","indexed":false,"internalType":"address"},{"name":"_validators","type":"address[]","indexed":false,"internalType":"address[]"},{"name":"_powers","type":"uint256[]","indexed":false,"internalType":"uint256[]"}],"anonymous":false},{"type":"error","name":"AddressEmptyCode","inputs":[{"name":"target","type":"address","internalType":"address"}]},{"type":"error","name":"AddressInsufficientBalance","inputs":[{"name":"account","type":"address","internalType":"address"}]},{"type":"error","name":"BatchTimedOut","inputs":[]},{"type":"error","name":"ECDSAInvalidSignature","inputs":[]},{"type":"error","name":"ECDSAInvalidSignatureLength","inputs":[{"name":"length","type":"uint256","internalType":"uint256"}]},{"type":"error","name":"ECDSAInvalidSignatureS","inputs":[{"name":"s","type":"bytes32","internalType":"bytes32"}]},{"type":"error","name":"FailedInnerCall","inputs":[]},{"type":"error","name":"IncorrectCheckpoint","inputs":[]},{"type":"error","name":"InsufficientPower","inputs":[{"name":"cumulativePower","type":"uint256","internalType":"uint256"},{"name":"powerThreshold","type":"uint256","internalType":"uint256"}]},{"type":"error","name":"InvalidBatchNonce","inputs":[{"name":"newNonce","type":"uint256","internalType":"uint256"},{"name":"currentNonce","type":"uint256","internalType":"uint256"}]},{"type":"error","name":"InvalidLogicCallFees","inputs":[]},{"type":"error","name":"InvalidLogicCallNonce","inputs":[{"name":"newNonce","type":"uint256","internalType":"uint256"},{"name":"currentNonce","type":"uint256","internalType":"uint256"}]},{"type":"error","name":"InvalidLogicCallTransfers","inputs":[]},{"type":"error","name":"InvalidSendToNomic","inputs":[]},{"type":"error","name":"InvalidSignature","inputs":[]},{"type":"error","name":"InvalidValsetNonce","inputs":[{"name":"newNonce","type":"uint256","internalType":"uint256"},{"name":"currentNonce","type":"uint256","internalType":"uint256"}]},{"type":"error","name":"LogicCallTimedOut","inputs":[]},{"type":"error","name":"MalformedBatch","inputs":[]},{"type":"error","name":"MalformedCurrentValidatorSet","inputs":[]},{"type":"error","name":"MalformedNewValidatorSet","inputs":[]},{"type":"error","name":"ReentrancyGuardReentrantCall","inputs":[]},{"type":"error","name":"SafeERC20FailedOperation","inputs":[{"name":"token","type":"address","internalType":"address"}]}],"bytecode":{"object":"0x60a060405260006004556001600555600060065534801561001f57600080fd5b50604051613f49380380613f4983398101604081905261003e91610321565b60016000558051825114158061005357508151155b156100715760405163c6617b7b60e01b815260040160405180910390fd5b6000805b82518110156100b857828181518110610090576100906103fb565b6020026020010151826100a39190610411565b915063aaaaaaaa82116100b857600101610075565b5063aaaaaaaa81116100ed5760405162bfb6ab60e01b81526004810182905263aaaaaaaa602482015260440160405180910390fd5b6101286040518060a001604052806060815260200160608152602001600081526020016000815260200160006001600160a01b031681525090565b506040805160a08101825284815260208101849052600091810182905260608101829052608081018290529061015d826101c4565b6001600160a01b038716608052600181905560045460055460405192935090917f76d08978c024a4bf8cbb30c67fd78fcaa1827cbc533e4e175f36d07e64ccf96a916101b19160009081908b908b906104af565b60405180910390a2505050505050610567565b6000806918da1958dadc1bda5b9d60b21b60001b9050600046308386604001518760000151886020015189606001518a6080015160405160200161020f9897969594939291906104fa565b60408051601f198184030181529190528051602090910120949350505050565b80516001600160a01b038116811461024657600080fd5b919050565b634e487b7160e01b600052604160045260246000fd5b604051601f8201601f191681016001600160401b03811182821017156102895761028961024b565b604052919050565b60006001600160401b038211156102aa576102aa61024b565b5060051b60200190565b600082601f8301126102c557600080fd5b81516102d86102d382610291565b610261565b8082825260208201915060208360051b8601019250858311156102fa57600080fd5b602085015b838110156103175780518352602092830192016102ff565b5095945050505050565b60008060006060848603121561033657600080fd5b61033f8461022f565b60208501519093506001600160401b0381111561035b57600080fd5b8401601f8101861361036c57600080fd5b805161037a6102d382610291565b8082825260208201915060208360051b85010192508883111561039c57600080fd5b6020840193505b828410156103c5576103b48461022f565b8252602093840193909101906103a3565b6040880151909550925050506001600160401b038111156103e557600080fd5b6103f1868287016102b4565b9150509250925092565b634e487b7160e01b600052603260045260246000fd5b8082018082111561043257634e487b7160e01b600052601160045260246000fd5b92915050565b600081518084526020840193506020830160005b828110156104735781516001600160a01b031686526020958601959091019060010161044c565b5093949350505050565b600081518084526020840193506020830160005b82811015610473578151865260209586019590910190600101610491565b85815284602082015260018060a01b038416604082015260a0606082015260006104dc60a0830185610438565b82810360808401526104ee818561047d565b98975050505050505050565b88815260018060a01b03881660208201528660408201528560608201526101006080820152600061052f610100830187610438565b82810360a0840152610541818761047d565b60c084019590955250506001600160a01b039190911660e0909101529695505050505050565b6080516139b9610590600039600081816102c4015281816105980152610c1201526139b96000f3fe608060405234801561001057600080fd5b50600436106101215760003560e01c8063aca6b1c1116100ad578063df97174b11610071578063df97174b1461029f578063eb00b2ef146102bf578063f2b53307146102e6578063f7955637146102ef578063fd79e9a51461030257600080fd5b8063aca6b1c11461020f578063b56561fe14610222578063c9d194d51461022b578063d2a8dbc71461024b578063daa9161b1461028c57600080fd5b806360ad5b38116100f457806360ad5b38146101a057806367240bc6146101c057806373b20547146101d35780637dfb6f86146101dc5780638690ff98146101fc57600080fd5b8063011b217414610126578063274975fa14610162578063374738d91461016b57806359ce5dde1461018b575b600080fd5b61014f610134366004611b4d565b6001600160a01b031660009081526002602052604090205490565b6040519081526020015b60405180910390f35b61014f60065481565b61017e610179366004611b68565b610315565b6040516101599190611bd1565b61019e610199366004611c2c565b6103af565b005b61014f6101ae366004611b68565b60086020526000908152604090205481565b61019e6101ce366004611c2c565b61058d565b61014f60055481565b61014f6101ea366004611b68565b60036020526000908152604090205481565b61019e61020a366004611d25565b610714565b61019e61021d366004611e52565b61099e565b61014f60045481565b61014f610239366004611b68565b60009081526003602052604090205490565b610274610259366004611b68565b6009602052600090815260409020546001600160a01b031681565b6040516001600160a01b039091168152602001610159565b61019e61029a366004611c2c565b610c07565b61014f6102ad366004611b4d565b60026020526000908152604090205481565b6102747f000000000000000000000000000000000000000000000000000000000000000081565b61014f60015481565b61019e6102fd366004611ef7565b610d85565b61019e6103103660046121a0565b610e21565b6007602052600090815260409020805461032e90612365565b80601f016020809104026020016040519081016040528092919081815260200182805461035a90612365565b80156103a75780601f1061037c576101008083540402835291602001916103a7565b820191906000526020600020905b81548152906001019060200180831161038a57829003601f168201915b505050505081565b6103b7611197565b6040516370a0823160e01b81523060048201526000906001600160a01b038616906370a0823190602401602060405180830381865afa1580156103fe573d6000803e3d6000fd5b505050506040513d601f19601f820116820180604052508101906104229190612399565b90506104396001600160a01b0386163330856111c1565b6040516370a0823160e01b81523060048201526000906001600160a01b038716906370a0823190602401602060405180830381865afa158015610480573d6000803e3d6000fd5b505050506040513d601f19601f820116820180604052508101906104a49190612399565b905060006104b283836123c8565b90508282116104d45760405163728614d360e01b815260040160405180910390fd5b6006546000818152600860209081526040808320859055600790915290206104fd878983612429565b50600081815260096020526040902080546001600160a01b0319163317905560065461052a9060016124e8565b600681905560405133916001600160a01b038b16917f58a3e95c14cd668e435fb5472910ea9157be6096f6a516c17f14aca4c55d748591610571918c918c91899190612524565b60405180910390a3505050506105876001600055565b50505050565b336001600160a01b037f000000000000000000000000000000000000000000000000000000000000000016146105f95760405162461bcd60e51b815260206004820152600c60248201526b155b985d5d1a1bdc9a5e995960a21b60448201526064015b60405180910390fd5b8115806106065750602382115b156106455760405162461bcd60e51b815260206004820152600f60248201526e496e76616c6964206164647265737360881b60448201526064016105f0565b6060600082121561066a57506040805180820190915260018152602d60f81b60208201525b600084848361068f6000871215610689576106848761254b565b611228565b86611228565b6040516020016106a29493929190612567565b60408051601f1981840301815290829052632ce72eef60e11b8252915030906359ce5dde906106da9089908590600090600401612610565b600060405180830381600087803b1580156106f457600080fd5b505af1158015610708573d6000803e3d6000fd5b50505050505050505050565b61071c611197565b6001600160a01b0382166000908152600260205260409020546107409060016124e8565b8314610784576001600160a01b0382166000908152600260205260409081902054905163f7f920ad60e01b81526105f0918591600401918252602082015260400190565b8043106107a4576040516308b9266360e11b815260040160405180910390fd5b6107af8c8c8c6112bb565b6001546107c36107be8e612644565b611311565b146107e15760405163723a340360e01b815260040160405180910390fd5b87861415806107f05750878414155b1561080e5760405163c1f97e3560e01b815260040160405180910390fd5b61086e8c8c8c46306f0e8e4c2dce6c2c6e8d2dedc84c2e8c6d60831b8f8f8f8f8f8f8f8f8f60405160200161084e9c9b9a99989796959493929190612753565b6040516020818303038152906040528051906020012063aaaaaaaa61137c565b6001600160a01b0382166000908152600260205260408120849055805b8981101561091d576108ef8989838181106108a8576108a86127da565b90506020020160208101906108bd9190611b4d565b8c8c848181106108cf576108cf6127da565b90506020020135866001600160a01b03166114a39092919063ffffffff16565b868682818110610901576109016127da565b905060200201358261091391906124e8565b915060010161088b565b506109326001600160a01b03841633836114a3565b506005546109419060016124e8565b60058190556040519081526001600160a01b0383169084907f02c7e81975f8edb86e2a0c038b7b86a49c744236abf0f6177ff5afc6986ab7089060200160405180910390a36109906001600055565b505050505050505050505050565b6109ad604084013560016124e8565b8460400135146109df576040805163e0e8edf360e01b81528186013560048201529084013560248201526044016105f0565b6109ec60208501856127f0565b90506109f885806127f0565b9050141580610a105750610a0c84806127f0565b1590505b15610a2e5760405163c01ba0ab60e01b815260040160405180910390fd5b610a398383836112bb565b6000805b610a4a60208701876127f0565b9050811015610a9757610a6060208701876127f0565b82818110610a7057610a706127da565b9050602002013582610a8291906124e8565b915063aaaaaaaa8211610a9757600101610a3d565b5063aaaaaaaa8111610ac85760405162bfb6ab60e01b81526004810182905263aaaaaaaa60248201526044016105f0565b600154610ad76107be86612644565b14610af55760405163723a340360e01b815260040160405180910390fd5b6000610b036107be87612644565b9050610b168585858463aaaaaaaa61137c565b600181905560408601356004556000610b3560a0880160808901611b4d565b6001600160a01b031614158015610b4f5750606086013515155b15610b7d57610b7d336060880135610b6d60a08a0160808b01611b4d565b6001600160a01b031691906114a3565b600554610b8b9060016124e8565b60058190556040870135907f76d08978c024a4bf8cbb30c67fd78fcaa1827cbc533e4e175f36d07e64ccf96a906060890135610bcd60a08b0160808c01611b4d565b610bd78b806127f0565b610be460208e018e6127f0565b604051610bf79796959493929190612839565b60405180910390a2505050505050565b336001600160a01b037f00000000000000000000000000000000000000000000000000000000000000001614610c6e5760405162461bcd60e51b815260206004820152600c60248201526b155b985d5d1a1bdc9a5e995960a21b60448201526064016105f0565b811580610c7b5750604082115b15610cb95760405162461bcd60e51b815260206004820152600e60248201526d125b9d985b1a59081cd8dc9a5c1d60921b60448201526064016105f0565b6000610cfa84848080601f0160208091040260200160405190810160405280939291908181526020018383808284376000920191909152506114d492505050565b610d0383611228565b604051602001610d14929190612888565b60408051601f1981840301815290829052632ce72eef60e11b8252915030906359ce5dde90610d4c9088908590600090600401612610565b600060405180830381600087803b158015610d6657600080fd5b505af1158015610d7a573d6000803e3d6000fd5b505050505050505050565b6000308686868686604051610d9990611b24565b610da89695949392919061291e565b604051809103906000f080158015610dc4573d6000803e3d6000fd5b509050806001600160a01b03167f82fe3a4fa49c6382d0c085746698ddbbafe6c2bf61285b19410644b5b26287c7898989898989896000604051610e0f98979695949392919061296d565b60405180910390a25050505050505050565b610e29611197565b8060e001514310610e4d5760405163bcf37c2560e01b815260040160405180910390fd5b61012081015161010082015160009081526003602052604090205410610eaa5761012081015161010082015160009081526003602052604090819020549051629427e960e11b8152600481019290925260248201526044016105f0565b610eb58484846112bb565b600154610ec46107be86612644565b14610ee25760405163723a340360e01b815260040160405180910390fd5b60208101515181515114610f0957604051634298a95160e11b815260040160405180910390fd5b80606001515181604001515114610f3357604051634829247960e01b815260040160405180910390fd5b60004630681b1bd9da58d0d85b1b60ba1b846000015185602001518660400151876060015188608001518960a001518a60e001518b61010001518c6101200151604051602001610f8e9c9b9a99989796959493929190612a31565b604051602081830303815290604052805190602001209050610fb78585858463aaaaaaaa61137c565b5061012081015161010082015160009081526003602052604080822092909255905181903090610feb908590602401612ae7565b60408051601f198184030181529181526020820180516001600160e01b031663fd79e9a560e01b179052516110209190612be3565b6000604051808303816000865af19150503d806000811461105d576040519150601f19603f3d011682016040523d82523d6000602084013e611062565b606091505b5091509150816110e05760005b8351518110156110de576110d684610140015185600001518381518110611098576110986127da565b6020026020010151866020015184815181106110b6576110b66127da565b60200260200101516001600160a01b03166114a39092919063ffffffff16565b60010161106f565b505b60005b83604001515181101561113057611128338560400151838151811061110a5761110a6127da565b6020026020010151866060015184815181106110b6576110b66127da565b6001016110e3565b5060055461113f9060016124e8565b60058190556101008401516101208501516040517f7c2bb24f8e1b3725cb613d7f11ef97d9745cc97a0e40f730621c052d684077a193611183939291869190612bff565b60405180910390a150506105876001600055565b6002600054036111ba57604051633ee5aeb560e01b815260040160405180910390fd5b6002600055565b6040516001600160a01b0384811660248301528381166044830152606482018390526105879186918216906323b872dd906084015b604051602081830303815290604052915060e01b6020820180516001600160e01b03838183161783525050505061166c565b60606000611235836116cf565b60010190506000816001600160401b0381111561125457611254611fab565b6040519080825280601f01601f19166020018201604052801561127e576020820181803683370190505b5090508181016020015b600019016f181899199a1a9b1b9c1cb0b131b232b360811b600a86061a8153600a8504945084611288575b509392505050565b6112c860208401846127f0565b90506112d484806127f0565b90501415806112ee5750806112e984806127f0565b905014155b1561130c5760405163c6617b7b60e01b815260040160405180910390fd5b505050565b6000806918da1958dadc1bda5b9d60b21b60001b9050600046308386604001518760000151886020015189606001518a6080015160405160200161135c989796959493929190612c45565b60408051601f198184030181529190528051602090910120949350505050565b6000805b61138a87806127f0565b9050811015611471578585828181106113a5576113a56127da565b6113bb9260206060909202019081019150612cb2565b60ff1615611469576114136113d088806127f0565b838181106113e0576113e06127da565b90506020020160208101906113f59190611b4d565b85888885818110611408576114086127da565b9050606002016117a8565b61143057604051638baa579f60e01b815260040160405180910390fd5b61143d60208801886127f0565b8281811061144d5761144d6127da565b905060200201358261145f91906124e8565b9150828211611471575b600101611380565b5081811161149b5760405162bfb6ab60e01b815260048101829052602481018390526044016105f0565b505050505050565b6040516001600160a01b0383811660248301526044820183905261130c91859182169063a9059cbb906064016111f6565b60606000825160026114e69190612ccd565b6001600160401b038111156114fd576114fd611fab565b6040519080825280601f01601f191660200182016040528015611527576020820181803683370190505b5060408051808201909152601081526f181899199a1a9b1b9c1cb0b131b232b360811b602082015290915060005b845181101561166357818251868381518110611573576115736127da565b0160200151611585919060f81c612ce4565b81518110611595576115956127da565b01602001516001600160f81b031916836115b0836002612ccd565b815181106115c0576115c06127da565b60200101906001600160f81b031916908160001a9053508182518683815181106115ec576115ec6127da565b01602001516115fe919060f81c612cf8565b8151811061160e5761160e6127da565b01602001516001600160f81b03191683611629836002612ccd565b6116349060016124e8565b81518110611644576116446127da565b60200101906001600160f81b031916908160001a905350600101611555565b50909392505050565b60006116816001600160a01b0384168361183a565b905080516000141580156116a65750808060200190518101906116a49190612d0c565b155b1561130c57604051635274afe760e01b81526001600160a01b03841660048201526024016105f0565b60008072184f03e93ff9f4daa797ed6e38ed64bf6a1f0160401b831061170e5772184f03e93ff9f4daa797ed6e38ed64bf6a1f0160401b830492506040015b6d04ee2d6d415b85acef8100000000831061173a576d04ee2d6d415b85acef8100000000830492506020015b662386f26fc10000831061175857662386f26fc10000830492506010015b6305f5e1008310611770576305f5e100830492506008015b612710831061178457612710830492506004015b60648310611796576064830492506002015b600a83106117a2576001015b92915050565b6040517f19457468657265756d205369676e6564204d6573736167653a0a3332000000006020820152603c81018390526000908190605c0160408051601f198184030181529190528051602091820120915061181b90829061180c90860186612cb2565b85602001358660400135611848565b6001600160a01b0316856001600160a01b0316149150505b9392505050565b606061183383836000611876565b60008060008061185a88888888611913565b92509250925061186a82826119e2565b50909695505050505050565b60608147101561189b5760405163cd78605960e01b81523060048201526024016105f0565b600080856001600160a01b031684866040516118b79190612be3565b60006040518083038185875af1925050503d80600081146118f4576040519150601f19603f3d011682016040523d82523d6000602084013e6118f9565b606091505b5091509150611909868383611a9f565b9695505050505050565b600080807f7fffffffffffffffffffffffffffffff5d576e7357a4501ddfe92f46681b20a084111561194e57506000915060039050826119d8565b604080516000808252602082018084528a905260ff891692820192909252606081018790526080810186905260019060a0016020604051602081039080840390855afa1580156119a2573d6000803e3d6000fd5b5050604051601f1901519150506001600160a01b0381166119ce575060009250600191508290506119d8565b9250600091508190505b9450945094915050565b60008260038111156119f6576119f6612d2e565b036119ff575050565b6001826003811115611a1357611a13612d2e565b03611a315760405163f645eedf60e01b815260040160405180910390fd5b6002826003811115611a4557611a45612d2e565b03611a665760405163fce698f760e01b8152600481018290526024016105f0565b6003826003811115611a7a57611a7a612d2e565b03611a9b576040516335e2f38360e21b8152600481018290526024016105f0565b5050565b606082611ab457611aaf82611afb565b611833565b8151158015611acb57506001600160a01b0384163b155b15611af457604051639996b31560e01b81526001600160a01b03851660048201526024016105f0565b5080611833565b805115611b0b5780518082602001fd5b604051630a12f52160e11b815260040160405180910390fd5b610c3f80612d4583390190565b80356001600160a01b0381168114611b4857600080fd5b919050565b600060208284031215611b5f57600080fd5b61183382611b31565b600060208284031215611b7a57600080fd5b5035919050565b60005b83811015611b9c578181015183820152602001611b84565b50506000910152565b60008151808452611bbd816020860160208601611b81565b601f01601f19169290920160200192915050565b6020815260006118336020830184611ba5565b60008083601f840112611bf657600080fd5b5081356001600160401b03811115611c0d57600080fd5b602083019150836020828501011115611c2557600080fd5b9250929050565b60008060008060608587031215611c4257600080fd5b611c4b85611b31565b935060208501356001600160401b03811115611c6657600080fd5b611c7287828801611be4565b9598909750949560400135949350505050565b600060a08284031215611c9757600080fd5b50919050565b60008083601f840112611caf57600080fd5b5081356001600160401b03811115611cc657600080fd5b602083019150836020606083028501011115611c2557600080fd5b60008083601f840112611cf357600080fd5b5081356001600160401b03811115611d0a57600080fd5b6020830191508360208260051b8501011115611c2557600080fd5b6000806000806000806000806000806000806101008d8f031215611d4857600080fd5b6001600160401b038d351115611d5d57600080fd5b611d6a8e8e358f01611c85565b9b506001600160401b0360208e01351115611d8457600080fd5b611d948e60208f01358f01611c9d565b909b5099506001600160401b0360408e01351115611db157600080fd5b611dc18e60408f01358f01611ce1565b90995097506001600160401b0360608e01351115611dde57600080fd5b611dee8e60608f01358f01611ce1565b90975095506001600160401b0360808e01351115611e0b57600080fd5b611e1b8e60808f01358f01611ce1565b909550935060a08d01359250611e3360c08e01611b31565b9150600060e08e01359050809150509295989b509295989b509295989b565b60008060008060608587031215611e6857600080fd5b84356001600160401b03811115611e7e57600080fd5b611e8a87828801611c85565b94505060208501356001600160401b03811115611ea657600080fd5b611eb287828801611c85565b93505060408501356001600160401b03811115611ece57600080fd5b611eda87828801611c9d565b95989497509550505050565b803560ff81168114611b4857600080fd5b60008060008060008060006080888a031215611f1257600080fd5b87356001600160401b03811115611f2857600080fd5b611f348a828b01611be4565b90985096505060208801356001600160401b03811115611f5357600080fd5b611f5f8a828b01611be4565b90965094505060408801356001600160401b03811115611f7e57600080fd5b611f8a8a828b01611be4565b9094509250611f9d905060608901611ee6565b905092959891949750929550565b634e487b7160e01b600052604160045260246000fd5b60405161016081016001600160401b0381118282101715611fe457611fe4611fab565b60405290565b60405160a081016001600160401b0381118282101715611fe457611fe4611fab565b604051601f8201601f191681016001600160401b038111828210171561203457612034611fab565b604052919050565b60006001600160401b0382111561205557612055611fab565b5060051b60200190565b600082601f83011261207057600080fd5b813561208361207e8261203c565b61200c565b8082825260208201915060208360051b8601019250858311156120a557600080fd5b602085015b838110156120c25780358352602092830192016120aa565b5095945050505050565b600082601f8301126120dd57600080fd5b81356120eb61207e8261203c565b8082825260208201915060208360051b86010192508583111561210d57600080fd5b602085015b838110156120c25761212381611b31565b835260209283019201612112565b600082601f83011261214257600080fd5b81356001600160401b0381111561215b5761215b611fab565b61216e601f8201601f191660200161200c565b81815284602083860101111561218357600080fd5b816020850160208301376000918101602001919091529392505050565b600080600080606085870312156121b657600080fd5b84356001600160401b038111156121cc57600080fd5b6121d887828801611c85565b94505060208501356001600160401b038111156121f457600080fd5b61220087828801611c9d565b90945092505060408501356001600160401b0381111561221f57600080fd5b8501610160818803121561223257600080fd5b61223a611fc1565b81356001600160401b0381111561225057600080fd5b61225c8982850161205f565b82525060208201356001600160401b0381111561227857600080fd5b612284898285016120cc565b60208301525060408201356001600160401b038111156122a357600080fd5b6122af8982850161205f565b60408301525060608201356001600160401b038111156122ce57600080fd5b6122da898285016120cc565b6060830152506122ec60808301611b31565b608082015260a08201356001600160401b0381111561230a57600080fd5b61231689828501612131565b60a08301525060c0828101359082015260e08083013590820152610100808301359082015261012080830135908201526123536101408301611b31565b61014082015294979396509194505050565b600181811c9082168061237957607f821691505b602082108103611c9757634e487b7160e01b600052602260045260246000fd5b6000602082840312156123ab57600080fd5b5051919050565b634e487b7160e01b600052601160045260246000fd5b818103818111156117a2576117a26123b2565b601f82111561130c57806000526020600020601f840160051c810160208510156124025750805b601f840160051c820191505b81811015612422576000815560010161240e565b5050505050565b6001600160401b0383111561244057612440611fab565b6124548361244e8354612365565b836123db565b6000601f84116001811461248857600085156124705750838201355b600019600387901b1c1916600186901b178355612422565b600083815260209020601f19861690835b828110156124b95786850135825560209485019460019092019101612499565b50868210156124d65760001960f88860031b161c19848701351681555b505060018560011b0183555050505050565b808201808211156117a2576117a26123b2565b81835281816020850137506000828201602090810191909152601f909101601f19169091010190565b6060815260006125386060830186886124fb565b6020830194909452506040015292915050565b6000600160ff1b8201612560576125606123b2565b5060000390565b7f7b2274797065223a2261646a757374456d657267656e63794469736275727361815271362130b630b731b29116113230ba30911d1160711b60208201528385603283013760008482016a11161130b6b7bab73a111d60a91b603282015284516125d881603d840160208901611b81565b60328183010191505083516125f481600b840160208801611b81565b607d60f81b9101600b810191909152600c019695505050505050565b6001600160a01b038416815260606020820181905260009061263490830185611ba5565b9050826040830152949350505050565b600060a0823603121561265657600080fd5b61265e611fea565b82356001600160401b0381111561267457600080fd5b612680368286016120cc565b82525060208301356001600160401b0381111561269c57600080fd5b6126a83682860161205f565b60208301525060408381013590820152606080840135908201526126ce60808401611b31565b608082015292915050565b81835260006001600160fb1b038311156126f257600080fd5b8260051b80836020870137939093016020019392505050565b81835260208301925060008160005b84811015612749576001600160a01b0361273383611b31565b168652602095860195919091019060010161271a565b5093949350505050565b8c815260018060a01b038c1660208201528a60408201526101206060820152600061278361012083018b8d6126d9565b8281036080840152612796818a8c61270b565b905082810360a08401526127ab81888a6126d9565b60c084019690965250506001600160a01b039290921660e0830152610100909101529998505050505050505050565b634e487b7160e01b600052603260045260246000fd5b6000808335601e1984360301811261280757600080fd5b8301803591506001600160401b0382111561282157600080fd5b6020019150600581901b3603821315611c2557600080fd5b87815286602082015260018060a01b038616604082015260a06060820152600061286760a08301868861270b565b828103608084015261287a8185876126d9565b9a9950505050505050505050565b7f7b2274797065223a22736574456d657267656e637944697362757273616c426181526e3630b731b29116113230ba30911d1160891b6020820152600083516128d881602f850160208801611b81565b6b1116113130b630b731b2911d60a11b602f91840191820152835161290481603b840160208801611b81565b607d60f81b603b9290910191820152603c01949350505050565b6001600160a01b038716815260806020820181905260009061294390830187896124fb565b82810360408401526129568186886124fb565b91505060ff83166060830152979650505050505050565b60a08152600061298160a083018a8c6124fb565b828103602084015261299481898b6124fb565b905082810360408401526129a98187896124fb565b60ff9590951660608401525050608001529695505050505050565b600081518084526020840193506020830160005b828110156127495781518652602095860195909101906001016129d8565b600081518084526020840193506020830160005b828110156127495781516001600160a01b0316865260209586019590910190600101612a0a565b8c81526001600160a01b038c1660208201528a604082015261018060608201526000612a6161018083018c6129c4565b8281036080840152612a73818c6129f6565b905082810360a0840152612a87818b6129c4565b905082810360c0840152612a9b818a6129f6565b6001600160a01b03891660e08501529050828103610100840152612abf8188611ba5565b6101208401969096525050610140810192909252610160909101529998505050505050505050565b60208152600082516101606020840152612b056101808401826129c4565b90506020840151601f19848303016040850152612b2282826129f6565b9150506040840151601f19848303016060850152612b4082826129c4565b9150506060840151601f19848303016080850152612b5e82826129f6565b9150506080840151612b7b60a08501826001600160a01b03169052565b5060a0840151838203601f190160c0850152612b978282611ba5565b91505060c084015160e084015260e08401516101008401526101008401516101208401526101208401516101408401526101408401516112b36101608501826001600160a01b03169052565b60008251612bf5818460208701611b81565b9190910192915050565b848152836020820152608060408201526000612c1e6080830185611ba5565b905082606083015295945050505050565b634e487b7160e01b600052601260045260246000fd5b88815260018060a01b038816602082015286604082015285606082015261010060808201526000612c7a6101008301876129f6565b82810360a0840152612c8c81876129c4565b60c084019590955250506001600160a01b039190911660e0909101529695505050505050565b600060208284031215612cc457600080fd5b61183382611ee6565b80820281158282048414176117a2576117a26123b2565b600082612cf357612cf3612c2f565b500490565b600082612d0757612d07612c2f565b500690565b600060208284031215612d1e57600080fd5b8151801515811461183357600080fd5b634e487b7160e01b600052602160045260246000fdfe608060405234801561001057600080fd5b50604051610c3f380380610c3f83398101604081905261002f916102aa565b8282600361003d83826103d4565b50600461004a82826103d4565b5050600580546001600160a01b038716610100026001600160a81b031990911660ff8516171790555061007f84600019610088565b505050506104b9565b6001600160a01b0382166100b75760405163ec442f0560e01b8152600060048201526024015b60405180910390fd5b6100c3600083836100c7565b5050565b6001600160a01b0383166100f25780600260008282546100e79190610492565b909155506101649050565b6001600160a01b038316600090815260208190526040902054818110156101455760405163391434e360e21b81526001600160a01b038516600482015260248101829052604481018390526064016100ae565b6001600160a01b03841660009081526020819052604090209082900390555b6001600160a01b0382166101805760028054829003905561019f565b6001600160a01b03821660009081526020819052604090208054820190555b816001600160a01b0316836001600160a01b03167fddf252ad1be2c89b69c2b068fc378daa952ba7f163c4a11628f55a4df523b3ef836040516101e491815260200190565b60405180910390a3505050565b634e487b7160e01b600052604160045260246000fd5b600082601f83011261021857600080fd5b81516001600160401b03811115610231576102316101f1565b604051601f8201601f19908116603f011681016001600160401b038111828210171561025f5761025f6101f1565b60405281815283820160200185101561027757600080fd5b60005b828110156102965760208186018101518383018201520161027a565b506000918101602001919091529392505050565b600080600080608085870312156102c057600080fd5b84516001600160a01b03811681146102d757600080fd5b60208601519094506001600160401b038111156102f357600080fd5b6102ff87828801610207565b604087015190945090506001600160401b0381111561031d57600080fd5b61032987828801610207565b925050606085015160ff8116811461034057600080fd5b939692955090935050565b600181811c9082168061035f57607f821691505b60208210810361037f57634e487b7160e01b600052602260045260246000fd5b50919050565b601f8211156103cf57806000526020600020601f840160051c810160208510156103ac5750805b601f840160051c820191505b818110156103cc57600081556001016103b8565b50505b505050565b81516001600160401b038111156103ed576103ed6101f1565b610401816103fb845461034b565b84610385565b6020601f821160018114610435576000831561041d5750848201515b600019600385901b1c1916600184901b1784556103cc565b600084815260208120601f198516915b828110156104655787850151825560209485019460019092019101610445565b50848210156104835786840151600019600387901b60f8161c191681555b50505050600190811b01905550565b808201808211156104b357634e487b7160e01b600052601160045260246000fd5b92915050565b610777806104c86000396000f3fe608060405234801561001057600080fd5b50600436106100935760003560e01c8063313ce56711610066578063313ce5671461010257806370a082311461011757806395d89b4114610140578063a9059cbb14610148578063dd62ed3e1461015b57600080fd5b806306fdde0314610098578063095ea7b3146100b657806318160ddd146100d957806323b872dd146100ef575b600080fd5b6100a0610194565b6040516100ad91906105a5565b60405180910390f35b6100c96100c436600461060f565b610226565b60405190151581526020016100ad565b6100e1610240565b6040519081526020016100ad565b6100c96100fd366004610639565b610271565b60055460405160ff90911681526020016100ad565b6100e1610125366004610676565b6001600160a01b031660009081526020819052604090205490565b6100a0610295565b6100c961015636600461060f565b6102a4565b6100e1610169366004610698565b6001600160a01b03918216600090815260016020908152604080832093909416825291909152205490565b6060600380546101a3906106cb565b80601f01602080910402602001604051908101604052809291908181526020018280546101cf906106cb565b801561021c5780601f106101f15761010080835404028352916020019161021c565b820191906000526020600020905b8154815290600101906020018083116101ff57829003601f168201915b5050505050905090565b6000336102348185856102b2565b60019150505b92915050565b60055461010090046001600160a01b031660009081526020819052604081205461026c9060001961071b565b905090565b60003361027f8582856102c4565b61028a858585610347565b506001949350505050565b6060600480546101a3906106cb565b600033610234818585610347565b6102bf83838360016103a6565b505050565b6001600160a01b038381166000908152600160209081526040808320938616835292905220546000198114610341578181101561033257604051637dc7a0d960e11b81526001600160a01b038416600482015260248101829052604481018390526064015b60405180910390fd5b610341848484840360006103a6565b50505050565b6001600160a01b03831661037157604051634b637e8f60e11b815260006004820152602401610329565b6001600160a01b03821661039b5760405163ec442f0560e01b815260006004820152602401610329565b6102bf83838361047b565b6001600160a01b0384166103d05760405163e602df0560e01b815260006004820152602401610329565b6001600160a01b0383166103fa57604051634a1406b160e11b815260006004820152602401610329565b6001600160a01b038085166000908152600160209081526040808320938716835292905220829055801561034157826001600160a01b0316846001600160a01b03167f8c5be1e5ebec7d5bd14f71427d1e84f3dd0314c0f7b2291e5b200ac8c7c3b9258460405161046d91815260200190565b60405180910390a350505050565b6001600160a01b0383166104a657806002600082825461049b919061072e565b909155506105189050565b6001600160a01b038316600090815260208190526040902054818110156104f95760405163391434e360e21b81526001600160a01b03851660048201526024810182905260448101839052606401610329565b6001600160a01b03841660009081526020819052604090209082900390555b6001600160a01b03821661053457600280548290039055610553565b6001600160a01b03821660009081526020819052604090208054820190555b816001600160a01b0316836001600160a01b03167fddf252ad1be2c89b69c2b068fc378daa952ba7f163c4a11628f55a4df523b3ef8360405161059891815260200190565b60405180910390a3505050565b602081526000825180602084015260005b818110156105d357602081860181015160408684010152016105b6565b506000604082850101526040601f19601f83011684010191505092915050565b80356001600160a01b038116811461060a57600080fd5b919050565b6000806040838503121561062257600080fd5b61062b836105f3565b946020939093013593505050565b60008060006060848603121561064e57600080fd5b610657846105f3565b9250610665602085016105f3565b929592945050506040919091013590565b60006020828403121561068857600080fd5b610691826105f3565b9392505050565b600080604083850312156106ab57600080fd5b6106b4836105f3565b91506106c2602084016105f3565b90509250929050565b600181811c908216806106df57607f821691505b6020821081036106ff57634e487b7160e01b600052602260045260246000fd5b50919050565b634e487b7160e01b600052601160045260246000fd5b8181038181111561023a5761023a610705565b8082018082111561023a5761023a61070556fea264697066735822122024c79efa80d76fa77ae6b1ca389ed0fdae409820955e53b98e9246aa7ec3ca6164736f6c634300081a0033a264697066735822122011e80ed03472ec3669aab8070eab23f58619ea2307fbc2fc3d16f0266007e10f64736f6c634300081a0033","linkReferences":{}},"methodIdentifiers":{"adjustEmergencyDisbursalBalance(address,string,int256)":"67240bc6","deployERC20(string,string,string,uint8)":"f7955637","lastBatchNonce(address)":"011b2174","lastLogicCallNonce(bytes32)":"c9d194d5","sendToNomic(address,string,uint256)":"59ce5dde","setEmergencyDisbursalBalance(address,bytes,uint256)":"daa9161b","state_invalidationMapping(bytes32)":"7dfb6f86","state_lastBatchNonces(address)":"df97174b","state_lastEventNonce()":"73b20547","state_lastReturnNonce()":"274975fa","state_lastValsetCheckpoint()":"f2b53307","state_lastValsetNonce()":"b56561fe","state_owner()":"eb00b2ef","state_returnAmounts(uint256)":"60ad5b38","state_returnDests(uint256)":"374738d9","state_returnSenders(uint256)":"d2a8dbc7","submitBatch((address[],uint256[],uint256,uint256,address),(uint8,bytes32,bytes32)[],uint256[],address[],uint256[],uint256,address,uint256)":"8690ff98","submitLogicCall((address[],uint256[],uint256,uint256,address),(uint8,bytes32,bytes32)[],(uint256[],address[],uint256[],address[],address,bytes,uint256,uint256,bytes32,uint256,address))":"fd79e9a5","updateValset((address[],uint256[],uint256,uint256,address),(address[],uint256[],uint256,uint256,address),(uint8,bytes32,bytes32)[])":"aca6b1c1"},"id":2}