{"abi":[{"type":"constructor","inputs":[{"name":"_gravityId","type":"bytes32","internalType":"bytes32"},{"name":"_validators","type":"address[]","internalType":"address[]"},{"name":"_powers","type":"uint256[]","internalType":"uint256[]"}],"stateMutability":"nonpayable"},{"type":"function","name":"deployERC20","inputs":[{"name":"_cosmosDenom","type":"string","internalType":"string"},{"name":"_name","type":"string","internalType":"string"},{"name":"_symbol","type":"string","internalType":"string"},{"name":"_decimals","type":"uint8","internalType":"uint8"}],"outputs":[],"stateMutability":"nonpayable"},{"type":"function","name":"lastBatchNonce","inputs":[{"name":"_erc20Address","type":"address","internalType":"address"}],"outputs":[{"name":"","type":"uint256","internalType":"uint256"}],"stateMutability":"view"},{"type":"function","name":"lastLogicCallNonce","inputs":[{"name":"_invalidation_id","type":"bytes32","internalType":"bytes32"}],"outputs":[{"name":"","type":"uint256","internalType":"uint256"}],"stateMutability":"view"},{"type":"function","name":"sendToNomic","inputs":[{"name":"_tokenContract","type":"address","internalType":"address"},{"name":"_destination","type":"string","internalType":"string"},{"name":"_amount","type":"uint256","internalType":"uint256"}],"outputs":[],"stateMutability":"nonpayable"},{"type":"function","name":"state_gravityId","inputs":[],"outputs":[{"name":"","type":"bytes32","internalType":"bytes32"}],"stateMutability":"view"},{"type":"function","name":"state_invalidationMapping","inputs":[{"name":"","type":"bytes32","internalType":"bytes32"}],"outputs":[{"name":"","type":"uint256","internalType":"uint256"}],"stateMutability":"view"},{"type":"function","name":"state_lastBatchNonces","inputs":[{"name":"","type":"address","internalType":"address"}],"outputs":[{"name":"","type":"uint256","internalType":"uint256"}],"stateMutability":"view"},{"type":"function","name":"state_lastEventNonce","inputs":[],"outputs":[{"name":"","type":"uint256","internalType":"uint256"}],"stateMutability":"view"},{"type":"function","name":"state_lastReturnNonce","inputs":[],"outputs":[{"name":"","type":"uint256","internalType":"uint256"}],"stateMutability":"view"},{"type":"function","name":"state_lastValsetCheckpoint","inputs":[],"outputs":[{"name":"","type":"bytes32","internalType":"bytes32"}],"stateMutability":"view"},{"type":"function","name":"state_lastValsetNonce","inputs":[],"outputs":[{"name":"","type":"uint256","internalType":"uint256"}],"stateMutability":"view"},{"type":"function","name":"state_returnAmounts","inputs":[{"name":"","type":"uint256","internalType":"uint256"}],"outputs":[{"name":"","type":"uint256","internalType":"uint256"}],"stateMutability":"view"},{"type":"function","name":"state_returnDests","inputs":[{"name":"","type":"uint256","internalType":"uint256"}],"outputs":[{"name":"","type":"string","internalType":"string"}],"stateMutability":"view"},{"type":"function","name":"state_returnSenders","inputs":[{"name":"","type":"uint256","internalType":"uint256"}],"outputs":[{"name":"","type":"address","internalType":"address"}],"stateMutability":"view"},{"type":"function","name":"submitBatch","inputs":[{"name":"_currentValset","type":"tuple","internalType":"struct ValsetArgs","components":[{"name":"validators","type":"address[]","internalType":"address[]"},{"name":"powers","type":"uint256[]","internalType":"uint256[]"},{"name":"valsetNonce","type":"uint256","internalType":"uint256"},{"name":"rewardAmount","type":"uint256","internalType":"uint256"},{"name":"rewardToken","type":"address","internalType":"address"}]},{"name":"_sigs","type":"tuple[]","internalType":"struct Signature[]","components":[{"name":"v","type":"uint8","internalType":"uint8"},{"name":"r","type":"bytes32","internalType":"bytes32"},{"name":"s","type":"bytes32","internalType":"bytes32"}]},{"name":"_amounts","type":"uint256[]","internalType":"uint256[]"},{"name":"_destinations","type":"address[]","internalType":"address[]"},{"name":"_fees","type":"uint256[]","internalType":"uint256[]"},{"name":"_batchNonce","type":"uint256","internalType":"uint256"},{"name":"_tokenContract","type":"address","internalType":"address"},{"name":"_batchTimeout","type":"uint256","internalType":"uint256"}],"outputs":[],"stateMutability":"nonpayable"},{"type":"function","name":"submitLogicCall","inputs":[{"name":"_currentValset","type":"tuple","internalType":"struct ValsetArgs","components":[{"name":"validators","type":"address[]","internalType":"address[]"},{"name":"powers","type":"uint256[]","internalType":"uint256[]"},{"name":"valsetNonce","type":"uint256","internalType":"uint256"},{"name":"rewardAmount","type":"uint256","internalType":"uint256"},{"name":"rewardToken","type":"address","internalType":"address"}]},{"name":"_sigs","type":"tuple[]","internalType":"struct Signature[]","components":[{"name":"v","type":"uint8","internalType":"uint8"},{"name":"r","type":"bytes32","internalType":"bytes32"},{"name":"s","type":"bytes32","internalType":"bytes32"}]},{"name":"_args","type":"tuple","internalType":"struct LogicCallArgs","components":[{"name":"transferAmounts","type":"uint256[]","internalType":"uint256[]"},{"name":"transferTokenContracts","type":"address[]","internalType":"address[]"},{"name":"feeAmounts","type":"uint256[]","internalType":"uint256[]"},{"name":"feeTokenContracts","type":"address[]","internalType":"address[]"},{"name":"logicContractAddress","type":"address","internalType":"address"},{"name":"payload","type":"bytes","internalType":"bytes"},{"name":"maxGas","type":"uint256","internalType":"uint256"},{"name":"timeOut","type":"uint256","internalType":"uint256"},{"name":"invalidationId","type":"bytes32","internalType":"bytes32"},{"name":"invalidationNonce","type":"uint256","internalType":"uint256"}]}],"outputs":[],"stateMutability":"nonpayable"},{"type":"function","name":"testCheckValidatorSignatures","inputs":[{"name":"_currentValset","type":"tuple","internalType":"struct ValsetArgs","components":[{"name":"validators","type":"address[]","internalType":"address[]"},{"name":"powers","type":"uint256[]","internalType":"uint256[]"},{"name":"valsetNonce","type":"uint256","internalType":"uint256"},{"name":"rewardAmount","type":"uint256","internalType":"uint256"},{"name":"rewardToken","type":"address","internalType":"address"}]},{"name":"_sigs","type":"tuple[]","internalType":"struct Signature[]","components":[{"name":"v","type":"uint8","internalType":"uint8"},{"name":"r","type":"bytes32","internalType":"bytes32"},{"name":"s","type":"bytes32","internalType":"bytes32"}]},{"name":"_theHash","type":"bytes32","internalType":"bytes32"},{"name":"_powerThreshold","type":"uint256","internalType":"uint256"}],"outputs":[],"stateMutability":"pure"},{"type":"function","name":"testMakeCheckpoint","inputs":[{"name":"_valsetArgs","type":"tuple","internalType":"struct ValsetArgs","components":[{"name":"validators","type":"address[]","internalType":"address[]"},{"name":"powers","type":"uint256[]","internalType":"uint256[]"},{"name":"valsetNonce","type":"uint256","internalType":"uint256"},{"name":"rewardAmount","type":"uint256","internalType":"uint256"},{"name":"rewardToken","type":"address","internalType":"address"}]},{"name":"_gravityId","type":"bytes32","internalType":"bytes32"}],"outputs":[],"stateMutability":"pure"},{"type":"function","name":"updateValset","inputs":[{"name":"_newValset","type":"tuple","internalType":"struct ValsetArgs","components":[{"name":"validators","type":"address[]","internalType":"address[]"},{"name":"powers","type":"uint256[]","internalType":"uint256[]"},{"name":"valsetNonce","type":"uint256","internalType":"uint256"},{"name":"rewardAmount","type":"uint256","internalType":"uint256"},{"name":"rewardToken","type":"address","internalType":"address"}]},{"name":"_currentValset","type":"tuple","internalType":"struct ValsetArgs","components":[{"name":"validators","type":"address[]","internalType":"address[]"},{"name":"powers","type":"uint256[]","internalType":"uint256[]"},{"name":"valsetNonce","type":"uint256","internalType":"uint256"},{"name":"rewardAmount","type":"uint256","internalType":"uint256"},{"name":"rewardToken","type":"address","internalType":"address"}]},{"name":"_sigs","type":"tuple[]","internalType":"struct Signature[]","components":[{"name":"v","type":"uint8","internalType":"uint8"},{"name":"r","type":"bytes32","internalType":"bytes32"},{"name":"s","type":"bytes32","internalType":"bytes32"}]}],"outputs":[],"stateMutability":"nonpayable"},{"type":"event","name":"ERC20DeployedEvent","inputs":[{"name":"_cosmosDenom","type":"string","indexed":false,"internalType":"string"},{"name":"_tokenContract","type":"address","indexed":true,"internalType":"address"},{"name":"_name","type":"string","indexed":false,"internalType":"string"},{"name":"_symbol","type":"string","indexed":false,"internalType":"string"},{"name":"_decimals","type":"uint8","indexed":false,"internalType":"uint8"},{"name":"_eventNonce","type":"uint256","indexed":false,"internalType":"uint256"}],"anonymous":false},{"type":"event","name":"LogicCallEvent","inputs":[{"name":"_invalidationId","type":"bytes32","indexed":false,"internalType":"bytes32"},{"name":"_invalidationNonce","type":"uint256","indexed":false,"internalType":"uint256"},{"name":"_returnData","type":"bytes","indexed":false,"internalType":"bytes"},{"name":"_eventNonce","type":"uint256","indexed":false,"internalType":"uint256"}],"anonymous":false},{"type":"event","name":"SendToNomicEvent","inputs":[{"name":"_tokenContract","type":"address","indexed":true,"internalType":"address"},{"name":"_sender","type":"address","indexed":true,"internalType":"address"},{"name":"_destination","type":"string","indexed":false,"internalType":"string"},{"name":"_amount","type":"uint256","indexed":false,"internalType":"uint256"},{"name":"_eventNonce","type":"uint256","indexed":false,"internalType":"uint256"}],"anonymous":false},{"type":"event","name":"TransactionBatchExecutedEvent","inputs":[{"name":"_batchNonce","type":"uint256","indexed":true,"internalType":"uint256"},{"name":"_token","type":"address","indexed":true,"internalType":"address"},{"name":"_eventNonce","type":"uint256","indexed":false,"internalType":"uint256"}],"anonymous":false},{"type":"event","name":"ValsetUpdatedEvent","inputs":[{"name":"_newValsetNonce","type":"uint256","indexed":true,"internalType":"uint256"},{"name":"_eventNonce","type":"uint256","indexed":false,"internalType":"uint256"},{"name":"_rewardAmount","type":"uint256","indexed":false,"internalType":"uint256"},{"name":"_rewardToken","type":"address","indexed":false,"internalType":"address"},{"name":"_validators","type":"address[]","indexed":false,"internalType":"address[]"},{"name":"_powers","type":"uint256[]","indexed":false,"internalType":"uint256[]"}],"anonymous":false},{"type":"error","name":"AddressEmptyCode","inputs":[{"name":"target","type":"address","internalType":"address"}]},{"type":"error","name":"AddressInsufficientBalance","inputs":[{"name":"account","type":"address","internalType":"address"}]},{"type":"error","name":"BatchTimedOut","inputs":[]},{"type":"error","name":"ECDSAInvalidSignature","inputs":[]},{"type":"error","name":"ECDSAInvalidSignatureLength","inputs":[{"name":"length","type":"uint256","internalType":"uint256"}]},{"type":"error","name":"ECDSAInvalidSignatureS","inputs":[{"name":"s","type":"bytes32","internalType":"bytes32"}]},{"type":"error","name":"FailedInnerCall","inputs":[]},{"type":"error","name":"IncorrectCheckpoint","inputs":[]},{"type":"error","name":"InsufficientPower","inputs":[{"name":"cumulativePower","type":"uint256","internalType":"uint256"},{"name":"powerThreshold","type":"uint256","internalType":"uint256"}]},{"type":"error","name":"InvalidBatchNonce","inputs":[{"name":"newNonce","type":"uint256","internalType":"uint256"},{"name":"currentNonce","type":"uint256","internalType":"uint256"}]},{"type":"error","name":"InvalidLogicCallFees","inputs":[]},{"type":"error","name":"InvalidLogicCallNonce","inputs":[{"name":"newNonce","type":"uint256","internalType":"uint256"},{"name":"currentNonce","type":"uint256","internalType":"uint256"}]},{"type":"error","name":"InvalidLogicCallTransfers","inputs":[]},{"type":"error","name":"InvalidSendToNomic","inputs":[]},{"type":"error","name":"InvalidSignature","inputs":[]},{"type":"error","name":"InvalidValsetNonce","inputs":[{"name":"newNonce","type":"uint256","internalType":"uint256"},{"name":"currentNonce","type":"uint256","internalType":"uint256"}]},{"type":"error","name":"LogicCallTimedOut","inputs":[]},{"type":"error","name":"MalformedBatch","inputs":[]},{"type":"error","name":"MalformedCurrentValidatorSet","inputs":[]},{"type":"error","name":"MalformedNewValidatorSet","inputs":[]},{"type":"error","name":"ReentrancyGuardReentrantCall","inputs":[]},{"type":"error","name":"SafeERC20FailedOperation","inputs":[{"name":"token","type":"address","internalType":"address"}]}],"bytecode":{"object":"0x60a060405260006004556001600555600060065534801561001f57600080fd5b5060405161373738038061373783398101604081905261003e916102ff565b60016000558051825114158061005357508151155b156100715760405163c6617b7b60e01b815260040160405180910390fd5b6000805b82518110156100b857828181518110610090576100906103e0565b6020026020010151826100a391906103f6565b915063aaaaaaaa82116100b857600101610075565b5063aaaaaaaa81116100ed5760405162bfb6ab60e01b81526004810182905263aaaaaaaa602482015260440160405180910390fd5b6101286040518060a001604052806060815260200160608152602001600081526020016000815260200160006001600160a01b031681525090565b506040805160a08101825284815260208101849052600091810182905260608101829052608081018290529061015e82876101bd565b6080879052600181905560045460055460405192935090917f76d08978c024a4bf8cbb30c67fd78fcaa1827cbc533e4e175f36d07e64ccf96a916101aa9160009081908b908b9061048e565b60405180910390a2505050505050610535565b6000806918da1958dadc1bda5b9d60b21b60001b90506000838286604001518760000151886020015189606001518a6080015160405160200161020697969594939291906104d9565b60408051601f198184030181529190528051602090910120925050505b92915050565b634e487b7160e01b600052604160045260246000fd5b604051601f8201601f191681016001600160401b038111828210171561026757610267610229565b604052919050565b60006001600160401b0382111561028857610288610229565b5060051b60200190565b600082601f8301126102a357600080fd5b81516102b66102b18261026f565b61023f565b8082825260208201915060208360051b8601019250858311156102d857600080fd5b602085015b838110156102f55780518352602092830192016102dd565b5095945050505050565b60008060006060848603121561031457600080fd5b835160208501519093506001600160401b0381111561033257600080fd5b8401601f8101861361034357600080fd5b80516103516102b18261026f565b8082825260208201915060208360051b85010192508883111561037357600080fd5b6020840193505b828410156103aa5783516001600160a01b038116811461039957600080fd5b82526020938401939091019061037a565b6040880151909550925050506001600160401b038111156103ca57600080fd5b6103d686828701610292565b9150509250925092565b634e487b7160e01b600052603260045260246000fd5b8082018082111561022357634e487b7160e01b600052601160045260246000fd5b600081518084526020840193506020830160005b828110156104525781516001600160a01b031686526020958601959091019060010161042b565b5093949350505050565b600081518084526020840193506020830160005b82811015610452578151865260209586019590910190600101610470565b85815284602082015260018060a01b038416604082015260a0606082015260006104bb60a0830185610417565b82810360808401526104cd818561045c565b98975050505050505050565b87815286602082015285604082015260e0606082015260006104fe60e0830187610417565b8281036080840152610510818761045c565b60a084019590955250506001600160a01b039190911660c09091015295945050505050565b6080516131d2610565600039600081816102420152818161066c015281816106e30152610ca401526131d26000f3fe608060405234801561001057600080fd5b50600436106101205760003560e01c80638690ff98116100ad578063d2a8dbc711610071578063d2a8dbc714610284578063df97174b146102c5578063f2b53307146102e5578063f7955637146102ee578063fbec316a1461030157600080fd5b80638690ff981461020e578063aca6b1c114610221578063b56561fe14610234578063bdda81d41461023d578063c9d194d51461026457600080fd5b8063374738d9116100f4578063374738d91461019257806359ce5dde146101b257806360ad5b38146101c557806373b20547146101e55780637dfb6f86146101ee57600080fd5b806290115314610125578063010315251461013a578063011b21741461014d578063274975fa14610189575b600080fd5b610138610133366004611615565b610314565b005b610138610148366004611693565b610328565b61017661015b3660046116f3565b6001600160a01b031660009081526002602052604090205490565b6040519081526020015b60405180910390f35b61017660065481565b6101a56101a036600461170e565b61033f565b6040516101809190611777565b6101386101c03660046117cb565b6103d9565b6101766101d336600461170e565b60086020526000908152604090205481565b61017660055481565b6101766101fc36600461170e565b60036020526000908152604090205481565b61013861021c366004611868565b6105b7565b61013861022f366004611995565b610889565b61017660045481565b6101767f000000000000000000000000000000000000000000000000000000000000000081565b61017661027236600461170e565b60009081526003602052604090205490565b6102ad61029236600461170e565b6009602052600090815260409020546001600160a01b031681565b6040516001600160a01b039091168152602001610180565b6101766102d33660046116f3565b60026020526000908152604090205481565b61017660015481565b6101386102fc366004611a3a565b610af2565b61013861030f366004611ce3565b610b8e565b6103218585858585610f20565b5050505050565b61033a61033483611e97565b82611047565b505050565b6007602052600090815260409020805461035890611f2c565b80601f016020809104026020016040519081016040528092919081815260200182805461038490611f2c565b80156103d15780601f106103a6576101008083540402835291602001916103d1565b820191906000526020600020905b8154815290600101906020018083116103b457829003601f168201915b505050505081565b6103e16110b3565b6040516370a0823160e01b81523060048201526000906001600160a01b038616906370a0823190602401602060405180830381865afa158015610428573d6000803e3d6000fd5b505050506040513d601f19601f8201168201806040525081019061044c9190611f60565b90506104636001600160a01b0386163330856110dd565b6040516370a0823160e01b81523060048201526000906001600160a01b038716906370a0823190602401602060405180830381865afa1580156104aa573d6000803e3d6000fd5b505050506040513d601f19601f820116820180604052508101906104ce9190611f60565b905060006104dc8383611f8f565b90508282116104fe5760405163728614d360e01b815260040160405180910390fd5b600654600081815260086020908152604080832085905560079091529020610527878983611fe9565b50600081815260096020526040902080546001600160a01b031916331790556006546105549060016120a8565b600681905560405133916001600160a01b038b16917f58a3e95c14cd668e435fb5472910ea9157be6096f6a516c17f14aca4c55d74859161059b918c918c918991906120e4565b60405180910390a3505050506105b16001600055565b50505050565b6105bf6110b3565b6001600160a01b0382166000908152600260205260409020546105e39060016120a8565b8314610630576001600160a01b0382166000908152600260205260409081902054905163f7f920ad60e01b8152610627918591600401918252602082015260400190565b60405180910390fd5b804310610650576040516308b9266360e11b815260040160405180910390fd5b61065b8c8c8c611144565b60015461069061066a8e611e97565b7f0000000000000000000000000000000000000000000000000000000000000000611047565b146106ae5760405163723a340360e01b815260040160405180910390fd5b87861415806106bd5750878414155b156106db5760405163c1f97e3560e01b815260040160405180910390fd5b6107598c8c8c7f00000000000000000000000000000000000000000000000000000000000000006f0e8e4c2dce6c2c6e8d2dedc84c2e8c6d60831b8e8e8e8e8e8e8e8e8e6040516020016107399b9a99989796959493929190612185565b6040516020818303038152906040528051906020012063aaaaaaaa610f20565b6001600160a01b0382166000908152600260205260408120849055805b89811015610808576107da898983818110610793576107936121fc565b90506020020160208101906107a891906116f3565b8c8c848181106107ba576107ba6121fc565b90506020020135866001600160a01b03166111959092919063ffffffff16565b8686828181106107ec576107ec6121fc565b90506020020135826107fe91906120a8565b9150600101610776565b5061081d6001600160a01b0384163383611195565b5060055461082c9060016120a8565b60058190556040519081526001600160a01b0383169084907f02c7e81975f8edb86e2a0c038b7b86a49c744236abf0f6177ff5afc6986ab7089060200160405180910390a361087b6001600055565b505050505050505050505050565b610898604084013560016120a8565b8460400135146108ca576040805163e0e8edf360e01b8152818601356004820152908401356024820152604401610627565b6108d76020850185612212565b90506108e38580612212565b90501415806108fb57506108f78480612212565b1590505b156109195760405163c01ba0ab60e01b815260040160405180910390fd5b610924838383611144565b6000805b6109356020870187612212565b90508110156109825761094b6020870187612212565b8281811061095b5761095b6121fc565b905060200201358261096d91906120a8565b915063aaaaaaaa821161098257600101610928565b5063aaaaaaaa81116109b35760405162bfb6ab60e01b81526004810182905263aaaaaaaa6024820152604401610627565b6001546109c261066a86611e97565b146109e05760405163723a340360e01b815260040160405180910390fd5b60006109ee61066a87611e97565b9050610a018585858463aaaaaaaa610f20565b600181905560408601356004556000610a2060a08801608089016116f3565b6001600160a01b031614158015610a3a5750606086013515155b15610a6857610a68336060880135610a5860a08a0160808b016116f3565b6001600160a01b03169190611195565b600554610a769060016120a8565b60058190556040870135907f76d08978c024a4bf8cbb30c67fd78fcaa1827cbc533e4e175f36d07e64ccf96a906060890135610ab860a08b0160808c016116f3565b610ac28b80612212565b610acf60208e018e612212565b604051610ae2979695949392919061225b565b60405180910390a2505050505050565b6000308686868686604051610b06906115a5565b610b15969594939291906122aa565b604051809103906000f080158015610b31573d6000803e3d6000fd5b509050806001600160a01b03167f82fe3a4fa49c6382d0c085746698ddbbafe6c2bf61285b19410644b5b26287c7898989898989896000604051610b7c9897969594939291906122f9565b60405180910390a25050505050505050565b610b966110b3565b8060e001514310610bba5760405163bcf37c2560e01b815260040160405180910390fd5b61012081015161010082015160009081526003602052604090205410610c175761012081015161010082015160009081526003602052604090819020549051629427e960e11b815260048101929092526024820152604401610627565b610c22848484611144565b600154610c3161066a86611e97565b14610c4f5760405163723a340360e01b815260040160405180910390fd5b60208101515181515114610c7657604051634298a95160e11b815260040160405180910390fd5b80606001515181604001515114610ca057604051634829247960e01b815260040160405180910390fd5b60007f0000000000000000000000000000000000000000000000000000000000000000681b1bd9da58d0d85b1b60ba1b836000015184602001518560400151866060015187608001518860a001518960e001518a61010001518b6101200151604051602001610d199b9a999897969594939291906123bd565b604051602081830303815290604052805190602001209050610d428585858463aaaaaaaa610f20565b506101208101516101008201516000908152600360205260408120919091555b815151811015610dd057610dc8826080015183600001518381518110610d8a57610d8a6121fc565b602002602001015184602001518481518110610da857610da86121fc565b60200260200101516001600160a01b03166111959092919063ffffffff16565b600101610d62565b5060006060600083608001516001600160a01b03163b1115610df55760009150610e69565b60008084608001516001600160a01b03168560c001518660a00151604051610e1d9190612462565b60006040518083038160008787f1925050503d8060008114610e5b576040519150601f19603f3d011682016040523d82523d6000602084013e610e60565b606091505b50909450925050505b60005b836040015151811015610eb957610eb13385604001518381518110610e9357610e936121fc565b602002602001015186606001518481518110610da857610da86121fc565b600101610e6c565b50600554610ec89060016120a8565b60058190556101008401516101208501516040517f7c2bb24f8e1b3725cb613d7f11ef97d9745cc97a0e40f730621c052d684077a193610f0c93929186919061247e565b60405180910390a150506105b16001600055565b6000805b610f2e8780612212565b905081101561101557858582818110610f4957610f496121fc565b610f5f92602060609092020190810191506124ae565b60ff161561100d57610fb7610f748880612212565b83818110610f8457610f846121fc565b9050602002016020810190610f9991906116f3565b85888885818110610fac57610fac6121fc565b9050606002016111c6565b610fd457604051638baa579f60e01b815260040160405180910390fd5b610fe16020880188612212565b82818110610ff157610ff16121fc565b905060200201358261100391906120a8565b9150828211611015575b600101610f24565b5081811161103f5760405162bfb6ab60e01b81526004810182905260248101839052604401610627565b505050505050565b6000806918da1958dadc1bda5b9d60b21b60001b90506000838286604001518760000151886020015189606001518a6080015160405160200161109097969594939291906124c9565b60408051601f198184030181529190528051602090910120925050505b92915050565b6002600054036110d657604051633ee5aeb560e01b815260040160405180910390fd5b6002600055565b6040516001600160a01b0384811660248301528381166044830152606482018390526105b19186918216906323b872dd906084015b604051602081830303815290604052915060e01b6020820180516001600160e01b038381831617835250505050611258565b6111516020840184612212565b905061115d8480612212565b90501415806111775750806111728480612212565b905014155b1561033a5760405163c6617b7b60e01b815260040160405180910390fd5b6040516001600160a01b0383811660248301526044820183905261033a91859182169063a9059cbb90606401611112565b6040517f19457468657265756d205369676e6564204d6573736167653a0a3332000000006020820152603c81018390526000908190605c0160408051601f198184030181529190528051602091820120915061123990829061122a908601866124ae565b856020013586604001356112bb565b6001600160a01b0316856001600160a01b0316149150505b9392505050565b600061126d6001600160a01b038416836112e9565b905080516000141580156112925750808060200190518101906112909190612525565b155b1561033a57604051635274afe760e01b81526001600160a01b0384166004820152602401610627565b6000806000806112cd888888886112f7565b9250925092506112dd82826113c6565b50909695505050505050565b606061125183836000611483565b600080807f7fffffffffffffffffffffffffffffff5d576e7357a4501ddfe92f46681b20a084111561133257506000915060039050826113bc565b604080516000808252602082018084528a905260ff891692820192909252606081018790526080810186905260019060a0016020604051602081039080840390855afa158015611386573d6000803e3d6000fd5b5050604051601f1901519150506001600160a01b0381166113b2575060009250600191508290506113bc565b9250600091508190505b9450945094915050565b60008260038111156113da576113da612547565b036113e3575050565b60018260038111156113f7576113f7612547565b036114155760405163f645eedf60e01b815260040160405180910390fd5b600282600381111561142957611429612547565b0361144a5760405163fce698f760e01b815260048101829052602401610627565b600382600381111561145e5761145e612547565b0361147f576040516335e2f38360e21b815260048101829052602401610627565b5050565b6060814710156114a85760405163cd78605960e01b8152306004820152602401610627565b600080856001600160a01b031684866040516114c49190612462565b60006040518083038185875af1925050503d8060008114611501576040519150601f19603f3d011682016040523d82523d6000602084013e611506565b606091505b5091509150611516868383611520565b9695505050505050565b606082611535576115308261157c565b611251565b815115801561154c57506001600160a01b0384163b155b1561157557604051639996b31560e01b81526001600160a01b0385166004820152602401610627565b5080611251565b80511561158c5780518082602001fd5b604051630a12f52160e11b815260040160405180910390fd5b610c3f8061255e83390190565b600060a082840312156115c457600080fd5b50919050565b60008083601f8401126115dc57600080fd5b5081356001600160401b038111156115f357600080fd5b60208301915083602060608302850101111561160e57600080fd5b9250929050565b60008060008060006080868803121561162d57600080fd5b85356001600160401b0381111561164357600080fd5b61164f888289016115b2565b95505060208601356001600160401b0381111561166b57600080fd5b611677888289016115ca565b9699909850959660408101359660609091013595509350505050565b600080604083850312156116a657600080fd5b82356001600160401b038111156116bc57600080fd5b6116c8858286016115b2565b95602094909401359450505050565b80356001600160a01b03811681146116ee57600080fd5b919050565b60006020828403121561170557600080fd5b611251826116d7565b60006020828403121561172057600080fd5b5035919050565b60005b8381101561174257818101518382015260200161172a565b50506000910152565b60008151808452611763816020860160208601611727565b601f01601f19169290920160200192915050565b602081526000611251602083018461174b565b60008083601f84011261179c57600080fd5b5081356001600160401b038111156117b357600080fd5b60208301915083602082850101111561160e57600080fd5b600080600080606085870312156117e157600080fd5b6117ea856116d7565b935060208501356001600160401b0381111561180557600080fd5b6118118782880161178a565b9598909750949560400135949350505050565b60008083601f84011261183657600080fd5b5081356001600160401b0381111561184d57600080fd5b6020830191508360208260051b850101111561160e57600080fd5b6000806000806000806000806000806000806101008d8f03121561188b57600080fd5b6001600160401b038d3511156118a057600080fd5b6118ad8e8e358f016115b2565b9b506001600160401b0360208e013511156118c757600080fd5b6118d78e60208f01358f016115ca565b909b5099506001600160401b0360408e013511156118f457600080fd5b6119048e60408f01358f01611824565b90995097506001600160401b0360608e0135111561192157600080fd5b6119318e60608f01358f01611824565b90975095506001600160401b0360808e0135111561194e57600080fd5b61195e8e60808f01358f01611824565b909550935060a08d0135925061197660c08e016116d7565b9150600060e08e01359050809150509295989b509295989b509295989b565b600080600080606085870312156119ab57600080fd5b84356001600160401b038111156119c157600080fd5b6119cd878288016115b2565b94505060208501356001600160401b038111156119e957600080fd5b6119f5878288016115b2565b93505060408501356001600160401b03811115611a1157600080fd5b611a1d878288016115ca565b95989497509550505050565b803560ff811681146116ee57600080fd5b60008060008060008060006080888a031215611a5557600080fd5b87356001600160401b03811115611a6b57600080fd5b611a778a828b0161178a565b90985096505060208801356001600160401b03811115611a9657600080fd5b611aa28a828b0161178a565b90965094505060408801356001600160401b03811115611ac157600080fd5b611acd8a828b0161178a565b9094509250611ae0905060608901611a29565b905092959891949750929550565b634e487b7160e01b600052604160045260246000fd5b60405161014081016001600160401b0381118282101715611b2757611b27611aee565b60405290565b60405160a081016001600160401b0381118282101715611b2757611b27611aee565b604051601f8201601f191681016001600160401b0381118282101715611b7757611b77611aee565b604052919050565b60006001600160401b03821115611b9857611b98611aee565b5060051b60200190565b600082601f830112611bb357600080fd5b8135611bc6611bc182611b7f565b611b4f565b8082825260208201915060208360051b860101925085831115611be857600080fd5b602085015b83811015611c05578035835260209283019201611bed565b5095945050505050565b600082601f830112611c2057600080fd5b8135611c2e611bc182611b7f565b8082825260208201915060208360051b860101925085831115611c5057600080fd5b602085015b83811015611c0557611c66816116d7565b835260209283019201611c55565b600082601f830112611c8557600080fd5b81356001600160401b03811115611c9e57611c9e611aee565b611cb1601f8201601f1916602001611b4f565b818152846020838601011115611cc657600080fd5b816020850160208301376000918101602001919091529392505050565b60008060008060608587031215611cf957600080fd5b84356001600160401b03811115611d0f57600080fd5b611d1b878288016115b2565b94505060208501356001600160401b03811115611d3757600080fd5b611d43878288016115ca565b90945092505060408501356001600160401b03811115611d6257600080fd5b85016101408188031215611d7557600080fd5b611d7d611b04565b81356001600160401b03811115611d9357600080fd5b611d9f89828501611ba2565b82525060208201356001600160401b03811115611dbb57600080fd5b611dc789828501611c0f565b60208301525060408201356001600160401b03811115611de657600080fd5b611df289828501611ba2565b60408301525060608201356001600160401b03811115611e1157600080fd5b611e1d89828501611c0f565b606083015250611e2f608083016116d7565b608082015260a08201356001600160401b03811115611e4d57600080fd5b611e5989828501611c74565b60a08301525060c0828101359082015260e0808301359082015261010080830135908201526101209182013591810191909152939692955090935050565b600060a08236031215611ea957600080fd5b611eb1611b2d565b82356001600160401b03811115611ec757600080fd5b611ed336828601611c0f565b82525060208301356001600160401b03811115611eef57600080fd5b611efb36828601611ba2565b6020830152506040838101359082015260608084013590820152611f21608084016116d7565b608082015292915050565b600181811c90821680611f4057607f821691505b6020821081036115c457634e487b7160e01b600052602260045260246000fd5b600060208284031215611f7257600080fd5b5051919050565b634e487b7160e01b600052601160045260246000fd5b818103818111156110ad576110ad611f79565b601f82111561033a57806000526020600020601f840160051c81016020851015611fc95750805b601f840160051c820191505b818110156103215760008155600101611fd5565b6001600160401b0383111561200057612000611aee565b6120148361200e8354611f2c565b83611fa2565b6000601f84116001811461204857600085156120305750838201355b600019600387901b1c1916600186901b178355610321565b600083815260209020601f19861690835b828110156120795786850135825560209485019460019092019101612059565b50868210156120965760001960f88860031b161c19848701351681555b505060018560011b0183555050505050565b808201808211156110ad576110ad611f79565b81835281816020850137506000828201602090810191909152601f909101601f19169091010190565b6060815260006120f86060830186886120bb565b6020830194909452506040015292915050565b81835260006001600160fb1b0383111561212457600080fd5b8260051b80836020870137939093016020019392505050565b81835260208301925060008160005b8481101561217b576001600160a01b03612165836116d7565b168652602095860195919091019060010161214c565b5093949350505050565b8b81528a6020820152610100604082015260006121a761010083018b8d61210b565b82810360608401526121ba818a8c61213d565b905082810360808401526121cf81888a61210b565b60a084019690965250506001600160a01b039290921660c083015260e09091015298975050505050505050565b634e487b7160e01b600052603260045260246000fd5b6000808335601e1984360301811261222957600080fd5b8301803591506001600160401b0382111561224357600080fd5b6020019150600581901b360382131561160e57600080fd5b87815286602082015260018060a01b038616604082015260a06060820152600061228960a08301868861213d565b828103608084015261229c81858761210b565b9a9950505050505050505050565b6001600160a01b03871681526080602082018190526000906122cf90830187896120bb565b82810360408401526122e28186886120bb565b91505060ff83166060830152979650505050505050565b60a08152600061230d60a083018a8c6120bb565b828103602084015261232081898b6120bb565b905082810360408401526123358187896120bb565b60ff9590951660608401525050608001529695505050505050565b600081518084526020840193506020830160005b8281101561217b578151865260209586019590910190600101612364565b600081518084526020840193506020830160005b8281101561217b5781516001600160a01b0316865260209586019590910190600101612396565b8b81528a6020820152610160604082015260006123de61016083018c612350565b82810360608401526123f0818c612382565b90508281036080840152612404818b612350565b905082810360a0840152612418818a612382565b6001600160a01b03891660c085015283810360e0850152905061243b818861174b565b61010084019690965250506101208101929092526101409091015298975050505050505050565b60008251612474818460208701611727565b9190910192915050565b84815283602082015260806040820152600061249d608083018561174b565b905082606083015295945050505050565b6000602082840312156124c057600080fd5b61125182611a29565b87815286602082015285604082015260e0606082015260006124ee60e0830187612382565b82810360808401526125008187612350565b60a084019590955250506001600160a01b039190911660c09091015295945050505050565b60006020828403121561253757600080fd5b8151801515811461125157600080fd5b634e487b7160e01b600052602160045260246000fdfe608060405234801561001057600080fd5b50604051610c3f380380610c3f83398101604081905261002f916102aa565b8282600361003d83826103d4565b50600461004a82826103d4565b5050600580546001600160a01b038716610100026001600160a81b031990911660ff8516171790555061007f84600019610088565b505050506104b9565b6001600160a01b0382166100b75760405163ec442f0560e01b8152600060048201526024015b60405180910390fd5b6100c3600083836100c7565b5050565b6001600160a01b0383166100f25780600260008282546100e79190610492565b909155506101649050565b6001600160a01b038316600090815260208190526040902054818110156101455760405163391434e360e21b81526001600160a01b038516600482015260248101829052604481018390526064016100ae565b6001600160a01b03841660009081526020819052604090209082900390555b6001600160a01b0382166101805760028054829003905561019f565b6001600160a01b03821660009081526020819052604090208054820190555b816001600160a01b0316836001600160a01b03167fddf252ad1be2c89b69c2b068fc378daa952ba7f163c4a11628f55a4df523b3ef836040516101e491815260200190565b60405180910390a3505050565b634e487b7160e01b600052604160045260246000fd5b600082601f83011261021857600080fd5b81516001600160401b03811115610231576102316101f1565b604051601f8201601f19908116603f011681016001600160401b038111828210171561025f5761025f6101f1565b60405281815283820160200185101561027757600080fd5b60005b828110156102965760208186018101518383018201520161027a565b506000918101602001919091529392505050565b600080600080608085870312156102c057600080fd5b84516001600160a01b03811681146102d757600080fd5b60208601519094506001600160401b038111156102f357600080fd5b6102ff87828801610207565b604087015190945090506001600160401b0381111561031d57600080fd5b61032987828801610207565b925050606085015160ff8116811461034057600080fd5b939692955090935050565b600181811c9082168061035f57607f821691505b60208210810361037f57634e487b7160e01b600052602260045260246000fd5b50919050565b601f8211156103cf57806000526020600020601f840160051c810160208510156103ac5750805b601f840160051c820191505b818110156103cc57600081556001016103b8565b50505b505050565b81516001600160401b038111156103ed576103ed6101f1565b610401816103fb845461034b565b84610385565b6020601f821160018114610435576000831561041d5750848201515b600019600385901b1c1916600184901b1784556103cc565b600084815260208120601f198516915b828110156104655787850151825560209485019460019092019101610445565b50848210156104835786840151600019600387901b60f8161c191681555b50505050600190811b01905550565b808201808211156104b357634e487b7160e01b600052601160045260246000fd5b92915050565b610777806104c86000396000f3fe608060405234801561001057600080fd5b50600436106100935760003560e01c8063313ce56711610066578063313ce5671461010257806370a082311461011757806395d89b4114610140578063a9059cbb14610148578063dd62ed3e1461015b57600080fd5b806306fdde0314610098578063095ea7b3146100b657806318160ddd146100d957806323b872dd146100ef575b600080fd5b6100a0610194565b6040516100ad91906105a5565b60405180910390f35b6100c96100c436600461060f565b610226565b60405190151581526020016100ad565b6100e1610240565b6040519081526020016100ad565b6100c96100fd366004610639565b610271565b60055460405160ff90911681526020016100ad565b6100e1610125366004610676565b6001600160a01b031660009081526020819052604090205490565b6100a0610295565b6100c961015636600461060f565b6102a4565b6100e1610169366004610698565b6001600160a01b03918216600090815260016020908152604080832093909416825291909152205490565b6060600380546101a3906106cb565b80601f01602080910402602001604051908101604052809291908181526020018280546101cf906106cb565b801561021c5780601f106101f15761010080835404028352916020019161021c565b820191906000526020600020905b8154815290600101906020018083116101ff57829003601f168201915b5050505050905090565b6000336102348185856102b2565b60019150505b92915050565b60055461010090046001600160a01b031660009081526020819052604081205461026c9060001961071b565b905090565b60003361027f8582856102c4565b61028a858585610347565b506001949350505050565b6060600480546101a3906106cb565b600033610234818585610347565b6102bf83838360016103a6565b505050565b6001600160a01b038381166000908152600160209081526040808320938616835292905220546000198114610341578181101561033257604051637dc7a0d960e11b81526001600160a01b038416600482015260248101829052604481018390526064015b60405180910390fd5b610341848484840360006103a6565b50505050565b6001600160a01b03831661037157604051634b637e8f60e11b815260006004820152602401610329565b6001600160a01b03821661039b5760405163ec442f0560e01b815260006004820152602401610329565b6102bf83838361047b565b6001600160a01b0384166103d05760405163e602df0560e01b815260006004820152602401610329565b6001600160a01b0383166103fa57604051634a1406b160e11b815260006004820152602401610329565b6001600160a01b038085166000908152600160209081526040808320938716835292905220829055801561034157826001600160a01b0316846001600160a01b03167f8c5be1e5ebec7d5bd14f71427d1e84f3dd0314c0f7b2291e5b200ac8c7c3b9258460405161046d91815260200190565b60405180910390a350505050565b6001600160a01b0383166104a657806002600082825461049b919061072e565b909155506105189050565b6001600160a01b038316600090815260208190526040902054818110156104f95760405163391434e360e21b81526001600160a01b03851660048201526024810182905260448101839052606401610329565b6001600160a01b03841660009081526020819052604090209082900390555b6001600160a01b03821661053457600280548290039055610553565b6001600160a01b03821660009081526020819052604090208054820190555b816001600160a01b0316836001600160a01b03167fddf252ad1be2c89b69c2b068fc378daa952ba7f163c4a11628f55a4df523b3ef8360405161059891815260200190565b60405180910390a3505050565b602081526000825180602084015260005b818110156105d357602081860181015160408684010152016105b6565b506000604082850101526040601f19601f83011684010191505092915050565b80356001600160a01b038116811461060a57600080fd5b919050565b6000806040838503121561062257600080fd5b61062b836105f3565b946020939093013593505050565b60008060006060848603121561064e57600080fd5b610657846105f3565b9250610665602085016105f3565b929592945050506040919091013590565b60006020828403121561068857600080fd5b610691826105f3565b9392505050565b600080604083850312156106ab57600080fd5b6106b4836105f3565b91506106c2602084016105f3565b90509250929050565b600181811c908216806106df57607f821691505b6020821081036106ff57634e487b7160e01b600052602260045260246000fd5b50919050565b634e487b7160e01b600052601160045260246000fd5b8181038181111561023a5761023a610705565b8082018082111561023a5761023a61070556fea264697066735822122024c79efa80d76fa77ae6b1ca389ed0fdae409820955e53b98e9246aa7ec3ca6164736f6c634300081a0033a26469706673582212204500f82a668111e80d1e7a499aebb0c328818290ea989599dd2cdff51261aed964736f6c634300081a0033","linkReferences":{}},"methodIdentifiers":{"deployERC20(string,string,string,uint8)":"f7955637","lastBatchNonce(address)":"011b2174","lastLogicCallNonce(bytes32)":"c9d194d5","sendToNomic(address,string,uint256)":"59ce5dde","state_gravityId()":"bdda81d4","state_invalidationMapping(bytes32)":"7dfb6f86","state_lastBatchNonces(address)":"df97174b","state_lastEventNonce()":"73b20547","state_lastReturnNonce()":"274975fa","state_lastValsetCheckpoint()":"f2b53307","state_lastValsetNonce()":"b56561fe","state_returnAmounts(uint256)":"60ad5b38","state_returnDests(uint256)":"374738d9","state_returnSenders(uint256)":"d2a8dbc7","submitBatch((address[],uint256[],uint256,uint256,address),(uint8,bytes32,bytes32)[],uint256[],address[],uint256[],uint256,address,uint256)":"8690ff98","submitLogicCall((address[],uint256[],uint256,uint256,address),(uint8,bytes32,bytes32)[],(uint256[],address[],uint256[],address[],address,bytes,uint256,uint256,bytes32,uint256))":"fbec316a","testCheckValidatorSignatures((address[],uint256[],uint256,uint256,address),(uint8,bytes32,bytes32)[],bytes32,uint256)":"00901153","testMakeCheckpoint((address[],uint256[],uint256,uint256,address),bytes32)":"01031525","updateValset((address[],uint256[],uint256,uint256,address),(address[],uint256[],uint256,uint256,address),(uint8,bytes32,bytes32)[])":"aca6b1c1"},"id":2}