{"abi":[{"type":"constructor","inputs":[{"name":"_gravityId","type":"bytes32","internalType":"bytes32"},{"name":"_validators","type":"address[]","internalType":"address[]"},{"name":"_powers","type":"uint256[]","internalType":"uint256[]"}],"stateMutability":"nonpayable"},{"type":"function","name":"deployERC20","inputs":[{"name":"_cosmosDenom","type":"string","internalType":"string"},{"name":"_name","type":"string","internalType":"string"},{"name":"_symbol","type":"string","internalType":"string"},{"name":"_decimals","type":"uint8","internalType":"uint8"}],"outputs":[],"stateMutability":"nonpayable"},{"type":"function","name":"lastBatchNonce","inputs":[{"name":"_erc20Address","type":"address","internalType":"address"}],"outputs":[{"name":"","type":"uint256","internalType":"uint256"}],"stateMutability":"view"},{"type":"function","name":"lastLogicCallNonce","inputs":[{"name":"_invalidation_id","type":"bytes32","internalType":"bytes32"}],"outputs":[{"name":"","type":"uint256","internalType":"uint256"}],"stateMutability":"view"},{"type":"function","name":"sendToNomic","inputs":[{"name":"_tokenContract","type":"address","internalType":"address"},{"name":"_destination","type":"string","internalType":"string"},{"name":"_amount","type":"uint256","internalType":"uint256"}],"outputs":[],"stateMutability":"nonpayable"},{"type":"function","name":"state_gravityId","inputs":[],"outputs":[{"name":"","type":"bytes32","internalType":"bytes32"}],"stateMutability":"view"},{"type":"function","name":"state_invalidationMapping","inputs":[{"name":"","type":"bytes32","internalType":"bytes32"}],"outputs":[{"name":"","type":"uint256","internalType":"uint256"}],"stateMutability":"view"},{"type":"function","name":"state_lastBatchNonces","inputs":[{"name":"","type":"address","internalType":"address"}],"outputs":[{"name":"","type":"uint256","internalType":"uint256"}],"stateMutability":"view"},{"type":"function","name":"state_lastEventNonce","inputs":[],"outputs":[{"name":"","type":"uint256","internalType":"uint256"}],"stateMutability":"view"},{"type":"function","name":"state_lastReturnNonce","inputs":[],"outputs":[{"name":"","type":"uint256","internalType":"uint256"}],"stateMutability":"view"},{"type":"function","name":"state_lastValsetCheckpoint","inputs":[],"outputs":[{"name":"","type":"bytes32","internalType":"bytes32"}],"stateMutability":"view"},{"type":"function","name":"state_lastValsetNonce","inputs":[],"outputs":[{"name":"","type":"uint256","internalType":"uint256"}],"stateMutability":"view"},{"type":"function","name":"state_returnAmounts","inputs":[{"name":"","type":"uint256","internalType":"uint256"}],"outputs":[{"name":"","type":"uint256","internalType":"uint256"}],"stateMutability":"view"},{"type":"function","name":"state_returnDests","inputs":[{"name":"","type":"uint256","internalType":"uint256"}],"outputs":[{"name":"","type":"string","internalType":"string"}],"stateMutability":"view"},{"type":"function","name":"state_returnSenders","inputs":[{"name":"","type":"uint256","internalType":"uint256"}],"outputs":[{"name":"","type":"address","internalType":"address"}],"stateMutability":"view"},{"type":"function","name":"submitBatch","inputs":[{"name":"_currentValset","type":"tuple","internalType":"struct ValsetArgs","components":[{"name":"validators","type":"address[]","internalType":"address[]"},{"name":"powers","type":"uint256[]","internalType":"uint256[]"},{"name":"valsetNonce","type":"uint256","internalType":"uint256"},{"name":"rewardAmount","type":"uint256","internalType":"uint256"},{"name":"rewardToken","type":"address","internalType":"address"}]},{"name":"_sigs","type":"tuple[]","internalType":"struct Signature[]","components":[{"name":"v","type":"uint8","internalType":"uint8"},{"name":"r","type":"bytes32","internalType":"bytes32"},{"name":"s","type":"bytes32","internalType":"bytes32"}]},{"name":"_amounts","type":"uint256[]","internalType":"uint256[]"},{"name":"_destinations","type":"address[]","internalType":"address[]"},{"name":"_fees","type":"uint256[]","internalType":"uint256[]"},{"name":"_batchNonce","type":"uint256","internalType":"uint256"},{"name":"_tokenContract","type":"address","internalType":"address"},{"name":"_batchTimeout","type":"uint256","internalType":"uint256"}],"outputs":[],"stateMutability":"nonpayable"},{"type":"function","name":"submitLogicCall","inputs":[{"name":"_currentValset","type":"tuple","internalType":"struct ValsetArgs","components":[{"name":"validators","type":"address[]","internalType":"address[]"},{"name":"powers","type":"uint256[]","internalType":"uint256[]"},{"name":"valsetNonce","type":"uint256","internalType":"uint256"},{"name":"rewardAmount","type":"uint256","internalType":"uint256"},{"name":"rewardToken","type":"address","internalType":"address"}]},{"name":"_sigs","type":"tuple[]","internalType":"struct Signature[]","components":[{"name":"v","type":"uint8","internalType":"uint8"},{"name":"r","type":"bytes32","internalType":"bytes32"},{"name":"s","type":"bytes32","internalType":"bytes32"}]},{"name":"_args","type":"tuple","internalType":"struct LogicCallArgs","components":[{"name":"transferAmounts","type":"uint256[]","internalType":"uint256[]"},{"name":"transferTokenContracts","type":"address[]","internalType":"address[]"},{"name":"feeAmounts","type":"uint256[]","internalType":"uint256[]"},{"name":"feeTokenContracts","type":"address[]","internalType":"address[]"},{"name":"logicContractAddress","type":"address","internalType":"address"},{"name":"payload","type":"bytes","internalType":"bytes"},{"name":"timeOut","type":"uint256","internalType":"uint256"},{"name":"invalidationId","type":"bytes32","internalType":"bytes32"},{"name":"invalidationNonce","type":"uint256","internalType":"uint256"}]}],"outputs":[],"stateMutability":"nonpayable"},{"type":"function","name":"testCheckValidatorSignatures","inputs":[{"name":"_currentValset","type":"tuple","internalType":"struct ValsetArgs","components":[{"name":"validators","type":"address[]","internalType":"address[]"},{"name":"powers","type":"uint256[]","internalType":"uint256[]"},{"name":"valsetNonce","type":"uint256","internalType":"uint256"},{"name":"rewardAmount","type":"uint256","internalType":"uint256"},{"name":"rewardToken","type":"address","internalType":"address"}]},{"name":"_sigs","type":"tuple[]","internalType":"struct Signature[]","components":[{"name":"v","type":"uint8","internalType":"uint8"},{"name":"r","type":"bytes32","internalType":"bytes32"},{"name":"s","type":"bytes32","internalType":"bytes32"}]},{"name":"_theHash","type":"bytes32","internalType":"bytes32"},{"name":"_powerThreshold","type":"uint256","internalType":"uint256"}],"outputs":[],"stateMutability":"pure"},{"type":"function","name":"testMakeCheckpoint","inputs":[{"name":"_valsetArgs","type":"tuple","internalType":"struct ValsetArgs","components":[{"name":"validators","type":"address[]","internalType":"address[]"},{"name":"powers","type":"uint256[]","internalType":"uint256[]"},{"name":"valsetNonce","type":"uint256","internalType":"uint256"},{"name":"rewardAmount","type":"uint256","internalType":"uint256"},{"name":"rewardToken","type":"address","internalType":"address"}]},{"name":"_gravityId","type":"bytes32","internalType":"bytes32"}],"outputs":[],"stateMutability":"pure"},{"type":"function","name":"updateValset","inputs":[{"name":"_newValset","type":"tuple","internalType":"struct ValsetArgs","components":[{"name":"validators","type":"address[]","internalType":"address[]"},{"name":"powers","type":"uint256[]","internalType":"uint256[]"},{"name":"valsetNonce","type":"uint256","internalType":"uint256"},{"name":"rewardAmount","type":"uint256","internalType":"uint256"},{"name":"rewardToken","type":"address","internalType":"address"}]},{"name":"_currentValset","type":"tuple","internalType":"struct ValsetArgs","components":[{"name":"validators","type":"address[]","internalType":"address[]"},{"name":"powers","type":"uint256[]","internalType":"uint256[]"},{"name":"valsetNonce","type":"uint256","internalType":"uint256"},{"name":"rewardAmount","type":"uint256","internalType":"uint256"},{"name":"rewardToken","type":"address","internalType":"address"}]},{"name":"_sigs","type":"tuple[]","internalType":"struct Signature[]","components":[{"name":"v","type":"uint8","internalType":"uint8"},{"name":"r","type":"bytes32","internalType":"bytes32"},{"name":"s","type":"bytes32","internalType":"bytes32"}]}],"outputs":[],"stateMutability":"nonpayable"},{"type":"event","name":"ERC20DeployedEvent","inputs":[{"name":"_cosmosDenom","type":"string","indexed":false,"internalType":"string"},{"name":"_tokenContract","type":"address","indexed":true,"internalType":"address"},{"name":"_name","type":"string","indexed":false,"internalType":"string"},{"name":"_symbol","type":"string","indexed":false,"internalType":"string"},{"name":"_decimals","type":"uint8","indexed":false,"internalType":"uint8"},{"name":"_eventNonce","type":"uint256","indexed":false,"internalType":"uint256"}],"anonymous":false},{"type":"event","name":"LogicCallEvent","inputs":[{"name":"_invalidationId","type":"bytes32","indexed":false,"internalType":"bytes32"},{"name":"_invalidationNonce","type":"uint256","indexed":false,"internalType":"uint256"},{"name":"_returnData","type":"bytes","indexed":false,"internalType":"bytes"},{"name":"_eventNonce","type":"uint256","indexed":false,"internalType":"uint256"}],"anonymous":false},{"type":"event","name":"SendToNomicEvent","inputs":[{"name":"_tokenContract","type":"address","indexed":true,"internalType":"address"},{"name":"_sender","type":"address","indexed":true,"internalType":"address"},{"name":"_destination","type":"string","indexed":false,"internalType":"string"},{"name":"_amount","type":"uint256","indexed":false,"internalType":"uint256"},{"name":"_eventNonce","type":"uint256","indexed":false,"internalType":"uint256"}],"anonymous":false},{"type":"event","name":"TransactionBatchExecutedEvent","inputs":[{"name":"_batchNonce","type":"uint256","indexed":true,"internalType":"uint256"},{"name":"_token","type":"address","indexed":true,"internalType":"address"},{"name":"_eventNonce","type":"uint256","indexed":false,"internalType":"uint256"}],"anonymous":false},{"type":"event","name":"ValsetUpdatedEvent","inputs":[{"name":"_newValsetNonce","type":"uint256","indexed":true,"internalType":"uint256"},{"name":"_eventNonce","type":"uint256","indexed":false,"internalType":"uint256"},{"name":"_rewardAmount","type":"uint256","indexed":false,"internalType":"uint256"},{"name":"_rewardToken","type":"address","indexed":false,"internalType":"address"},{"name":"_validators","type":"address[]","indexed":false,"internalType":"address[]"},{"name":"_powers","type":"uint256[]","indexed":false,"internalType":"uint256[]"}],"anonymous":false},{"type":"error","name":"AddressEmptyCode","inputs":[{"name":"target","type":"address","internalType":"address"}]},{"type":"error","name":"AddressInsufficientBalance","inputs":[{"name":"account","type":"address","internalType":"address"}]},{"type":"error","name":"BatchTimedOut","inputs":[]},{"type":"error","name":"ECDSAInvalidSignature","inputs":[]},{"type":"error","name":"ECDSAInvalidSignatureLength","inputs":[{"name":"length","type":"uint256","internalType":"uint256"}]},{"type":"error","name":"ECDSAInvalidSignatureS","inputs":[{"name":"s","type":"bytes32","internalType":"bytes32"}]},{"type":"error","name":"FailedInnerCall","inputs":[]},{"type":"error","name":"IncorrectCheckpoint","inputs":[]},{"type":"error","name":"InsufficientPower","inputs":[{"name":"cumulativePower","type":"uint256","internalType":"uint256"},{"name":"powerThreshold","type":"uint256","internalType":"uint256"}]},{"type":"error","name":"InvalidBatchNonce","inputs":[{"name":"newNonce","type":"uint256","internalType":"uint256"},{"name":"currentNonce","type":"uint256","internalType":"uint256"}]},{"type":"error","name":"InvalidLogicCallFees","inputs":[]},{"type":"error","name":"InvalidLogicCallNonce","inputs":[{"name":"newNonce","type":"uint256","internalType":"uint256"},{"name":"currentNonce","type":"uint256","internalType":"uint256"}]},{"type":"error","name":"InvalidLogicCallTransfers","inputs":[]},{"type":"error","name":"InvalidSendToNomic","inputs":[]},{"type":"error","name":"InvalidSignature","inputs":[]},{"type":"error","name":"InvalidValsetNonce","inputs":[{"name":"newNonce","type":"uint256","internalType":"uint256"},{"name":"currentNonce","type":"uint256","internalType":"uint256"}]},{"type":"error","name":"LogicCallTimedOut","inputs":[]},{"type":"error","name":"MalformedBatch","inputs":[]},{"type":"error","name":"MalformedCurrentValidatorSet","inputs":[]},{"type":"error","name":"MalformedNewValidatorSet","inputs":[]},{"type":"error","name":"ReentrancyGuardReentrantCall","inputs":[]},{"type":"error","name":"SafeERC20FailedOperation","inputs":[{"name":"token","type":"address","internalType":"address"}]}],"bytecode":{"object":"0x60a060405260006004556001600555600060065534801561001f57600080fd5b506040516136a63803806136a683398101604081905261003e916102ff565b60016000558051825114158061005357508151155b156100715760405163c6617b7b60e01b815260040160405180910390fd5b6000805b82518110156100b857828181518110610090576100906103e0565b6020026020010151826100a391906103f6565b915063aaaaaaaa82116100b857600101610075565b5063aaaaaaaa81116100ed5760405162bfb6ab60e01b81526004810182905263aaaaaaaa602482015260440160405180910390fd5b6101286040518060a001604052806060815260200160608152602001600081526020016000815260200160006001600160a01b031681525090565b506040805160a08101825284815260208101849052600091810182905260608101829052608081018290529061015e82876101bd565b6080879052600181905560045460055460405192935090917f76d08978c024a4bf8cbb30c67fd78fcaa1827cbc533e4e175f36d07e64ccf96a916101aa9160009081908b908b9061048e565b60405180910390a2505050505050610535565b6000806918da1958dadc1bda5b9d60b21b60001b90506000838286604001518760000151886020015189606001518a6080015160405160200161020697969594939291906104d9565b60408051601f198184030181529190528051602090910120925050505b92915050565b634e487b7160e01b600052604160045260246000fd5b604051601f8201601f191681016001600160401b038111828210171561026757610267610229565b604052919050565b60006001600160401b0382111561028857610288610229565b5060051b60200190565b600082601f8301126102a357600080fd5b81516102b66102b18261026f565b61023f565b8082825260208201915060208360051b8601019250858311156102d857600080fd5b602085015b838110156102f55780518352602092830192016102dd565b5095945050505050565b60008060006060848603121561031457600080fd5b835160208501519093506001600160401b0381111561033257600080fd5b8401601f8101861361034357600080fd5b80516103516102b18261026f565b8082825260208201915060208360051b85010192508883111561037357600080fd5b6020840193505b828410156103aa5783516001600160a01b038116811461039957600080fd5b82526020938401939091019061037a565b6040880151909550925050506001600160401b038111156103ca57600080fd5b6103d686828701610292565b9150509250925092565b634e487b7160e01b600052603260045260246000fd5b8082018082111561022357634e487b7160e01b600052601160045260246000fd5b600081518084526020840193506020830160005b828110156104525781516001600160a01b031686526020958601959091019060010161042b565b5093949350505050565b600081518084526020840193506020830160005b82811015610452578151865260209586019590910190600101610470565b85815284602082015260018060a01b038416604082015260a0606082015260006104bb60a0830185610417565b82810360808401526104cd818561045c565b98975050505050505050565b87815286602082015285604082015260e0606082015260006104fe60e0830187610417565b8281036080840152610510818761045c565b60a084019590955250506001600160a01b039190911660c09091015295945050505050565b608051613141610565600039600081816102550152818161065f015281816106f601526109e901526131416000f3fe608060405234801561001057600080fd5b50600436106101205760003560e01c80637dfb6f86116100ad578063c9d194d511610071578063c9d194d514610277578063d2a8dbc714610297578063df97174b146102d8578063f2b53307146102f8578063f79556371461030157600080fd5b80637dfb6f86146102015780638690ff9814610221578063aca6b1c114610234578063b56561fe14610247578063bdda81d41461025057600080fd5b8063374738d9116100f4578063374738d91461019257806359ce5dde146101b257806360ad5b38146101c55780636941db93146101e557806373b20547146101f857600080fd5b806290115314610125578063010315251461013a578063011b21741461014d578063274975fa14610189575b600080fd5b61013861013336600461158f565b610314565b005b61013861014836600461160d565b610328565b61017661015b36600461166d565b6001600160a01b031660009081526002602052604090205490565b6040519081526020015b60405180910390f35b61017660065481565b6101a56101a0366004611688565b61033f565b60405161018091906116f1565b6101386101c0366004611745565b6103d9565b6101766101d3366004611688565b60086020526000908152604090205481565b6101386101f3366004611993565b6105b7565b61017660055481565b61017661020f366004611688565b60036020526000908152604090205481565b61013861022f366004611b80565b6108ec565b610138610242366004611cad565b610b8f565b61017660045481565b6101767f000000000000000000000000000000000000000000000000000000000000000081565b610176610285366004611688565b60009081526003602052604090205490565b6102c06102a5366004611688565b6009602052600090815260409020546001600160a01b031681565b6040516001600160a01b039091168152602001610180565b6101766102e636600461166d565b60026020526000908152604090205481565b61017660015481565b61013861030f366004611d52565b610df8565b6103218585858585610e94565b5050505050565b61033a61033483611e06565b82610fbb565b505050565b6007602052600090815260409020805461035890611e9b565b80601f016020809104026020016040519081016040528092919081815260200182805461038490611e9b565b80156103d15780601f106103a6576101008083540402835291602001916103d1565b820191906000526020600020905b8154815290600101906020018083116103b457829003601f168201915b505050505081565b6103e1611027565b6040516370a0823160e01b81523060048201526000906001600160a01b038616906370a0823190602401602060405180830381865afa158015610428573d6000803e3d6000fd5b505050506040513d601f19601f8201168201806040525081019061044c9190611ecf565b90506104636001600160a01b038616333085611051565b6040516370a0823160e01b81523060048201526000906001600160a01b038716906370a0823190602401602060405180830381865afa1580156104aa573d6000803e3d6000fd5b505050506040513d601f19601f820116820180604052508101906104ce9190611ecf565b905060006104dc8383611efe565b90508282116104fe5760405163728614d360e01b815260040160405180910390fd5b600654600081815260086020908152604080832085905560079091529020610527878983611f58565b50600081815260096020526040902080546001600160a01b03191633179055600654610554906001612017565b600681905560405133916001600160a01b038b16917f58a3e95c14cd668e435fb5472910ea9157be6096f6a516c17f14aca4c55d74859161059b918c918c91899190612053565b60405180910390a3505050506105b16001600055565b50505050565b6105bf611027565b8060c0015143106105e35760405163bcf37c2560e01b815260040160405180910390fd5b61010081015160e0820151600090815260036020526040902054106106435761010081015160e082015160009081526003602052604090819020549051629427e960e11b8152600481019290925260248201526044015b60405180910390fd5b61064e8484846110b8565b60015461068361065d86611e06565b7f0000000000000000000000000000000000000000000000000000000000000000610fbb565b146106a15760405163723a340360e01b815260040160405180910390fd5b602081015151815151146106c857604051634298a95160e11b815260040160405180910390fd5b806060015151816040015151146106f257604051634829247960e01b815260040160405180910390fd5b60007f0000000000000000000000000000000000000000000000000000000000000000681b1bd9da58d0d85b1b60ba1b836000015184602001518560400151866060015187608001518860a001518960c001518a60e001518b610100015160405160200161076a9b9a999897969594939291906120f1565b6040516020818303038152906040528051906020012090506107938585858463aaaaaaaa610e94565b5061010081015160e08201516000908152600360205260408120919091555b815151811015610820576108188260800151836000015183815181106107da576107da612196565b6020026020010151846020015184815181106107f8576107f8612196565b60200260200101516001600160a01b03166111099092919063ffffffff16565b6001016107b2565b50600061083582608001518360a0015161113a565b905060005b8260400151518110156108875761087f338460400151838151811061086157610861612196565b6020026020010151856060015184815181106107f8576107f8612196565b60010161083a565b50600554610896906001612017565b600581905560e08301516101008401516040517f7c2bb24f8e1b3725cb613d7f11ef97d9745cc97a0e40f730621c052d684077a1936108d99392918691906121ac565b60405180910390a1506105b16001600055565b6108f4611027565b6001600160a01b038216600090815260026020526040902054610918906001612017565b831461095c576001600160a01b0382166000908152600260205260409081902054905163f7f920ad60e01b815261063a918591600401918252602082015260400190565b80431061097c576040516308b9266360e11b815260040160405180910390fd5b6109878c8c8c6110b8565b60015461099661065d8e611e06565b146109b45760405163723a340360e01b815260040160405180910390fd5b87861415806109c35750878414155b156109e15760405163c1f97e3560e01b815260040160405180910390fd5b610a5f8c8c8c7f00000000000000000000000000000000000000000000000000000000000000006f0e8e4c2dce6c2c6e8d2dedc84c2e8c6d60831b8e8e8e8e8e8e8e8e8e604051602001610a3f9b9a9998979695949392919061224c565b6040516020818303038152906040528051906020012063aaaaaaaa610e94565b6001600160a01b0382166000908152600260205260408120849055805b89811015610b0e57610ae0898983818110610a9957610a99612196565b9050602002016020810190610aae919061166d565b8c8c84818110610ac057610ac0612196565b90506020020135866001600160a01b03166111099092919063ffffffff16565b868682818110610af257610af2612196565b9050602002013582610b049190612017565b9150600101610a7c565b50610b236001600160a01b0384163383611109565b50600554610b32906001612017565b60058190556040519081526001600160a01b0383169084907f02c7e81975f8edb86e2a0c038b7b86a49c744236abf0f6177ff5afc6986ab7089060200160405180910390a3610b816001600055565b505050505050505050505050565b610b9e60408401356001612017565b846040013514610bd0576040805163e0e8edf360e01b815281860135600482015290840135602482015260440161063a565b610bdd60208501856122c3565b9050610be985806122c3565b9050141580610c015750610bfd84806122c3565b1590505b15610c1f5760405163c01ba0ab60e01b815260040160405180910390fd5b610c2a8383836110b8565b6000805b610c3b60208701876122c3565b9050811015610c8857610c5160208701876122c3565b82818110610c6157610c61612196565b9050602002013582610c739190612017565b915063aaaaaaaa8211610c8857600101610c2e565b5063aaaaaaaa8111610cb95760405162bfb6ab60e01b81526004810182905263aaaaaaaa602482015260440161063a565b600154610cc861065d86611e06565b14610ce65760405163723a340360e01b815260040160405180910390fd5b6000610cf461065d87611e06565b9050610d078585858463aaaaaaaa610e94565b600181905560408601356004556000610d2660a088016080890161166d565b6001600160a01b031614158015610d405750606086013515155b15610d6e57610d6e336060880135610d5e60a08a0160808b0161166d565b6001600160a01b03169190611109565b600554610d7c906001612017565b60058190556040870135907f76d08978c024a4bf8cbb30c67fd78fcaa1827cbc533e4e175f36d07e64ccf96a906060890135610dbe60a08b0160808c0161166d565b610dc88b806122c3565b610dd560208e018e6122c3565b604051610de8979695949392919061230c565b60405180910390a2505050505050565b6000308686868686604051610e0c9061151f565b610e1b9695949392919061235b565b604051809103906000f080158015610e37573d6000803e3d6000fd5b509050806001600160a01b03167f82fe3a4fa49c6382d0c085746698ddbbafe6c2bf61285b19410644b5b26287c7898989898989896000604051610e829897969594939291906123aa565b60405180910390a25050505050505050565b6000805b610ea287806122c3565b9050811015610f8957858582818110610ebd57610ebd612196565b610ed39260206060909202019081019150612401565b60ff1615610f8157610f2b610ee888806122c3565b83818110610ef857610ef8612196565b9050602002016020810190610f0d919061166d565b85888885818110610f2057610f20612196565b90506060020161114f565b610f4857604051638baa579f60e01b815260040160405180910390fd5b610f5560208801886122c3565b82818110610f6557610f65612196565b9050602002013582610f779190612017565b9150828211610f89575b600101610e98565b50818111610fb35760405162bfb6ab60e01b8152600481018290526024810183905260440161063a565b505050505050565b6000806918da1958dadc1bda5b9d60b21b60001b90506000838286604001518760000151886020015189606001518a60800151604051602001611004979695949392919061241c565b60408051601f198184030181529190528051602090910120925050505b92915050565b60026000540361104a57604051633ee5aeb560e01b815260040160405180910390fd5b6002600055565b6040516001600160a01b0384811660248301528381166044830152606482018390526105b19186918216906323b872dd906084015b604051602081830303815290604052915060e01b6020820180516001600160e01b0383818316178352505050506111e0565b6110c560208401846122c3565b90506110d184806122c3565b90501415806110eb5750806110e684806122c3565b905014155b1561033a5760405163c6617b7b60e01b815260040160405180910390fd5b6040516001600160a01b0383811660248301526044820183905261033a91859182169063a9059cbb90606401611086565b606061114883836000611243565b9392505050565b6040517f19457468657265756d205369676e6564204d6573736167653a0a3332000000006020820152603c81018390526000908190605c0160408051601f19818403018152919052805160209182012091506111c29082906111b390860186612401565b856020013586604001356112e0565b6001600160a01b0316856001600160a01b0316149150509392505050565b60006111f56001600160a01b0384168361113a565b9050805160001415801561121a5750808060200190518101906112189190612478565b155b1561033a57604051635274afe760e01b81526001600160a01b038416600482015260240161063a565b6060814710156112685760405163cd78605960e01b815230600482015260240161063a565b600080856001600160a01b03168486604051611284919061249a565b60006040518083038185875af1925050503d80600081146112c1576040519150601f19603f3d011682016040523d82523d6000602084013e6112c6565b606091505b50915091506112d686838361130e565b9695505050505050565b6000806000806112f28888888861136a565b9250925092506113028282611439565b50909695505050505050565b6060826113235761131e826114f6565b611148565b815115801561133a57506001600160a01b0384163b155b1561136357604051639996b31560e01b81526001600160a01b038516600482015260240161063a565b5080611148565b600080807f7fffffffffffffffffffffffffffffff5d576e7357a4501ddfe92f46681b20a08411156113a5575060009150600390508261142f565b604080516000808252602082018084528a905260ff891692820192909252606081018790526080810186905260019060a0016020604051602081039080840390855afa1580156113f9573d6000803e3d6000fd5b5050604051601f1901519150506001600160a01b0381166114255750600092506001915082905061142f565b9250600091508190505b9450945094915050565b600082600381111561144d5761144d6124b6565b03611456575050565b600182600381111561146a5761146a6124b6565b036114885760405163f645eedf60e01b815260040160405180910390fd5b600282600381111561149c5761149c6124b6565b036114bd5760405163fce698f760e01b81526004810182905260240161063a565b60038260038111156114d1576114d16124b6565b036114f2576040516335e2f38360e21b81526004810182905260240161063a565b5050565b8051156115065780518082602001fd5b604051630a12f52160e11b815260040160405180910390fd5b610c3f806124cd83390190565b600060a0828403121561153e57600080fd5b50919050565b60008083601f84011261155657600080fd5b5081356001600160401b0381111561156d57600080fd5b60208301915083602060608302850101111561158857600080fd5b9250929050565b6000806000806000608086880312156115a757600080fd5b85356001600160401b038111156115bd57600080fd5b6115c98882890161152c565b95505060208601356001600160401b038111156115e557600080fd5b6115f188828901611544565b9699909850959660408101359660609091013595509350505050565b6000806040838503121561162057600080fd5b82356001600160401b0381111561163657600080fd5b6116428582860161152c565b95602094909401359450505050565b80356001600160a01b038116811461166857600080fd5b919050565b60006020828403121561167f57600080fd5b61114882611651565b60006020828403121561169a57600080fd5b5035919050565b60005b838110156116bc5781810151838201526020016116a4565b50506000910152565b600081518084526116dd8160208601602086016116a1565b601f01601f19169290920160200192915050565b60208152600061114860208301846116c5565b60008083601f84011261171657600080fd5b5081356001600160401b0381111561172d57600080fd5b60208301915083602082850101111561158857600080fd5b6000806000806060858703121561175b57600080fd5b61176485611651565b935060208501356001600160401b0381111561177f57600080fd5b61178b87828801611704565b9598909750949560400135949350505050565b634e487b7160e01b600052604160045260246000fd5b60405161012081016001600160401b03811182821017156117d7576117d761179e565b60405290565b60405160a081016001600160401b03811182821017156117d7576117d761179e565b604051601f8201601f191681016001600160401b03811182821017156118275761182761179e565b604052919050565b60006001600160401b038211156118485761184861179e565b5060051b60200190565b600082601f83011261186357600080fd5b81356118766118718261182f565b6117ff565b8082825260208201915060208360051b86010192508583111561189857600080fd5b602085015b838110156118b557803583526020928301920161189d565b5095945050505050565b600082601f8301126118d057600080fd5b81356118de6118718261182f565b8082825260208201915060208360051b86010192508583111561190057600080fd5b602085015b838110156118b55761191681611651565b835260209283019201611905565b600082601f83011261193557600080fd5b81356001600160401b0381111561194e5761194e61179e565b611961601f8201601f19166020016117ff565b81815284602083860101111561197657600080fd5b816020850160208301376000918101602001919091529392505050565b600080600080606085870312156119a957600080fd5b84356001600160401b038111156119bf57600080fd5b6119cb8782880161152c565b94505060208501356001600160401b038111156119e757600080fd5b6119f387828801611544565b90945092505060408501356001600160401b03811115611a1257600080fd5b85016101208188031215611a2557600080fd5b611a2d6117b4565b81356001600160401b03811115611a4357600080fd5b611a4f89828501611852565b82525060208201356001600160401b03811115611a6b57600080fd5b611a77898285016118bf565b60208301525060408201356001600160401b03811115611a9657600080fd5b611aa289828501611852565b60408301525060608201356001600160401b03811115611ac157600080fd5b611acd898285016118bf565b606083015250611adf60808301611651565b608082015260a08201356001600160401b03811115611afd57600080fd5b611b0989828501611924565b60a08301525060c0828101359082015260e080830135908201526101009182013591810191909152939692955090935050565b60008083601f840112611b4e57600080fd5b5081356001600160401b03811115611b6557600080fd5b6020830191508360208260051b850101111561158857600080fd5b6000806000806000806000806000806000806101008d8f031215611ba357600080fd5b6001600160401b038d351115611bb857600080fd5b611bc58e8e358f0161152c565b9b506001600160401b0360208e01351115611bdf57600080fd5b611bef8e60208f01358f01611544565b909b5099506001600160401b0360408e01351115611c0c57600080fd5b611c1c8e60408f01358f01611b3c565b90995097506001600160401b0360608e01351115611c3957600080fd5b611c498e60608f01358f01611b3c565b90975095506001600160401b0360808e01351115611c6657600080fd5b611c768e60808f01358f01611b3c565b909550935060a08d01359250611c8e60c08e01611651565b9150600060e08e01359050809150509295989b509295989b509295989b565b60008060008060608587031215611cc357600080fd5b84356001600160401b03811115611cd957600080fd5b611ce58782880161152c565b94505060208501356001600160401b03811115611d0157600080fd5b611d0d8782880161152c565b93505060408501356001600160401b03811115611d2957600080fd5b611d3587828801611544565b95989497509550505050565b803560ff8116811461166857600080fd5b60008060008060008060006080888a031215611d6d57600080fd5b87356001600160401b03811115611d8357600080fd5b611d8f8a828b01611704565b90985096505060208801356001600160401b03811115611dae57600080fd5b611dba8a828b01611704565b90965094505060408801356001600160401b03811115611dd957600080fd5b611de58a828b01611704565b9094509250611df8905060608901611d41565b905092959891949750929550565b600060a08236031215611e1857600080fd5b611e206117dd565b82356001600160401b03811115611e3657600080fd5b611e42368286016118bf565b82525060208301356001600160401b03811115611e5e57600080fd5b611e6a36828601611852565b6020830152506040838101359082015260608084013590820152611e9060808401611651565b608082015292915050565b600181811c90821680611eaf57607f821691505b60208210810361153e57634e487b7160e01b600052602260045260246000fd5b600060208284031215611ee157600080fd5b5051919050565b634e487b7160e01b600052601160045260246000fd5b8181038181111561102157611021611ee8565b601f82111561033a57806000526020600020601f840160051c81016020851015611f385750805b601f840160051c820191505b818110156103215760008155600101611f44565b6001600160401b03831115611f6f57611f6f61179e565b611f8383611f7d8354611e9b565b83611f11565b6000601f841160018114611fb75760008515611f9f5750838201355b600019600387901b1c1916600186901b178355610321565b600083815260209020601f19861690835b82811015611fe85786850135825560209485019460019092019101611fc8565b50868210156120055760001960f88860031b161c19848701351681555b505060018560011b0183555050505050565b8082018082111561102157611021611ee8565b81835281816020850137506000828201602090810191909152601f909101601f19169091010190565b60608152600061206760608301868861202a565b6020830194909452506040015292915050565b600081518084526020840193506020830160005b828110156120ac57815186526020958601959091019060010161208e565b5093949350505050565b600081518084526020840193506020830160005b828110156120ac5781516001600160a01b03168652602095860195909101906001016120ca565b8b81528a60208201526101606040820152600061211261016083018c61207a565b8281036060840152612124818c6120b6565b90508281036080840152612138818b61207a565b905082810360a084015261214c818a6120b6565b6001600160a01b03891660c085015283810360e0850152905061216f81886116c5565b61010084019690965250506101208101929092526101409091015298975050505050505050565b634e487b7160e01b600052603260045260246000fd5b8481528360208201526080604082015260006121cb60808301856116c5565b905082606083015295945050505050565b81835260006001600160fb1b038311156121f557600080fd5b8260051b80836020870137939093016020019392505050565b81835260208301925060008160005b848110156120ac576001600160a01b0361223683611651565b168652602095860195919091019060010161221d565b8b81528a60208201526101006040820152600061226e61010083018b8d6121dc565b8281036060840152612281818a8c61220e565b9050828103608084015261229681888a6121dc565b60a084019690965250506001600160a01b039290921660c083015260e09091015298975050505050505050565b6000808335601e198436030181126122da57600080fd5b8301803591506001600160401b038211156122f457600080fd5b6020019150600581901b360382131561158857600080fd5b87815286602082015260018060a01b038616604082015260a06060820152600061233a60a08301868861220e565b828103608084015261234d8185876121dc565b9a9950505050505050505050565b6001600160a01b0387168152608060208201819052600090612380908301878961202a565b828103604084015261239381868861202a565b91505060ff83166060830152979650505050505050565b60a0815260006123be60a083018a8c61202a565b82810360208401526123d181898b61202a565b905082810360408401526123e681878961202a565b60ff9590951660608401525050608001529695505050505050565b60006020828403121561241357600080fd5b61114882611d41565b87815286602082015285604082015260e06060820152600061244160e08301876120b6565b8281036080840152612453818761207a565b60a084019590955250506001600160a01b039190911660c09091015295945050505050565b60006020828403121561248a57600080fd5b8151801515811461114857600080fd5b600082516124ac8184602087016116a1565b9190910192915050565b634e487b7160e01b600052602160045260246000fdfe608060405234801561001057600080fd5b50604051610c3f380380610c3f83398101604081905261002f916102aa565b8282600361003d83826103d4565b50600461004a82826103d4565b5050600580546001600160a01b038716610100026001600160a81b031990911660ff8516171790555061007f84600019610088565b505050506104b9565b6001600160a01b0382166100b75760405163ec442f0560e01b8152600060048201526024015b60405180910390fd5b6100c3600083836100c7565b5050565b6001600160a01b0383166100f25780600260008282546100e79190610492565b909155506101649050565b6001600160a01b038316600090815260208190526040902054818110156101455760405163391434e360e21b81526001600160a01b038516600482015260248101829052604481018390526064016100ae565b6001600160a01b03841660009081526020819052604090209082900390555b6001600160a01b0382166101805760028054829003905561019f565b6001600160a01b03821660009081526020819052604090208054820190555b816001600160a01b0316836001600160a01b03167fddf252ad1be2c89b69c2b068fc378daa952ba7f163c4a11628f55a4df523b3ef836040516101e491815260200190565b60405180910390a3505050565b634e487b7160e01b600052604160045260246000fd5b600082601f83011261021857600080fd5b81516001600160401b03811115610231576102316101f1565b604051601f8201601f19908116603f011681016001600160401b038111828210171561025f5761025f6101f1565b60405281815283820160200185101561027757600080fd5b60005b828110156102965760208186018101518383018201520161027a565b506000918101602001919091529392505050565b600080600080608085870312156102c057600080fd5b84516001600160a01b03811681146102d757600080fd5b60208601519094506001600160401b038111156102f357600080fd5b6102ff87828801610207565b604087015190945090506001600160401b0381111561031d57600080fd5b61032987828801610207565b925050606085015160ff8116811461034057600080fd5b939692955090935050565b600181811c9082168061035f57607f821691505b60208210810361037f57634e487b7160e01b600052602260045260246000fd5b50919050565b601f8211156103cf57806000526020600020601f840160051c810160208510156103ac5750805b601f840160051c820191505b818110156103cc57600081556001016103b8565b50505b505050565b81516001600160401b038111156103ed576103ed6101f1565b610401816103fb845461034b565b84610385565b6020601f821160018114610435576000831561041d5750848201515b600019600385901b1c1916600184901b1784556103cc565b600084815260208120601f198516915b828110156104655787850151825560209485019460019092019101610445565b50848210156104835786840151600019600387901b60f8161c191681555b50505050600190811b01905550565b808201808211156104b357634e487b7160e01b600052601160045260246000fd5b92915050565b610777806104c86000396000f3fe608060405234801561001057600080fd5b50600436106100935760003560e01c8063313ce56711610066578063313ce5671461010257806370a082311461011757806395d89b4114610140578063a9059cbb14610148578063dd62ed3e1461015b57600080fd5b806306fdde0314610098578063095ea7b3146100b657806318160ddd146100d957806323b872dd146100ef575b600080fd5b6100a0610194565b6040516100ad91906105a5565b60405180910390f35b6100c96100c436600461060f565b610226565b60405190151581526020016100ad565b6100e1610240565b6040519081526020016100ad565b6100c96100fd366004610639565b610271565b60055460405160ff90911681526020016100ad565b6100e1610125366004610676565b6001600160a01b031660009081526020819052604090205490565b6100a0610295565b6100c961015636600461060f565b6102a4565b6100e1610169366004610698565b6001600160a01b03918216600090815260016020908152604080832093909416825291909152205490565b6060600380546101a3906106cb565b80601f01602080910402602001604051908101604052809291908181526020018280546101cf906106cb565b801561021c5780601f106101f15761010080835404028352916020019161021c565b820191906000526020600020905b8154815290600101906020018083116101ff57829003601f168201915b5050505050905090565b6000336102348185856102b2565b60019150505b92915050565b60055461010090046001600160a01b031660009081526020819052604081205461026c9060001961071b565b905090565b60003361027f8582856102c4565b61028a858585610347565b506001949350505050565b6060600480546101a3906106cb565b600033610234818585610347565b6102bf83838360016103a6565b505050565b6001600160a01b038381166000908152600160209081526040808320938616835292905220546000198114610341578181101561033257604051637dc7a0d960e11b81526001600160a01b038416600482015260248101829052604481018390526064015b60405180910390fd5b610341848484840360006103a6565b50505050565b6001600160a01b03831661037157604051634b637e8f60e11b815260006004820152602401610329565b6001600160a01b03821661039b5760405163ec442f0560e01b815260006004820152602401610329565b6102bf83838361047b565b6001600160a01b0384166103d05760405163e602df0560e01b815260006004820152602401610329565b6001600160a01b0383166103fa57604051634a1406b160e11b815260006004820152602401610329565b6001600160a01b038085166000908152600160209081526040808320938716835292905220829055801561034157826001600160a01b0316846001600160a01b03167f8c5be1e5ebec7d5bd14f71427d1e84f3dd0314c0f7b2291e5b200ac8c7c3b9258460405161046d91815260200190565b60405180910390a350505050565b6001600160a01b0383166104a657806002600082825461049b919061072e565b909155506105189050565b6001600160a01b038316600090815260208190526040902054818110156104f95760405163391434e360e21b81526001600160a01b03851660048201526024810182905260448101839052606401610329565b6001600160a01b03841660009081526020819052604090209082900390555b6001600160a01b03821661053457600280548290039055610553565b6001600160a01b03821660009081526020819052604090208054820190555b816001600160a01b0316836001600160a01b03167fddf252ad1be2c89b69c2b068fc378daa952ba7f163c4a11628f55a4df523b3ef8360405161059891815260200190565b60405180910390a3505050565b602081526000825180602084015260005b818110156105d357602081860181015160408684010152016105b6565b506000604082850101526040601f19601f83011684010191505092915050565b80356001600160a01b038116811461060a57600080fd5b919050565b6000806040838503121561062257600080fd5b61062b836105f3565b946020939093013593505050565b60008060006060848603121561064e57600080fd5b610657846105f3565b9250610665602085016105f3565b929592945050506040919091013590565b60006020828403121561068857600080fd5b610691826105f3565b9392505050565b600080604083850312156106ab57600080fd5b6106b4836105f3565b91506106c2602084016105f3565b90509250929050565b600181811c908216806106df57607f821691505b6020821081036106ff57634e487b7160e01b600052602260045260246000fd5b50919050565b634e487b7160e01b600052601160045260246000fd5b8181038181111561023a5761023a610705565b8082018082111561023a5761023a61070556fea264697066735822122024c79efa80d76fa77ae6b1ca389ed0fdae409820955e53b98e9246aa7ec3ca6164736f6c634300081a0033a26469706673582212200cd17df7a23faa4821cb53ee9732f808dfa005706d1617f88e6b822c111c8ffc64736f6c634300081a0033","linkReferences":{}},"methodIdentifiers":{"deployERC20(string,string,string,uint8)":"f7955637","lastBatchNonce(address)":"011b2174","lastLogicCallNonce(bytes32)":"c9d194d5","sendToNomic(address,string,uint256)":"59ce5dde","state_gravityId()":"bdda81d4","state_invalidationMapping(bytes32)":"7dfb6f86","state_lastBatchNonces(address)":"df97174b","state_lastEventNonce()":"73b20547","state_lastReturnNonce()":"274975fa","state_lastValsetCheckpoint()":"f2b53307","state_lastValsetNonce()":"b56561fe","state_returnAmounts(uint256)":"60ad5b38","state_returnDests(uint256)":"374738d9","state_returnSenders(uint256)":"d2a8dbc7","submitBatch((address[],uint256[],uint256,uint256,address),(uint8,bytes32,bytes32)[],uint256[],address[],uint256[],uint256,address,uint256)":"8690ff98","submitLogicCall((address[],uint256[],uint256,uint256,address),(uint8,bytes32,bytes32)[],(uint256[],address[],uint256[],address[],address,bytes,uint256,bytes32,uint256))":"6941db93","testCheckValidatorSignatures((address[],uint256[],uint256,uint256,address),(uint8,bytes32,bytes32)[],bytes32,uint256)":"00901153","testMakeCheckpoint((address[],uint256[],uint256,uint256,address),bytes32)":"01031525","updateValset((address[],uint256[],uint256,uint256,address),(address[],uint256[],uint256,uint256,address),(uint8,bytes32,bytes32)[])":"aca6b1c1"},"id":2}