{"abi":[{"type":"constructor","inputs":[{"name":"_gravityId","type":"bytes32","internalType":"bytes32"},{"name":"_validators","type":"address[]","internalType":"address[]"},{"name":"_powers","type":"uint256[]","internalType":"uint256[]"}],"stateMutability":"nonpayable"},{"type":"function","name":"deployERC20","inputs":[{"name":"_cosmosDenom","type":"string","internalType":"string"},{"name":"_name","type":"string","internalType":"string"},{"name":"_symbol","type":"string","internalType":"string"},{"name":"_decimals","type":"uint8","internalType":"uint8"}],"outputs":[],"stateMutability":"nonpayable"},{"type":"function","name":"lastBatchNonce","inputs":[{"name":"_erc20Address","type":"address","internalType":"address"}],"outputs":[{"name":"","type":"uint256","internalType":"uint256"}],"stateMutability":"view"},{"type":"function","name":"lastLogicCallNonce","inputs":[{"name":"_invalidation_id","type":"bytes32","internalType":"bytes32"}],"outputs":[{"name":"","type":"uint256","internalType":"uint256"}],"stateMutability":"view"},{"type":"function","name":"sendToCosmos","inputs":[{"name":"_tokenContract","type":"address","internalType":"address"},{"name":"_destination","type":"string","internalType":"string"},{"name":"_amount","type":"uint256","internalType":"uint256"}],"outputs":[],"stateMutability":"nonpayable"},{"type":"function","name":"state_gravityId","inputs":[],"outputs":[{"name":"","type":"bytes32","internalType":"bytes32"}],"stateMutability":"view"},{"type":"function","name":"state_invalidationMapping","inputs":[{"name":"","type":"bytes32","internalType":"bytes32"}],"outputs":[{"name":"","type":"uint256","internalType":"uint256"}],"stateMutability":"view"},{"type":"function","name":"state_lastBatchNonces","inputs":[{"name":"","type":"address","internalType":"address"}],"outputs":[{"name":"","type":"uint256","internalType":"uint256"}],"stateMutability":"view"},{"type":"function","name":"state_lastEventNonce","inputs":[],"outputs":[{"name":"","type":"uint256","internalType":"uint256"}],"stateMutability":"view"},{"type":"function","name":"state_lastReturnNonce","inputs":[],"outputs":[{"name":"","type":"uint256","internalType":"uint256"}],"stateMutability":"view"},{"type":"function","name":"state_lastValsetCheckpoint","inputs":[],"outputs":[{"name":"","type":"bytes32","internalType":"bytes32"}],"stateMutability":"view"},{"type":"function","name":"state_lastValsetNonce","inputs":[],"outputs":[{"name":"","type":"uint256","internalType":"uint256"}],"stateMutability":"view"},{"type":"function","name":"submitBatch","inputs":[{"name":"_currentValset","type":"tuple","internalType":"struct ValsetArgs","components":[{"name":"validators","type":"address[]","internalType":"address[]"},{"name":"powers","type":"uint256[]","internalType":"uint256[]"},{"name":"valsetNonce","type":"uint256","internalType":"uint256"},{"name":"rewardAmount","type":"uint256","internalType":"uint256"},{"name":"rewardToken","type":"address","internalType":"address"}]},{"name":"_sigs","type":"tuple[]","internalType":"struct Signature[]","components":[{"name":"v","type":"uint8","internalType":"uint8"},{"name":"r","type":"bytes32","internalType":"bytes32"},{"name":"s","type":"bytes32","internalType":"bytes32"}]},{"name":"_amounts","type":"uint256[]","internalType":"uint256[]"},{"name":"_destinations","type":"address[]","internalType":"address[]"},{"name":"_fees","type":"uint256[]","internalType":"uint256[]"},{"name":"_batchNonce","type":"uint256","internalType":"uint256"},{"name":"_tokenContract","type":"address","internalType":"address"},{"name":"_batchTimeout","type":"uint256","internalType":"uint256"}],"outputs":[],"stateMutability":"nonpayable"},{"type":"function","name":"submitLogicCall","inputs":[{"name":"_currentValset","type":"tuple","internalType":"struct ValsetArgs","components":[{"name":"validators","type":"address[]","internalType":"address[]"},{"name":"powers","type":"uint256[]","internalType":"uint256[]"},{"name":"valsetNonce","type":"uint256","internalType":"uint256"},{"name":"rewardAmount","type":"uint256","internalType":"uint256"},{"name":"rewardToken","type":"address","internalType":"address"}]},{"name":"_sigs","type":"tuple[]","internalType":"struct Signature[]","components":[{"name":"v","type":"uint8","internalType":"uint8"},{"name":"r","type":"bytes32","internalType":"bytes32"},{"name":"s","type":"bytes32","internalType":"bytes32"}]},{"name":"_args","type":"tuple","internalType":"struct LogicCallArgs","components":[{"name":"transferAmounts","type":"uint256[]","internalType":"uint256[]"},{"name":"transferTokenContracts","type":"address[]","internalType":"address[]"},{"name":"feeAmounts","type":"uint256[]","internalType":"uint256[]"},{"name":"feeTokenContracts","type":"address[]","internalType":"address[]"},{"name":"logicContractAddress","type":"address","internalType":"address"},{"name":"payload","type":"bytes","internalType":"bytes"},{"name":"timeOut","type":"uint256","internalType":"uint256"},{"name":"invalidationId","type":"bytes32","internalType":"bytes32"},{"name":"invalidationNonce","type":"uint256","internalType":"uint256"}]}],"outputs":[],"stateMutability":"nonpayable"},{"type":"function","name":"testCheckValidatorSignatures","inputs":[{"name":"_currentValset","type":"tuple","internalType":"struct ValsetArgs","components":[{"name":"validators","type":"address[]","internalType":"address[]"},{"name":"powers","type":"uint256[]","internalType":"uint256[]"},{"name":"valsetNonce","type":"uint256","internalType":"uint256"},{"name":"rewardAmount","type":"uint256","internalType":"uint256"},{"name":"rewardToken","type":"address","internalType":"address"}]},{"name":"_sigs","type":"tuple[]","internalType":"struct Signature[]","components":[{"name":"v","type":"uint8","internalType":"uint8"},{"name":"r","type":"bytes32","internalType":"bytes32"},{"name":"s","type":"bytes32","internalType":"bytes32"}]},{"name":"_theHash","type":"bytes32","internalType":"bytes32"},{"name":"_powerThreshold","type":"uint256","internalType":"uint256"}],"outputs":[],"stateMutability":"pure"},{"type":"function","name":"testMakeCheckpoint","inputs":[{"name":"_valsetArgs","type":"tuple","internalType":"struct ValsetArgs","components":[{"name":"validators","type":"address[]","internalType":"address[]"},{"name":"powers","type":"uint256[]","internalType":"uint256[]"},{"name":"valsetNonce","type":"uint256","internalType":"uint256"},{"name":"rewardAmount","type":"uint256","internalType":"uint256"},{"name":"rewardToken","type":"address","internalType":"address"}]},{"name":"_gravityId","type":"bytes32","internalType":"bytes32"}],"outputs":[],"stateMutability":"pure"},{"type":"function","name":"updateValset","inputs":[{"name":"_newValset","type":"tuple","internalType":"struct ValsetArgs","components":[{"name":"validators","type":"address[]","internalType":"address[]"},{"name":"powers","type":"uint256[]","internalType":"uint256[]"},{"name":"valsetNonce","type":"uint256","internalType":"uint256"},{"name":"rewardAmount","type":"uint256","internalType":"uint256"},{"name":"rewardToken","type":"address","internalType":"address"}]},{"name":"_currentValset","type":"tuple","internalType":"struct ValsetArgs","components":[{"name":"validators","type":"address[]","internalType":"address[]"},{"name":"powers","type":"uint256[]","internalType":"uint256[]"},{"name":"valsetNonce","type":"uint256","internalType":"uint256"},{"name":"rewardAmount","type":"uint256","internalType":"uint256"},{"name":"rewardToken","type":"address","internalType":"address"}]},{"name":"_sigs","type":"tuple[]","internalType":"struct Signature[]","components":[{"name":"v","type":"uint8","internalType":"uint8"},{"name":"r","type":"bytes32","internalType":"bytes32"},{"name":"s","type":"bytes32","internalType":"bytes32"}]}],"outputs":[],"stateMutability":"nonpayable"},{"type":"event","name":"ERC20DeployedEvent","inputs":[{"name":"_cosmosDenom","type":"string","indexed":false,"internalType":"string"},{"name":"_tokenContract","type":"address","indexed":true,"internalType":"address"},{"name":"_name","type":"string","indexed":false,"internalType":"string"},{"name":"_symbol","type":"string","indexed":false,"internalType":"string"},{"name":"_decimals","type":"uint8","indexed":false,"internalType":"uint8"},{"name":"_eventNonce","type":"uint256","indexed":false,"internalType":"uint256"}],"anonymous":false},{"type":"event","name":"LogicCallEvent","inputs":[{"name":"_invalidationId","type":"bytes32","indexed":false,"internalType":"bytes32"},{"name":"_invalidationNonce","type":"uint256","indexed":false,"internalType":"uint256"},{"name":"_returnData","type":"bytes","indexed":false,"internalType":"bytes"},{"name":"_eventNonce","type":"uint256","indexed":false,"internalType":"uint256"}],"anonymous":false},{"type":"event","name":"SendToCosmosEvent","inputs":[{"name":"_tokenContract","type":"address","indexed":true,"internalType":"address"},{"name":"_sender","type":"address","indexed":true,"internalType":"address"},{"name":"_destination","type":"string","indexed":false,"internalType":"string"},{"name":"_amount","type":"uint256","indexed":false,"internalType":"uint256"},{"name":"_eventNonce","type":"uint256","indexed":false,"internalType":"uint256"}],"anonymous":false},{"type":"event","name":"TransactionBatchExecutedEvent","inputs":[{"name":"_batchNonce","type":"uint256","indexed":true,"internalType":"uint256"},{"name":"_token","type":"address","indexed":true,"internalType":"address"},{"name":"_eventNonce","type":"uint256","indexed":false,"internalType":"uint256"}],"anonymous":false},{"type":"event","name":"ValsetUpdatedEvent","inputs":[{"name":"_newValsetNonce","type":"uint256","indexed":true,"internalType":"uint256"},{"name":"_eventNonce","type":"uint256","indexed":false,"internalType":"uint256"},{"name":"_rewardAmount","type":"uint256","indexed":false,"internalType":"uint256"},{"name":"_rewardToken","type":"address","indexed":false,"internalType":"address"},{"name":"_validators","type":"address[]","indexed":false,"internalType":"address[]"},{"name":"_powers","type":"uint256[]","indexed":false,"internalType":"uint256[]"}],"anonymous":false},{"type":"error","name":"AddressEmptyCode","inputs":[{"name":"target","type":"address","internalType":"address"}]},{"type":"error","name":"AddressInsufficientBalance","inputs":[{"name":"account","type":"address","internalType":"address"}]},{"type":"error","name":"BatchTimedOut","inputs":[]},{"type":"error","name":"ECDSAInvalidSignature","inputs":[]},{"type":"error","name":"ECDSAInvalidSignatureLength","inputs":[{"name":"length","type":"uint256","internalType":"uint256"}]},{"type":"error","name":"ECDSAInvalidSignatureS","inputs":[{"name":"s","type":"bytes32","internalType":"bytes32"}]},{"type":"error","name":"FailedInnerCall","inputs":[]},{"type":"error","name":"IncorrectCheckpoint","inputs":[]},{"type":"error","name":"InsufficientPower","inputs":[{"name":"cumulativePower","type":"uint256","internalType":"uint256"},{"name":"powerThreshold","type":"uint256","internalType":"uint256"}]},{"type":"error","name":"InvalidBatchNonce","inputs":[{"name":"newNonce","type":"uint256","internalType":"uint256"},{"name":"currentNonce","type":"uint256","internalType":"uint256"}]},{"type":"error","name":"InvalidLogicCallFees","inputs":[]},{"type":"error","name":"InvalidLogicCallNonce","inputs":[{"name":"newNonce","type":"uint256","internalType":"uint256"},{"name":"currentNonce","type":"uint256","internalType":"uint256"}]},{"type":"error","name":"InvalidLogicCallTransfers","inputs":[]},{"type":"error","name":"InvalidSendToCosmos","inputs":[]},{"type":"error","name":"InvalidSignature","inputs":[]},{"type":"error","name":"InvalidValsetNonce","inputs":[{"name":"newNonce","type":"uint256","internalType":"uint256"},{"name":"currentNonce","type":"uint256","internalType":"uint256"}]},{"type":"error","name":"LogicCallTimedOut","inputs":[]},{"type":"error","name":"MalformedBatch","inputs":[]},{"type":"error","name":"MalformedCurrentValidatorSet","inputs":[]},{"type":"error","name":"MalformedNewValidatorSet","inputs":[]},{"type":"error","name":"ReentrancyGuardReentrantCall","inputs":[]},{"type":"error","name":"SafeERC20FailedOperation","inputs":[{"name":"token","type":"address","internalType":"address"}]}],"bytecode":{"object":"0x60a060405260006004556001600555600060065534801561001f57600080fd5b5060405161353838038061353883398101604081905261003e916102ff565b60016000558051825114158061005357508151155b156100715760405163c6617b7b60e01b815260040160405180910390fd5b6000805b82518110156100b857828181518110610090576100906103e0565b6020026020010151826100a391906103f6565b915063aaaaaaaa82116100b857600101610075565b5063aaaaaaaa81116100ed5760405162bfb6ab60e01b81526004810182905263aaaaaaaa602482015260440160405180910390fd5b6101286040518060a001604052806060815260200160608152602001600081526020016000815260200160006001600160a01b031681525090565b506040805160a08101825284815260208101849052600091810182905260608101829052608081018290529061015e82876101bd565b6080879052600181905560045460055460405192935090917f76d08978c024a4bf8cbb30c67fd78fcaa1827cbc533e4e175f36d07e64ccf96a916101aa9160009081908b908b9061048e565b60405180910390a2505050505050610535565b6000806918da1958dadc1bda5b9d60b21b60001b90506000838286604001518760000151886020015189606001518a6080015160405160200161020697969594939291906104d9565b60408051601f198184030181529190528051602090910120925050505b92915050565b634e487b7160e01b600052604160045260246000fd5b604051601f8201601f191681016001600160401b038111828210171561026757610267610229565b604052919050565b60006001600160401b0382111561028857610288610229565b5060051b60200190565b600082601f8301126102a357600080fd5b81516102b66102b18261026f565b61023f565b8082825260208201915060208360051b8601019250858311156102d857600080fd5b602085015b838110156102f55780518352602092830192016102dd565b5095945050505050565b60008060006060848603121561031457600080fd5b835160208501519093506001600160401b0381111561033257600080fd5b8401601f8101861361034357600080fd5b80516103516102b18261026f565b8082825260208201915060208360051b85010192508883111561037357600080fd5b6020840193505b828410156103aa5783516001600160a01b038116811461039957600080fd5b82526020938401939091019061037a565b6040880151909550925050506001600160401b038111156103ca57600080fd5b6103d686828701610292565b9150509250925092565b634e487b7160e01b600052603260045260246000fd5b8082018082111561022357634e487b7160e01b600052601160045260246000fd5b600081518084526020840193506020830160005b828110156104525781516001600160a01b031686526020958601959091019060010161042b565b5093949350505050565b600081518084526020840193506020830160005b82811015610452578151865260209586019590910190600101610470565b85815284602082015260018060a01b038416604082015260a0606082015260006104bb60a0830185610417565b82810360808401526104cd818561045c565b98975050505050505050565b87815286602082015285604082015260e0606082015260006104fe60e0830187610417565b8281036080840152610510818761045c565b60a084019590955250506001600160a01b039190911660c09091015295945050505050565b608051612fd3610565600039600081816101f3015281816105040152818161059b015261088e0152612fd36000f3fe608060405234801561001057600080fd5b50600436106100ff5760003560e01c80638690ff9811610097578063c9d194d511610066578063c9d194d514610215578063df97174b14610235578063f2b5330714610255578063f79556371461025e57600080fd5b80638690ff98146101bf578063aca6b1c1146101d2578063b56561fe146101e5578063bdda81d4146101ee57600080fd5b8063274975fa116100d3578063274975fa1461017a5780636941db931461018357806373b20547146101965780637dfb6f861461019f57600080fd5b8062901153146101045780630103152514610119578063011b21741461012c5780630f21235714610167575b600080fd5b610117610112366004611434565b610271565b005b6101176101273660046114b2565b610285565b61015561013a366004611512565b6001600160a01b031660009081526002602052604090205490565b60405190815260200160405180910390f35b61011761017536600461156e565b61029c565b61015560065481565b6101176101913660046117bc565b61045c565b61015560055481565b6101556101ad366004611965565b60036020526000908152604090205481565b6101176101cd3660046119c2565b610791565b6101176101e0366004611aef565b610a34565b61015560045481565b6101557f000000000000000000000000000000000000000000000000000000000000000081565b610155610223366004611965565b60009081526003602052604090205490565b610155610243366004611512565b60026020526000908152604090205481565b61015560015481565b61011761026c366004611b94565b610c9d565b61027e8585858585610d39565b5050505050565b61029761029183611c48565b82610e60565b505050565b6102a4610ecc565b6040516370a0823160e01b81523060048201526000906001600160a01b038616906370a0823190602401602060405180830381865afa1580156102eb573d6000803e3d6000fd5b505050506040513d601f19601f8201168201806040525081019061030f9190611cdd565b90506103266001600160a01b038616333085610ef6565b6040516370a0823160e01b81523060048201526000906001600160a01b038716906370a0823190602401602060405180830381865afa15801561036d573d6000803e3d6000fd5b505050506040513d601f19601f820116820180604052508101906103919190611cdd565b9050600061039f8383611d0c565b90508282116103c1576040516321739d9b60e01b815260040160405180910390fd5b6006546000818152600860209081526040808320859055600790915290206103ea878983611d9a565b506006546103f9906001611e59565b600681905560405133916001600160a01b038b16917f9e9794dbf94b0a0aa31a480f5b38550eda7f89115ac8fbf4953fa4dd219900c991610440918c918c91899190611e95565b60405180910390a3505050506104566001600055565b50505050565b610464610ecc565b8060c0015143106104885760405163bcf37c2560e01b815260040160405180910390fd5b61010081015160e0820151600090815260036020526040902054106104e85761010081015160e082015160009081526003602052604090819020549051629427e960e11b8152600481019290925260248201526044015b60405180910390fd5b6104f3848484610f5d565b60015461052861050286611c48565b7f0000000000000000000000000000000000000000000000000000000000000000610e60565b146105465760405163723a340360e01b815260040160405180910390fd5b6020810151518151511461056d57604051634298a95160e11b815260040160405180910390fd5b8060600151518160400151511461059757604051634829247960e01b815260040160405180910390fd5b60007f0000000000000000000000000000000000000000000000000000000000000000681b1bd9da58d0d85b1b60ba1b836000015184602001518560400151866060015187608001518860a001518960c001518a60e001518b610100015160405160200161060f9b9a99989796959493929190611f83565b6040516020818303038152906040528051906020012090506106388585858463aaaaaaaa610d39565b5061010081015160e08201516000908152600360205260408120919091555b8151518110156106c5576106bd82608001518360000151838151811061067f5761067f612028565b60200260200101518460200151848151811061069d5761069d612028565b60200260200101516001600160a01b0316610fae9092919063ffffffff16565b600101610657565b5060006106da82608001518360a00151610fdf565b905060005b82604001515181101561072c57610724338460400151838151811061070657610706612028565b60200260200101518560600151848151811061069d5761069d612028565b6001016106df565b5060055461073b906001611e59565b600581905560e08301516101008401516040517f7c2bb24f8e1b3725cb613d7f11ef97d9745cc97a0e40f730621c052d684077a19361077e93929186919061203e565b60405180910390a1506104566001600055565b610799610ecc565b6001600160a01b0382166000908152600260205260409020546107bd906001611e59565b8314610801576001600160a01b0382166000908152600260205260409081902054905163f7f920ad60e01b81526104df918591600401918252602082015260400190565b804310610821576040516308b9266360e11b815260040160405180910390fd5b61082c8c8c8c610f5d565b60015461083b6105028e611c48565b146108595760405163723a340360e01b815260040160405180910390fd5b87861415806108685750878414155b156108865760405163c1f97e3560e01b815260040160405180910390fd5b6109048c8c8c7f00000000000000000000000000000000000000000000000000000000000000006f0e8e4c2dce6c2c6e8d2dedc84c2e8c6d60831b8e8e8e8e8e8e8e8e8e6040516020016108e49b9a999897969594939291906120de565b6040516020818303038152906040528051906020012063aaaaaaaa610d39565b6001600160a01b0382166000908152600260205260408120849055805b898110156109b35761098589898381811061093e5761093e612028565b90506020020160208101906109539190611512565b8c8c8481811061096557610965612028565b90506020020135866001600160a01b0316610fae9092919063ffffffff16565b86868281811061099757610997612028565b90506020020135826109a99190611e59565b9150600101610921565b506109c86001600160a01b0384163383610fae565b506005546109d7906001611e59565b60058190556040519081526001600160a01b0383169084907f02c7e81975f8edb86e2a0c038b7b86a49c744236abf0f6177ff5afc6986ab7089060200160405180910390a3610a266001600055565b505050505050505050505050565b610a4360408401356001611e59565b846040013514610a75576040805163e0e8edf360e01b81528186013560048201529084013560248201526044016104df565b610a826020850185612155565b9050610a8e8580612155565b9050141580610aa65750610aa28480612155565b1590505b15610ac45760405163c01ba0ab60e01b815260040160405180910390fd5b610acf838383610f5d565b6000805b610ae06020870187612155565b9050811015610b2d57610af66020870187612155565b82818110610b0657610b06612028565b9050602002013582610b189190611e59565b915063aaaaaaaa8211610b2d57600101610ad3565b5063aaaaaaaa8111610b5e5760405162bfb6ab60e01b81526004810182905263aaaaaaaa60248201526044016104df565b600154610b6d61050286611c48565b14610b8b5760405163723a340360e01b815260040160405180910390fd5b6000610b9961050287611c48565b9050610bac8585858463aaaaaaaa610d39565b600181905560408601356004556000610bcb60a0880160808901611512565b6001600160a01b031614158015610be55750606086013515155b15610c1357610c13336060880135610c0360a08a0160808b01611512565b6001600160a01b03169190610fae565b600554610c21906001611e59565b60058190556040870135907f76d08978c024a4bf8cbb30c67fd78fcaa1827cbc533e4e175f36d07e64ccf96a906060890135610c6360a08b0160808c01611512565b610c6d8b80612155565b610c7a60208e018e612155565b604051610c8d979695949392919061219e565b60405180910390a2505050505050565b6000308686868686604051610cb1906113c4565b610cc0969594939291906121ed565b604051809103906000f080158015610cdc573d6000803e3d6000fd5b509050806001600160a01b03167f82fe3a4fa49c6382d0c085746698ddbbafe6c2bf61285b19410644b5b26287c7898989898989896000604051610d2798979695949392919061223c565b60405180910390a25050505050505050565b6000805b610d478780612155565b9050811015610e2e57858582818110610d6257610d62612028565b610d789260206060909202019081019150612293565b60ff1615610e2657610dd0610d8d8880612155565b83818110610d9d57610d9d612028565b9050602002016020810190610db29190611512565b85888885818110610dc557610dc5612028565b905060600201610ff4565b610ded57604051638baa579f60e01b815260040160405180910390fd5b610dfa6020880188612155565b82818110610e0a57610e0a612028565b9050602002013582610e1c9190611e59565b9150828211610e2e575b600101610d3d565b50818111610e585760405162bfb6ab60e01b815260048101829052602481018390526044016104df565b505050505050565b6000806918da1958dadc1bda5b9d60b21b60001b90506000838286604001518760000151886020015189606001518a60800151604051602001610ea997969594939291906122ae565b60408051601f198184030181529190528051602090910120925050505b92915050565b600260005403610eef57604051633ee5aeb560e01b815260040160405180910390fd5b6002600055565b6040516001600160a01b0384811660248301528381166044830152606482018390526104569186918216906323b872dd906084015b604051602081830303815290604052915060e01b6020820180516001600160e01b038381831617835250505050611085565b610f6a6020840184612155565b9050610f768480612155565b9050141580610f90575080610f8b8480612155565b905014155b156102975760405163c6617b7b60e01b815260040160405180910390fd5b6040516001600160a01b0383811660248301526044820183905261029791859182169063a9059cbb90606401610f2b565b6060610fed838360006110e8565b9392505050565b6040517f19457468657265756d205369676e6564204d6573736167653a0a3332000000006020820152603c81018390526000908190605c0160408051601f198184030181529190528051602091820120915061106790829061105890860186612293565b85602001358660400135611185565b6001600160a01b0316856001600160a01b0316149150509392505050565b600061109a6001600160a01b03841683610fdf565b905080516000141580156110bf5750808060200190518101906110bd919061230a565b155b1561029757604051635274afe760e01b81526001600160a01b03841660048201526024016104df565b60608147101561110d5760405163cd78605960e01b81523060048201526024016104df565b600080856001600160a01b03168486604051611129919061232c565b60006040518083038185875af1925050503d8060008114611166576040519150601f19603f3d011682016040523d82523d6000602084013e61116b565b606091505b509150915061117b8683836111b3565b9695505050505050565b6000806000806111978888888861120f565b9250925092506111a782826112de565b50909695505050505050565b6060826111c8576111c38261139b565b610fed565b81511580156111df57506001600160a01b0384163b155b1561120857604051639996b31560e01b81526001600160a01b03851660048201526024016104df565b5080610fed565b600080807f7fffffffffffffffffffffffffffffff5d576e7357a4501ddfe92f46681b20a084111561124a57506000915060039050826112d4565b604080516000808252602082018084528a905260ff891692820192909252606081018790526080810186905260019060a0016020604051602081039080840390855afa15801561129e573d6000803e3d6000fd5b5050604051601f1901519150506001600160a01b0381166112ca575060009250600191508290506112d4565b9250600091508190505b9450945094915050565b60008260038111156112f2576112f2612348565b036112fb575050565b600182600381111561130f5761130f612348565b0361132d5760405163f645eedf60e01b815260040160405180910390fd5b600282600381111561134157611341612348565b036113625760405163fce698f760e01b8152600481018290526024016104df565b600382600381111561137657611376612348565b03611397576040516335e2f38360e21b8152600481018290526024016104df565b5050565b8051156113ab5780518082602001fd5b604051630a12f52160e11b815260040160405180910390fd5b610c3f8061235f83390190565b600060a082840312156113e357600080fd5b50919050565b60008083601f8401126113fb57600080fd5b5081356001600160401b0381111561141257600080fd5b60208301915083602060608302850101111561142d57600080fd5b9250929050565b60008060008060006080868803121561144c57600080fd5b85356001600160401b0381111561146257600080fd5b61146e888289016113d1565b95505060208601356001600160401b0381111561148a57600080fd5b611496888289016113e9565b9699909850959660408101359660609091013595509350505050565b600080604083850312156114c557600080fd5b82356001600160401b038111156114db57600080fd5b6114e7858286016113d1565b95602094909401359450505050565b80356001600160a01b038116811461150d57600080fd5b919050565b60006020828403121561152457600080fd5b610fed826114f6565b60008083601f84011261153f57600080fd5b5081356001600160401b0381111561155657600080fd5b60208301915083602082850101111561142d57600080fd5b6000806000806060858703121561158457600080fd5b61158d856114f6565b935060208501356001600160401b038111156115a857600080fd5b6115b48782880161152d565b9598909750949560400135949350505050565b634e487b7160e01b600052604160045260246000fd5b60405161012081016001600160401b0381118282101715611600576116006115c7565b60405290565b60405160a081016001600160401b0381118282101715611600576116006115c7565b604051601f8201601f191681016001600160401b0381118282101715611650576116506115c7565b604052919050565b60006001600160401b03821115611671576116716115c7565b5060051b60200190565b600082601f83011261168c57600080fd5b813561169f61169a82611658565b611628565b8082825260208201915060208360051b8601019250858311156116c157600080fd5b602085015b838110156116de5780358352602092830192016116c6565b5095945050505050565b600082601f8301126116f957600080fd5b813561170761169a82611658565b8082825260208201915060208360051b86010192508583111561172957600080fd5b602085015b838110156116de5761173f816114f6565b83526020928301920161172e565b600082601f83011261175e57600080fd5b81356001600160401b03811115611777576117776115c7565b61178a601f8201601f1916602001611628565b81815284602083860101111561179f57600080fd5b816020850160208301376000918101602001919091529392505050565b600080600080606085870312156117d257600080fd5b84356001600160401b038111156117e857600080fd5b6117f4878288016113d1565b94505060208501356001600160401b0381111561181057600080fd5b61181c878288016113e9565b90945092505060408501356001600160401b0381111561183b57600080fd5b8501610120818803121561184e57600080fd5b6118566115dd565b81356001600160401b0381111561186c57600080fd5b6118788982850161167b565b82525060208201356001600160401b0381111561189457600080fd5b6118a0898285016116e8565b60208301525060408201356001600160401b038111156118bf57600080fd5b6118cb8982850161167b565b60408301525060608201356001600160401b038111156118ea57600080fd5b6118f6898285016116e8565b606083015250611908608083016114f6565b608082015260a08201356001600160401b0381111561192657600080fd5b6119328982850161174d565b60a08301525060c0828101359082015260e080830135908201526101009182013591810191909152939692955090935050565b60006020828403121561197757600080fd5b5035919050565b60008083601f84011261199057600080fd5b5081356001600160401b038111156119a757600080fd5b6020830191508360208260051b850101111561142d57600080fd5b6000806000806000806000806000806000806101008d8f0312156119e557600080fd5b6001600160401b038d3511156119fa57600080fd5b611a078e8e358f016113d1565b9b506001600160401b0360208e01351115611a2157600080fd5b611a318e60208f01358f016113e9565b909b5099506001600160401b0360408e01351115611a4e57600080fd5b611a5e8e60408f01358f0161197e565b90995097506001600160401b0360608e01351115611a7b57600080fd5b611a8b8e60608f01358f0161197e565b90975095506001600160401b0360808e01351115611aa857600080fd5b611ab88e60808f01358f0161197e565b909550935060a08d01359250611ad060c08e016114f6565b9150600060e08e01359050809150509295989b509295989b509295989b565b60008060008060608587031215611b0557600080fd5b84356001600160401b03811115611b1b57600080fd5b611b27878288016113d1565b94505060208501356001600160401b03811115611b4357600080fd5b611b4f878288016113d1565b93505060408501356001600160401b03811115611b6b57600080fd5b611b77878288016113e9565b95989497509550505050565b803560ff8116811461150d57600080fd5b60008060008060008060006080888a031215611baf57600080fd5b87356001600160401b03811115611bc557600080fd5b611bd18a828b0161152d565b90985096505060208801356001600160401b03811115611bf057600080fd5b611bfc8a828b0161152d565b90965094505060408801356001600160401b03811115611c1b57600080fd5b611c278a828b0161152d565b9094509250611c3a905060608901611b83565b905092959891949750929550565b600060a08236031215611c5a57600080fd5b611c62611606565b82356001600160401b03811115611c7857600080fd5b611c84368286016116e8565b82525060208301356001600160401b03811115611ca057600080fd5b611cac3682860161167b565b6020830152506040838101359082015260608084013590820152611cd2608084016114f6565b608082015292915050565b600060208284031215611cef57600080fd5b5051919050565b634e487b7160e01b600052601160045260246000fd5b81810381811115610ec657610ec6611cf6565b600181811c90821680611d3357607f821691505b6020821081036113e357634e487b7160e01b600052602260045260246000fd5b601f82111561029757806000526020600020601f840160051c81016020851015611d7a5750805b601f840160051c820191505b8181101561027e5760008155600101611d86565b6001600160401b03831115611db157611db16115c7565b611dc583611dbf8354611d1f565b83611d53565b6000601f841160018114611df95760008515611de15750838201355b600019600387901b1c1916600186901b17835561027e565b600083815260209020601f19861690835b82811015611e2a5786850135825560209485019460019092019101611e0a565b5086821015611e475760001960f88860031b161c19848701351681555b505060018560011b0183555050505050565b80820180821115610ec657610ec6611cf6565b81835281816020850137506000828201602090810191909152601f909101601f19169091010190565b606081526000611ea9606083018688611e6c565b6020830194909452506040015292915050565b600081518084526020840193506020830160005b82811015611eee578151865260209586019590910190600101611ed0565b5093949350505050565b600081518084526020840193506020830160005b82811015611eee5781516001600160a01b0316865260209586019590910190600101611f0c565b60005b83811015611f4e578181015183820152602001611f36565b50506000910152565b60008151808452611f6f816020860160208601611f33565b601f01601f19169290920160200192915050565b8b81528a602082015261016060408201526000611fa461016083018c611ebc565b8281036060840152611fb6818c611ef8565b90508281036080840152611fca818b611ebc565b905082810360a0840152611fde818a611ef8565b6001600160a01b03891660c085015283810360e085015290506120018188611f57565b61010084019690965250506101208101929092526101409091015298975050505050505050565b634e487b7160e01b600052603260045260246000fd5b84815283602082015260806040820152600061205d6080830185611f57565b905082606083015295945050505050565b81835260006001600160fb1b0383111561208757600080fd5b8260051b80836020870137939093016020019392505050565b81835260208301925060008160005b84811015611eee576001600160a01b036120c8836114f6565b16865260209586019591909101906001016120af565b8b81528a60208201526101006040820152600061210061010083018b8d61206e565b8281036060840152612113818a8c6120a0565b9050828103608084015261212881888a61206e565b60a084019690965250506001600160a01b039290921660c083015260e09091015298975050505050505050565b6000808335601e1984360301811261216c57600080fd5b8301803591506001600160401b0382111561218657600080fd5b6020019150600581901b360382131561142d57600080fd5b87815286602082015260018060a01b038616604082015260a0606082015260006121cc60a0830186886120a0565b82810360808401526121df81858761206e565b9a9950505050505050505050565b6001600160a01b03871681526080602082018190526000906122129083018789611e6c565b8281036040840152612225818688611e6c565b91505060ff83166060830152979650505050505050565b60a08152600061225060a083018a8c611e6c565b828103602084015261226381898b611e6c565b90508281036040840152612278818789611e6c565b60ff9590951660608401525050608001529695505050505050565b6000602082840312156122a557600080fd5b610fed82611b83565b87815286602082015285604082015260e0606082015260006122d360e0830187611ef8565b82810360808401526122e58187611ebc565b60a084019590955250506001600160a01b039190911660c09091015295945050505050565b60006020828403121561231c57600080fd5b81518015158114610fed57600080fd5b6000825161233e818460208701611f33565b9190910192915050565b634e487b7160e01b600052602160045260246000fdfe608060405234801561001057600080fd5b50604051610c3f380380610c3f83398101604081905261002f916102aa565b8282600361003d83826103d4565b50600461004a82826103d4565b5050600580546001600160a01b038716610100026001600160a81b031990911660ff8516171790555061007f84600019610088565b505050506104b9565b6001600160a01b0382166100b75760405163ec442f0560e01b8152600060048201526024015b60405180910390fd5b6100c3600083836100c7565b5050565b6001600160a01b0383166100f25780600260008282546100e79190610492565b909155506101649050565b6001600160a01b038316600090815260208190526040902054818110156101455760405163391434e360e21b81526001600160a01b038516600482015260248101829052604481018390526064016100ae565b6001600160a01b03841660009081526020819052604090209082900390555b6001600160a01b0382166101805760028054829003905561019f565b6001600160a01b03821660009081526020819052604090208054820190555b816001600160a01b0316836001600160a01b03167fddf252ad1be2c89b69c2b068fc378daa952ba7f163c4a11628f55a4df523b3ef836040516101e491815260200190565b60405180910390a3505050565b634e487b7160e01b600052604160045260246000fd5b600082601f83011261021857600080fd5b81516001600160401b03811115610231576102316101f1565b604051601f8201601f19908116603f011681016001600160401b038111828210171561025f5761025f6101f1565b60405281815283820160200185101561027757600080fd5b60005b828110156102965760208186018101518383018201520161027a565b506000918101602001919091529392505050565b600080600080608085870312156102c057600080fd5b84516001600160a01b03811681146102d757600080fd5b60208601519094506001600160401b038111156102f357600080fd5b6102ff87828801610207565b604087015190945090506001600160401b0381111561031d57600080fd5b61032987828801610207565b925050606085015160ff8116811461034057600080fd5b939692955090935050565b600181811c9082168061035f57607f821691505b60208210810361037f57634e487b7160e01b600052602260045260246000fd5b50919050565b601f8211156103cf57806000526020600020601f840160051c810160208510156103ac5750805b601f840160051c820191505b818110156103cc57600081556001016103b8565b50505b505050565b81516001600160401b038111156103ed576103ed6101f1565b610401816103fb845461034b565b84610385565b6020601f821160018114610435576000831561041d5750848201515b600019600385901b1c1916600184901b1784556103cc565b600084815260208120601f198516915b828110156104655787850151825560209485019460019092019101610445565b50848210156104835786840151600019600387901b60f8161c191681555b50505050600190811b01905550565b808201808211156104b357634e487b7160e01b600052601160045260246000fd5b92915050565b610777806104c86000396000f3fe608060405234801561001057600080fd5b50600436106100935760003560e01c8063313ce56711610066578063313ce5671461010257806370a082311461011757806395d89b4114610140578063a9059cbb14610148578063dd62ed3e1461015b57600080fd5b806306fdde0314610098578063095ea7b3146100b657806318160ddd146100d957806323b872dd146100ef575b600080fd5b6100a0610194565b6040516100ad91906105a5565b60405180910390f35b6100c96100c436600461060f565b610226565b60405190151581526020016100ad565b6100e1610240565b6040519081526020016100ad565b6100c96100fd366004610639565b610271565b60055460405160ff90911681526020016100ad565b6100e1610125366004610676565b6001600160a01b031660009081526020819052604090205490565b6100a0610295565b6100c961015636600461060f565b6102a4565b6100e1610169366004610698565b6001600160a01b03918216600090815260016020908152604080832093909416825291909152205490565b6060600380546101a3906106cb565b80601f01602080910402602001604051908101604052809291908181526020018280546101cf906106cb565b801561021c5780601f106101f15761010080835404028352916020019161021c565b820191906000526020600020905b8154815290600101906020018083116101ff57829003601f168201915b5050505050905090565b6000336102348185856102b2565b60019150505b92915050565b60055461010090046001600160a01b031660009081526020819052604081205461026c9060001961071b565b905090565b60003361027f8582856102c4565b61028a858585610347565b506001949350505050565b6060600480546101a3906106cb565b600033610234818585610347565b6102bf83838360016103a6565b505050565b6001600160a01b038381166000908152600160209081526040808320938616835292905220546000198114610341578181101561033257604051637dc7a0d960e11b81526001600160a01b038416600482015260248101829052604481018390526064015b60405180910390fd5b610341848484840360006103a6565b50505050565b6001600160a01b03831661037157604051634b637e8f60e11b815260006004820152602401610329565b6001600160a01b03821661039b5760405163ec442f0560e01b815260006004820152602401610329565b6102bf83838361047b565b6001600160a01b0384166103d05760405163e602df0560e01b815260006004820152602401610329565b6001600160a01b0383166103fa57604051634a1406b160e11b815260006004820152602401610329565b6001600160a01b038085166000908152600160209081526040808320938716835292905220829055801561034157826001600160a01b0316846001600160a01b03167f8c5be1e5ebec7d5bd14f71427d1e84f3dd0314c0f7b2291e5b200ac8c7c3b9258460405161046d91815260200190565b60405180910390a350505050565b6001600160a01b0383166104a657806002600082825461049b919061072e565b909155506105189050565b6001600160a01b038316600090815260208190526040902054818110156104f95760405163391434e360e21b81526001600160a01b03851660048201526024810182905260448101839052606401610329565b6001600160a01b03841660009081526020819052604090209082900390555b6001600160a01b03821661053457600280548290039055610553565b6001600160a01b03821660009081526020819052604090208054820190555b816001600160a01b0316836001600160a01b03167fddf252ad1be2c89b69c2b068fc378daa952ba7f163c4a11628f55a4df523b3ef8360405161059891815260200190565b60405180910390a3505050565b602081526000825180602084015260005b818110156105d357602081860181015160408684010152016105b6565b506000604082850101526040601f19601f83011684010191505092915050565b80356001600160a01b038116811461060a57600080fd5b919050565b6000806040838503121561062257600080fd5b61062b836105f3565b946020939093013593505050565b60008060006060848603121561064e57600080fd5b610657846105f3565b9250610665602085016105f3565b929592945050506040919091013590565b60006020828403121561068857600080fd5b610691826105f3565b9392505050565b600080604083850312156106ab57600080fd5b6106b4836105f3565b91506106c2602084016105f3565b90509250929050565b600181811c908216806106df57607f821691505b6020821081036106ff57634e487b7160e01b600052602260045260246000fd5b50919050565b634e487b7160e01b600052601160045260246000fd5b8181038181111561023a5761023a610705565b8082018082111561023a5761023a61070556fea264697066735822122024c79efa80d76fa77ae6b1ca389ed0fdae409820955e53b98e9246aa7ec3ca6164736f6c634300081a0033a26469706673582212208687db87e7b988536405c5d2a08fa426d653bf7e0f82cd61622df88a00816b9264736f6c634300081a0033","linkReferences":{}},"methodIdentifiers":{"deployERC20(string,string,string,uint8)":"f7955637","lastBatchNonce(address)":"011b2174","lastLogicCallNonce(bytes32)":"c9d194d5","sendToCosmos(address,string,uint256)":"0f212357","state_gravityId()":"bdda81d4","state_invalidationMapping(bytes32)":"7dfb6f86","state_lastBatchNonces(address)":"df97174b","state_lastEventNonce()":"73b20547","state_lastReturnNonce()":"274975fa","state_lastValsetCheckpoint()":"f2b53307","state_lastValsetNonce()":"b56561fe","submitBatch((address[],uint256[],uint256,uint256,address),(uint8,bytes32,bytes32)[],uint256[],address[],uint256[],uint256,address,uint256)":"8690ff98","submitLogicCall((address[],uint256[],uint256,uint256,address),(uint8,bytes32,bytes32)[],(uint256[],address[],uint256[],address[],address,bytes,uint256,bytes32,uint256))":"6941db93","testCheckValidatorSignatures((address[],uint256[],uint256,uint256,address),(uint8,bytes32,bytes32)[],bytes32,uint256)":"00901153","testMakeCheckpoint((address[],uint256[],uint256,uint256,address),bytes32)":"01031525","updateValset((address[],uint256[],uint256,uint256,address),(address[],uint256[],uint256,uint256,address),(uint8,bytes32,bytes32)[])":"aca6b1c1"},"id":1}